{"contracts/cygnus-oracle/CygnusNebula.sol":{"CygnusNebula":{"abi":[{"inputs":[{"internalType":"contract IERC20","name":"denomination","type":"address"},{"internalType":"contract AggregatorV3Interface","name":"denominationPrice","type":"address"},{"internalType":"address","name":"_nebulaRegistry","type":"address"}],"stateMutability":"nonpayable","type":"constructor"},{"inputs":[],"name":"CygnusNebulaOracle__AlreadyInContext","type":"error"},{"inputs":[{"internalType":"address","name":"sender","type":"address"}],"name":"CygnusNebulaOracle__MsgSenderNotRegistry","type":"error"},{"inputs":[{"internalType":"address","name":"lpTokenPair","type":"address"}],"name":"CygnusNebulaOracle__PairAlreadyInitialized","type":"error"},{"inputs":[{"internalType":"address","name":"lpTokenPair","type":"address"}],"name":"CygnusNebulaOracle__PairNotInitialized","type":"error"},{"inputs":[{"internalType":"uint256","name":"x","type":"uint256"}],"name":"PRBMathUD60x18__Exp2InputTooBig","type":"error"},{"inputs":[{"internalType":"uint256","name":"x","type":"uint256"}],"name":"PRBMathUD60x18__ExpInputTooBig","type":"error"},{"inputs":[{"internalType":"uint256","name":"x","type":"uint256"},{"internalType":"uint256","name":"y","type":"uint256"}],"name":"PRBMathUD60x18__GmOverflow","type":"error"},{"inputs":[{"internalType":"uint256","name":"x","type":"uint256"}],"name":"PRBMathUD60x18__LogInputTooSmall","type":"error"},{"inputs":[{"internalType":"uint256","name":"prod1","type":"uint256"},{"internalType":"uint256","name":"denominator","type":"uint256"}],"name":"PRBMath__MulDivOverflow","type":"error"},{"anonymous":false,"inputs":[{"indexed":false,"internalType":"bool","name":"initialized","type":"bool"},{"indexed":false,"internalType":"uint88","name":"oracleId","type":"uint88"},{"indexed":false,"internalType":"address","name":"lpTokenPair","type":"address"},{"indexed":false,"internalType":"contract IERC20[]","name":"poolTokens","type":"address[]"},{"indexed":false,"internalType":"uint256[]","name":"poolTokensDecimals","type":"uint256[]"},{"indexed":false,"internalType":"contract AggregatorV3Interface[]","name":"priceFeeds","type":"address[]"},{"indexed":false,"internalType":"uint256[]","name":"priceFeedsDecimals","type":"uint256[]"}],"name":"InitializeNebulaOracle","type":"event"},{"anonymous":false,"inputs":[{"indexed":false,"internalType":"address","name":"oracleOldAdmin","type":"address"},{"indexed":false,"internalType":"address","name":"oracleNewAdmin","type":"address"}],"name":"NewOracleAdmin","type":"event"},{"anonymous":false,"inputs":[{"indexed":false,"internalType":"address","name":"oracleCurrentAdmin","type":"address"},{"indexed":false,"internalType":"address","name":"oraclePendingAdmin","type":"address"}],"name":"NewOraclePendingAdmin","type":"event"},{"inputs":[],"name":"AGGREGATOR_DECIMALS","outputs":[{"internalType":"uint256","name":"","type":"uint256"}],"stateMutability":"view","type":"function"},{"inputs":[],"name":"AGGREGATOR_SCALAR","outputs":[{"internalType":"uint256","name":"","type":"uint256"}],"stateMutability":"view","type":"function"},{"inputs":[],"name":"S","outputs":[{"internalType":"bytes4","name":"","type":"bytes4"}],"stateMutability":"view","type":"function"},{"inputs":[],"name":"SECONDS_PER_YEAR","outputs":[{"internalType":"uint256","name":"","type":"uint256"}],"stateMutability":"view","type":"function"},{"inputs":[{"internalType":"uint256","name":"","type":"uint256"}],"name":"allNebulas","outputs":[{"internalType":"address","name":"","type":"address"}],"stateMutability":"view","type":"function"},{"inputs":[{"internalType":"address","name":"lpTokenPair","type":"address"}],"name":"assetPricesUsd","outputs":[{"internalType":"uint256[]","name":"","type":"uint256[]"}],"stateMutability":"view","type":"function"},{"inputs":[],"name":"decimals","outputs":[{"internalType":"uint8","name":"","type":"uint8"}],"stateMutability":"view","type":"function"},{"inputs":[],"name":"denominationAggregator","outputs":[{"internalType":"contract AggregatorV3Interface","name":"","type":"address"}],"stateMutability":"view","type":"function"},{"inputs":[],"name":"denominationToken","outputs":[{"internalType":"contract IERC20","name":"","type":"address"}],"stateMutability":"view","type":"function"},{"inputs":[],"name":"denominationTokenPrice","outputs":[{"internalType":"uint256","name":"","type":"uint256"}],"stateMutability":"view","type":"function"},{"inputs":[{"internalType":"uint256","name":"exchangeRateLast","type":"uint256"},{"internalType":"uint256","name":"exchangeRateCurrent","type":"uint256"},{"internalType":"uint256","name":"timeElapsed","type":"uint256"}],"name":"getAnnualizedBaseRate","outputs":[{"internalType":"uint256","name":"","type":"uint256"}],"stateMutability":"pure","type":"function"},{"inputs":[{"internalType":"address","name":"lpTokenPair","type":"address"}],"name":"getNebulaOracle","outputs":[{"components":[{"internalType":"bool","name":"initialized","type":"bool"},{"internalType":"uint88","name":"oracleId","type":"uint88"},{"internalType":"string","name":"name","type":"string"},{"internalType":"address","name":"underlying","type":"address"},{"internalType":"contract IERC20[]","name":"poolTokens","type":"address[]"},{"internalType":"uint256[]","name":"poolTokensDecimals","type":"uint256[]"},{"internalType":"contract AggregatorV3Interface[]","name":"priceFeeds","type":"address[]"},{"internalType":"uint256[]","name":"priceFeedsDecimals","type":"uint256[]"}],"internalType":"struct ICygnusNebula.NebulaOracle","name":"","type":"tuple"}],"stateMutability":"view","type":"function"},{"inputs":[{"internalType":"address","name":"lpTokenPair","type":"address"},{"internalType":"contract AggregatorV3Interface[]","name":"aggregators","type":"address[]"}],"name":"initializeNebulaOracle","outputs":[],"stateMutability":"nonpayable","type":"function"},{"inputs":[{"internalType":"address","name":"lpTokenPair","type":"address"}],"name":"lpTokenPriceUsd","outputs":[{"internalType":"uint256","name":"lpTokenPrice","type":"uint256"}],"stateMutability":"view","type":"function"},{"inputs":[],"name":"name","outputs":[{"internalType":"string","name":"","type":"string"}],"stateMutability":"view","type":"function"},{"inputs":[],"name":"nebulaRegistry","outputs":[{"internalType":"address","name":"","type":"address"}],"stateMutability":"view","type":"function"},{"inputs":[],"name":"nebulaSize","outputs":[{"internalType":"uint88","name":"","type":"uint88"}],"stateMutability":"view","type":"function"},{"inputs":[],"name":"version","outputs":[{"internalType":"string","name":"","type":"string"}],"stateMutability":"view","type":"function"}],"evm":{"bytecode":{"linkReferences":{},"object":"6101008060405234620001535760608162002dab803803809162000024828562000158565b833981010312620001535780516001600160a01b03808216808303620001535760208401519382851685036200015357604001519182168203620001535760049260209260e0526080526040519283809263313ce56760e01b82525afa9081156200014757600091620000fe575b5060a05260c052604051612c1890816200019382396080518161012d015260a051818181610d75015281816113fd015281816114d201526117ec015260c051818181610d4d01528181610ebe0152818161149101526117c3015260e0518181816101de01526102b00152f35b6020813d82116200013e575b81620001196020938362000158565b810103126200013a57519060ff821682036200013757503862000092565b80fd5b5080fd5b3d91506200010a565b6040513d6000823e3d90fd5b600080fd5b601f909101601f19168101906001600160401b038211908210176200017c57604052565b634e487b7160e01b600052604160045260246000fdfe6080604052600436101561001257600080fd5b60003560e01c806306fdde03146122ee578063131ad74e146118fa57806317e5a1a1146115a2578063193d1da914611421578063313ce567146113c55780633ef096d3146110005780634be1c79614610fa757806354fd4d5014610f1c5780638a790cf214610ee25780638eb6f8f014610e735780639ff631dd14610e35578063ba3941e714610dec578063cadbcc2114610d19578063d02c70e814610cab578063d9be853114610202578063e13d88ac14610193578063e6a69ab8146101565763f6b9fdfb146100e257600080fd5b346101515760007ffffffffffffffffffffffffffffffffffffffffffffffffffffffffffffffffc36011261015157602060405173ffffffffffffffffffffffffffffffffffffffff7f0000000000000000000000000000000000000000000000000000000000000000168152f35b600080fd5b346101515760007ffffffffffffffffffffffffffffffffffffffffffffffffffffffffffffffffc3601126101515760206040516301e133808152f35b346101515760007ffffffffffffffffffffffffffffffffffffffffffffffffffffffffffffffffc36011261015157602060405173ffffffffffffffffffffffffffffffffffffffff7f0000000000000000000000000000000000000000000000000000000000000000168152f35b346101515760407ffffffffffffffffffffffffffffffffffffffffffffffffffffffffffffffffc3601126101515760043573ffffffffffffffffffffffffffffffffffffffff811681036101515767ffffffffffffffff60243511610151573660236024350112156101515767ffffffffffffffff60243560040135116101515736602480356004013560051b81350101116101515773ffffffffffffffffffffffffffffffffffffffff7f0000000000000000000000000000000000000000000000000000000000000000163303610c7b5773ffffffffffffffffffffffffffffffffffffffff8116600052600060205260406000209081549160ff8316610c345761031560243560040135612690565b610322604051918261239b565b600460243501358082527fffffffffffffffffffffffffffffffffffffffffffffffffffffffffffffffe09061035790612690565b0136602083013761036d602435600401356126a8565b9161037d602435600401356126a8565b946040517f0dfe168100000000000000000000000000000000000000000000000000000000815260208160048173ffffffffffffffffffffffffffffffffffffffff8a165afa8015610a955773ffffffffffffffffffffffffffffffffffffffff91600091610c15575b50166103f4600085612724565b526040517fd21220a700000000000000000000000000000000000000000000000000000000815260208160048173ffffffffffffffffffffffffffffffffffffffff8a165afa8015610a955773ffffffffffffffffffffffffffffffffffffffff91600091610be6575b501661046b600185612724565b5260005b602435600401358110610aa157507fffffffffffffffffffffffffffffffffffffffff0000000000000000000000ff6bffffffffffffffffffffff0060015460081b1691161781556040517f06fdde0300000000000000000000000000000000000000000000000000000000815260008160048173ffffffffffffffffffffffffffffffffffffffff89165afa908115610a9557600091610a1b575b5080519067ffffffffffffffff821161086857819061052d6001850154612541565b601f81116109db575b50602090601f831160011461090f57600092610904575b50507fffffffffffffffffffffffffffffffffffffffffffffffffffffffffffffffff8260011b9260031b1c19161760018201555b6002810173ffffffffffffffffffffffffffffffffffffffff85167fffffffffffffffffffffffff0000000000000000000000000000000000000000825416179055815167ffffffffffffffff81116108685768010000000000000000811161086857600382016105f8828254818455836127b5565b6020840190600052602060002060005b8381106108da5750505050825167ffffffffffffffff8111610868576801000000000000000081116108685760048201610647828254818455836127b5565b6020850190600052602060002060005b8381106108c657505050506801000000000000000060243560040135116108685760058101805460046024350135808355610694929091906127b5565b602480350192836005830160005260206000209060005b6024356004013581106108ab57505050855167ffffffffffffffff81116108685768010000000000000000811161086857600683016106ef828254818455836127b5565b6020880190600052602060002060005b838110610897575050505060017fffffffffffffffffffffffffffffffffffffffffffffffffffffffffffffff00835416178255600154680100000000000000008110156108685760209373ffffffffffffffffffffffffffffffffffffffff6affffffffffffffffffffff6107d595826107858660016107c7980160015560016124fa565b8c829392549160031b83811b93849216901b169119161790555460081c16976040519860018a52878a015216604088015260e0606088015260e08701906124b0565b90858203608087015261247c565b83810360a0850152602435600401358152019060005b602435600401358110610832577f558b57994e63dd3105e23dd47f60a4074d50167448cd407bc457b8a29e3dab0d848061082d868983820360c085015261247c565b0390a1005b909182359073ffffffffffffffffffffffffffffffffffffffff82168092036101515760208160019382935201930191016107eb565b7f4e487b7100000000000000000000000000000000000000000000000000000000600052604160045260246000fd5b6001906020845194019381840155016106ff565b60019060206108b98461277d565b93019281850155016106ab565b600190602084519401938184015501610657565b600190602073ffffffffffffffffffffffffffffffffffffffff8551169401938184015501610608565b01519050878061054d565b9250600184016000526020600020906000935b7fffffffffffffffffffffffffffffffffffffffffffffffffffffffffffffffe0841685106109c05760019450837fffffffffffffffffffffffffffffffffffffffffffffffffffffffffffffffe0811610610989575b505050811b016001820155610582565b01517fffffffffffffffffffffffffffffffffffffffffffffffffffffffffffffffff60f88460031b161c19169055878080610979565b81810151835560209485019460019093019290910190610922565b610a0b90600186016000526020600020601f850160051c81019160208610610a11575b601f0160051c019061279e565b88610536565b90915081906109fe565b90503d806000833e610a2d818361239b565b8101906020818303126101515780519067ffffffffffffffff8211610151570181601f82011215610151578051610a63816123dc565b92610a71604051948561239b565b8184526020828401011161015157610a8f9160208085019101612416565b8661050b565b6040513d6000823e3d90fd5b80602073ffffffffffffffffffffffffffffffffffffffff610ac560049488612724565b5116604051938480927f313ce5670000000000000000000000000000000000000000000000000000000082525afa918215610a955760049260ff91600091610bc7575b5016610b148288612724565b52602073ffffffffffffffffffffffffffffffffffffffff610b3e60248460051b8135010161277d565b16604051938480927f313ce5670000000000000000000000000000000000000000000000000000000082525afa918215610a9557610b939260ff91600091610b98575b5016610b8d828a612724565b526126f7565b61046f565b610bba915060203d602011610bc0575b610bb2818361239b565b810190612764565b8a610b81565b503d610ba8565b610be0915060203d602011610bc057610bb2818361239b565b8a610b08565b610c08915060203d602011610c0e575b610c00818361239b565b810190612738565b8861045e565b503d610bf6565b610c2e915060203d602011610c0e57610c00818361239b565b886103e7565b60248273ffffffffffffffffffffffffffffffffffffffff604051917f48a979dc000000000000000000000000000000000000000000000000000000008352166004820152fd5b60246040517f47a51a28000000000000000000000000000000000000000000000000000000008152336004820152fd5b346101515760207ffffffffffffffffffffffffffffffffffffffffffffffffffffffffffffffffc360112610151576004356001548110156101515773ffffffffffffffffffffffffffffffffffffffff610d0960209260016124fa565b9190546040519260031b1c168152f35b346101515760007ffffffffffffffffffffffffffffffffffffffffffffffffffffffffffffffffc36011261015157610d717f0000000000000000000000000000000000000000000000000000000000000000612642565b60ff7f00000000000000000000000000000000000000000000000000000000000000001660120360ff8111610dbd57602091610daf610db592612631565b906125f8565b604051908152f35b7f4e487b7100000000000000000000000000000000000000000000000000000000600052601160045260246000fd5b346101515760007ffffffffffffffffffffffffffffffffffffffffffffffffffffffffffffffffc3601126101515760206affffffffffffffffffffff60015416604051908152f35b346101515760007ffffffffffffffffffffffffffffffffffffffffffffffffffffffffffffffffc3601126101515760206040516402540be4008152f35b346101515760007ffffffffffffffffffffffffffffffffffffffffffffffffffffffffffffffffc36011261015157602060405173ffffffffffffffffffffffffffffffffffffffff7f0000000000000000000000000000000000000000000000000000000000000000168152f35b346101515760007ffffffffffffffffffffffffffffffffffffffffffffffffffffffffffffffffc36011261015157602060405160088152f35b346101515760007ffffffffffffffffffffffffffffffffffffffffffffffffffffffffffffffffc36011261015157610fa3610f5860056123dc565b610f65604051918261239b565b600581527f312e302e300000000000000000000000000000000000000000000000000000006020820152604051918291602083526020830190612439565b0390f35b346101515760007ffffffffffffffffffffffffffffffffffffffffffffffffffffffffffffffffc3601126101515760206040517f6a627842000000000000000000000000000000000000000000000000000000008152f35b346101515760207ffffffffffffffffffffffffffffffffffffffffffffffffffffffffffffffffc3601126101515760043573ffffffffffffffffffffffffffffffffffffffff811680910361015157606060e06040516110636101008261239b565b60008152600060208201528260408201526000838201528260808201528260a08201528260c0820152015260005260006020526040600020604051906110ab6101008361239b565b6affffffffffffffffffffff815460ff81161515845260081c16602083015260018101604051908160008254926110e184612541565b8084529360018116908115611385575060011461133e575b506111069250038261239b565b604083015273ffffffffffffffffffffffffffffffffffffffff6002820154166060830152600381016040518082602082945493848152019060005260206000209260005b81811061130f5750506111609250038261239b565b608083015261117160048201612594565b60a08301526005810160405190816020825491828152019160005260206000209060005b8181106112e357866111bb600688886111b0818a038261239b565b60c085015201612594565b60e0820152604051602081528151151560208201526affffffffffffffffffffff602083015116604082015261120260408301516101006060840152610120830190612439565b73ffffffffffffffffffffffffffffffffffffffff606084015116608083015261127361125f6080850151927fffffffffffffffffffffffffffffffffffffffffffffffffffffffffffffffe093848683030160a08701526124b0565b60a0850151838583030160c086015261247c565b9260c081015193828482030160e08501526020808651928381520195019060005b8181106112b7578580610fa3898860e0890151908483030161010085015261247c565b825173ffffffffffffffffffffffffffffffffffffffff16875260209687019690920191600101611294565b825473ffffffffffffffffffffffffffffffffffffffff16845260209093019260019283019201611195565b845473ffffffffffffffffffffffffffffffffffffffff1683526001948501948694506020909301920161114b565b90506000929192526020600020906000915b81831061136957505090602061110692820101866110f9565b6020919350806001915483858801015201910190918392611350565b602093506111069592507fffffffffffffffffffffffffffffffffffffffffffffffffffffffffffffff0091501682840152151560051b820101866110f9565b346101515760007ffffffffffffffffffffffffffffffffffffffffffffffffffffffffffffffffc36011261015157602060405160ff7f0000000000000000000000000000000000000000000000000000000000000000168152f35b346101515760207ffffffffffffffffffffffffffffffffffffffffffffffffffffffffffffffffc3601126101515760043573ffffffffffffffffffffffffffffffffffffffff8082168092036101515781600052600060205260406000209160ff8354161561157157506114b57f0000000000000000000000000000000000000000000000000000000000000000612642565b60039283810154916114c6836126a8565b936005600093019560ff7f0000000000000000000000000000000000000000000000000000000000000000166012039660ff8811945b8681106115195760405160208082528190610fa39082018b61247c565b80611535856115298994866124fa565b905490871b1c16612642565b91610dbd5761156261156c92670de0b6b3a764000061155c6115568e612631565b8a6125e5565b916127d8565b610b8d828b612724565b6114fc565b602490604051907ffb642b4d0000000000000000000000000000000000000000000000000000000082526004820152fd5b34610151576020807ffffffffffffffffffffffffffffffffffffffffffffffffffffffffffffffffc3601126101515773ffffffffffffffffffffffffffffffffffffffff600435818116908181036101515760008091604051868101907f6a6278420000000000000000000000000000000000000000000000000000000082528360248201526024815261163860448261239b565b5191612710fa503d156118f3573d61164f816123dc565b9061165d604051928361239b565b81523d60008583013e5b516118c957806000526000835260406000209060ff82541615611571576116b360058301936116a060016116ad836116a060008a6124fa565b90549060031b1c16612642565b966124fa565b91604051907f0902f1ac000000000000000000000000000000000000000000000000000000008252606082600481865afa938415610a95578692600090600096611868575b5061173e60016117526117589594610daf9461174a600461172d819d9e6dffffffffffffffffffffffffffff809516906125e5565b980197610daf61173e60008b6124fa565b90549060031b1c612682565b9b16906125e5565b936124fa565b91604051938480927f18160ddd0000000000000000000000000000000000000000000000000000000082525afa918215610a9557600092611837575b5061179f91926128b5565b90671bc16d674ec800009180830292830403610dbd576117be916125f8565b6117e77f0000000000000000000000000000000000000000000000000000000000000000612642565b9060ff7f0000000000000000000000000000000000000000000000000000000000000000166012039160ff8311610dbd5761155c670de0b6b3a764000091611831610db595612631565b906125e5565b91508382813d8311611861575b61184e818361239b565b810103126101515761179f915191611794565b503d611844565b9295505091506060813d82116118c1575b816118866060938361239b565b810103126101515761189781612667565b9360406118a5888401612667565b92015163ffffffff81160361015157909386929061173e6116f8565b3d9150611879565b60046040517f47a08e96000000000000000000000000000000000000000000000000000000008152fd5b6060611667565b346101515760607ffffffffffffffffffffffffffffffffffffffffffffffffffffffffffffffffc36011261015157670de0b6b3a76400006714057b7ef767814f8082611948600435612a65565b020491602492828261195a8635612a65565b0204818103918183116122c0576301e1338080840293840414911417156122925761198890604435906125f8565b91680736ea4425c11ac631831015612262576706f05b59d3b2000090829302010490680a688906bd8b00000082101561223357809160401b0490778000000000000000000000000000000000000000000000006780000000000000008316612214575b6740000000000000008316612201575b67200000000000000083166121ee575b67100000000000000083166121db575b67080000000000000083166121c8575b67040000000000000083166121b5575b67020000000000000083166121a2575b670100000000000000831661218f575b6680000000000000831661217c575b66400000000000008316612169575b66200000000000008316612156575b66100000000000008316612143575b66080000000000008316612130575b6604000000000000831661211d575b6602000000000000831661210a575b660100000000000083166120f7575b6580000000000083166120e4575b6540000000000083166120d1575b6520000000000083166120be575b6510000000000083166120ab575b650800000000008316612098575b650400000000008316612085575b650200000000008316612072575b65010000000000831661205f575b648000000000831661204c575b6440000000008316612039575b6420000000008316612026575b6410000000008316612013575b6408000000008316612000575b6404000000008316611fed575b6402000000008316611fda575b6401000000008316611fc7575b63800000008316611fb4575b63400000008316611fa1575b63200000008316611f8e575b63100000008316611f7b575b63080000008316611f68575b63040000008316611f55575b63020000008316611f42575b63010000008316611f2f575b628000008316611f1c575b624000008316611f09575b622000008316611ef6575b621000008316611ee3575b620800008316611ed0575b620400008316611ebd575b620200008316611eaa575b620100008316611e97575b6180008316611e84575b6140008316611e71575b6120008316611e5e575b6110008316611e4b575b6108008316611e38575b6104008316611e25575b6102008316611e12575b6101008316611dff575b60808316611dec575b60408316611dd9575b60208316611dc6575b60108316611db3575b60088316611da0575b60048316611d8d575b60028316611d7a575b60018316611d67575b029060401c60bf031c7ffffffffffffffffffffffffffffffffffffffffffffffffff21f494c589c00008101908111611d3957602090604051908152f35b507f4e487b710000000000000000000000000000000000000000000000000000000060005260116004526000fd5b680100000000000000010260401c611cfb565b680100000000000000010260401c611cf2565b680100000000000000030260401c611ce9565b680100000000000000060260401c611ce0565b6801000000000000000b0260401c611cd7565b680100000000000000160260401c611cce565b6801000000000000002c0260401c611cc5565b680100000000000000590260401c611cbc565b680100000000000000b10260401c611cb3565b680100000000000001630260401c611ca9565b680100000000000002c60260401c611c9f565b6801000000000000058c0260401c611c95565b68010000000000000b170260401c611c8b565b6801000000000000162e0260401c611c81565b68010000000000002c5d0260401c611c77565b680100000000000058b90260401c611c6d565b6801000000000000b1720260401c611c63565b680100000000000162e40260401c611c58565b6801000000000002c5c80260401c611c4d565b68010000000000058b910260401c611c42565b680100000000000b17210260401c611c37565b68010000000000162e430260401c611c2c565b680100000000002c5c860260401c611c21565b6801000000000058b90c0260401c611c16565b68010000000000b172180260401c611c0b565b6801000000000162e4300260401c611bff565b68010000000002c5c8600260401c611bf3565b680100000000058b90c00260401c611be7565b6801000000000b17217f0260401c611bdb565b680100000000162e42ff0260401c611bcf565b6801000000002c5c85fe0260401c611bc3565b68010000000058b90bfc0260401c611bb7565b680100000000b17217f80260401c611bab565b68010000000162e42ff10260401c611b9e565b680100000002c5c85fe30260401c611b91565b6801000000058b90bfce0260401c611b84565b68010000000b17217fbb0260401c611b77565b6801000000162e42fff00260401c611b6a565b68010000002c5c8601cc0260401c611b5d565b680100000058b90c0b490260401c611b50565b6801000000b1721835510260401c611b43565b680100000162e430e5a20260401c611b35565b6801000002c5c863b73f0260401c611b27565b68010000058b90cf1e6e0260401c611b19565b680100000b1721bcfc9a0260401c611b0b565b68010000162e43f4f8310260401c611afd565b680100002c5c89d5ec6d0260401c611aef565b6801000058b91b5bc9ae0260401c611ae1565b68010000b17255775c040260401c611ad3565b6801000162e525ee05470260401c611ac4565b68010002c5cc37da94920260401c611ab5565b680100058ba01fb9f96d0260401c611aa6565b6801000b175effdc76ba0260401c611a97565b680100162f3904051fa10260401c611a88565b6801002c605e2e8cec500260401c611a79565b68010058c86da1c09ea20260401c611a6a565b680100b1afa5abcbed610260401c611a5b565b68010163da9fb33356d80260401c611a4b565b680102c9a3e778060ee70260401c611a3b565b6801059b0d31585743ae0260401c611a2b565b68010b5586cf9890f62a0260401c611a1b565b6801172b83c7d517adce0260401c611a0b565b6801306fe0a31b7152df0260401c6119fb565b5077b504f333f9de6484800000000000000000000000000000006119eb565b50604051907f4a4f26f10000000000000000000000000000000000000000000000000000000082526004820152fd5b5050604051907f315da0680000000000000000000000000000000000000000000000000000000082526004820152fd5b837f4e487b710000000000000000000000000000000000000000000000000000000060005260116004526000fd5b857f4e487b710000000000000000000000000000000000000000000000000000000060005260116004526000fd5b346101515760007ffffffffffffffffffffffffffffffffffffffffffffffffffffffffffffffffc36011261015157610fa361232a60296123dc565b612337604051918261239b565b602981527f4379676e75732d4e6562756c613a20436f6e7374616e742d50726f647563742060208201527f4c50204f7261636c6500000000000000000000000000000000000000000000006040820152604051918291602083526020830190612439565b90601f7fffffffffffffffffffffffffffffffffffffffffffffffffffffffffffffffe0910116810190811067ffffffffffffffff82111761086857604052565b67ffffffffffffffff811161086857601f017fffffffffffffffffffffffffffffffffffffffffffffffffffffffffffffffe01660200190565b60005b8381106124295750506000910152565b8181015183820152602001612419565b907fffffffffffffffffffffffffffffffffffffffffffffffffffffffffffffffe0601f60209361247581518092818752878088019101612416565b0116010190565b90815180825260208080930193019160005b82811061249c575050505090565b83518552938101939281019260010161248e565b90815180825260208080930193019160005b8281106124d0575050505090565b835173ffffffffffffffffffffffffffffffffffffffff16855293810193928101926001016124c2565b80548210156125125760005260206000200190600090565b7f4e487b7100000000000000000000000000000000000000000000000000000000600052603260045260246000fd5b90600182811c9216801561258a575b602083101461255b57565b7f4e487b7100000000000000000000000000000000000000000000000000000000600052602260045260246000fd5b91607f1691612550565b9060405191828154918282526020928383019160005283600020936000905b8282106125cb575050506125c99250038361239b565b565b8554845260019586019588955093810193909101906125b3565b81810292918115918404141715610dbd57565b8115612602570490565b7f4e487b7100000000000000000000000000000000000000000000000000000000600052601260045260246000fd5b60ff16604d8111610dbd57600a0a90565b604060006004601c6402540be4009463feaf968c84525afa601f3d1116602051020290565b51906dffffffffffffffffffffffffffff8216820361015157565b604d8111610dbd57600a0a90565b67ffffffffffffffff81116108685760051b60200190565b906126b282612690565b6126bf604051918261239b565b8281527fffffffffffffffffffffffffffffffffffffffffffffffffffffffffffffffe06126ed8294612690565b0190602036910137565b7fffffffffffffffffffffffffffffffffffffffffffffffffffffffffffffffff8114610dbd5760010190565b80518210156125125760209160051b010190565b90816020910312610151575173ffffffffffffffffffffffffffffffffffffffff811681036101515790565b90816020910312610151575160ff811681036101515790565b3573ffffffffffffffffffffffffffffffffffffffff811681036101515790565b8181106127a9575050565b6000815560010161279e565b918181106127c257505050565b6125c9926000526020600020918201910161279e565b90917fffffffffffffffffffffffffffffffffffffffffffffffffffffffffffffffff83830992808302928380861095039480860395146128a5578285101561286e57908291096001821901821680920460028082600302188083028203028083028203028083028203028083028203028083028203028092029003029360018380600003040190848311900302920304170290565b60448584604051917f773cc18c00000000000000000000000000000000000000000000000000000000835260048301526024820152fd5b5050906128b292506125f8565b90565b80156129105781810291806128ca83856125f8565b036128da5750506128b290612917565b60449250604051917ec3efdf00000000000000000000000000000000000000000000000000000000835260048301526024820152fd5b5050600090565b8015612a5f57806001700100000000000000000000000000000000831015612a49575b600882680100000000000000006129f1941015612a3c575b640100000000811015612a2f575b62010000811015612a23575b610100811015612a17575b6010811015612a0a575b1015612a02575b61299281846125f8565b0160011c6129a081846125f8565b0160011c6129ae81846125f8565b0160011c6129bc81846125f8565b0160011c6129ca81846125f8565b0160011c6129d881846125f8565b0160011c6129e681846125f8565b0160011c80926125f8565b908181106129fd575090565b905090565b60011b612988565b60041c9160021b91612981565b811c9160041b91612977565b60101c91811b9161296c565b60201c9160101b91612960565b60401c9160201b91612952565b5050608081901c6801000000000000000061293a565b50600090565b90670de0b6b3a7640000808310612bda57600092818104700100000000000000000000000000000000811015612bcf575b68010000000000000000811015612bba575b640100000000811015612ba5575b62010000811015612b90575b610100811015612b7b575b6010811015612b66575b6004811015612b51575b60021115612b3f575b818402931c90808214612b3b576706f05b59d3b2000091825b612b0c57505050565b808291020491671bc16d674ec80000831015612b2d575b60011c9182612b03565b809294019360011c91612b23565b5050565b9260018101809111610dbd5792612aea565b60021c9360028101809111610dbd5793612ae1565b60041c9360048101809111610dbd5793612ad7565b60081c9360088101809111610dbd5793612acd565b60101c9360108101809111610dbd5793612ac2565b60201c9360208101809111610dbd5793612ab6565b60401c9360408101809111610dbd5793612aa8565b60809450841c612a96565b602483604051907fd88504dc0000000000000000000000000000000000000000000000000000000082526004820152fdfea164736f6c6343000811000a","opcodes":"PUSH2 0x100 DUP1 PUSH1 0x40 MSTORE CALLVALUE PUSH3 0x153 JUMPI PUSH1 0x60 DUP2 PUSH3 0x2DAB DUP1 CODESIZE SUB DUP1 SWAP2 PUSH3 0x24 DUP3 DUP6 PUSH3 0x158 JUMP JUMPDEST DUP4 CODECOPY DUP2 ADD SUB SLT PUSH3 0x153 JUMPI DUP1 MLOAD PUSH1 0x1 PUSH1 0x1 PUSH1 0xA0 SHL SUB DUP1 DUP3 AND DUP1 DUP4 SUB PUSH3 0x153 JUMPI PUSH1 0x20 DUP5 ADD MLOAD SWAP4 DUP3 DUP6 AND DUP6 SUB PUSH3 0x153 JUMPI PUSH1 0x40 ADD MLOAD SWAP2 DUP3 AND DUP3 SUB PUSH3 0x153 JUMPI PUSH1 0x4 SWAP3 PUSH1 0x20 SWAP3 PUSH1 0xE0 MSTORE PUSH1 0x80 MSTORE PUSH1 0x40 MLOAD SWAP3 DUP4 DUP1 SWAP3 PUSH4 0x313CE567 PUSH1 0xE0 SHL DUP3 MSTORE GAS STATICCALL SWAP1 DUP2 ISZERO PUSH3 0x147 JUMPI PUSH1 0x0 SWAP2 PUSH3 0xFE JUMPI JUMPDEST POP PUSH1 0xA0 MSTORE PUSH1 0xC0 MSTORE PUSH1 0x40 MLOAD PUSH2 0x2C18 SWAP1 DUP2 PUSH3 0x193 DUP3 CODECOPY PUSH1 0x80 MLOAD DUP2 PUSH2 0x12D ADD MSTORE PUSH1 0xA0 MLOAD DUP2 DUP2 DUP2 PUSH2 0xD75 ADD MSTORE DUP2 DUP2 PUSH2 0x13FD ADD MSTORE DUP2 DUP2 PUSH2 0x14D2 ADD MSTORE PUSH2 0x17EC ADD MSTORE PUSH1 0xC0 MLOAD DUP2 DUP2 DUP2 PUSH2 0xD4D ADD MSTORE DUP2 DUP2 PUSH2 0xEBE ADD MSTORE DUP2 DUP2 PUSH2 0x1491 ADD MSTORE PUSH2 0x17C3 ADD MSTORE PUSH1 0xE0 MLOAD DUP2 DUP2 DUP2 PUSH2 0x1DE ADD MSTORE PUSH2 0x2B0 ADD MSTORE RETURN JUMPDEST PUSH1 0x20 DUP2 RETURNDATASIZE DUP3 GT PUSH3 0x13E JUMPI JUMPDEST DUP2 PUSH3 0x119 PUSH1 0x20 SWAP4 DUP4 PUSH3 0x158 JUMP JUMPDEST DUP2 ADD SUB SLT PUSH3 0x13A JUMPI MLOAD SWAP1 PUSH1 0xFF DUP3 AND DUP3 SUB PUSH3 0x137 JUMPI POP CODESIZE PUSH3 0x92 JUMP JUMPDEST DUP1 REVERT JUMPDEST POP DUP1 REVERT JUMPDEST RETURNDATASIZE SWAP2 POP PUSH3 0x10A JUMP JUMPDEST PUSH1 0x40 MLOAD RETURNDATASIZE PUSH1 0x0 DUP3 RETURNDATACOPY RETURNDATASIZE SWAP1 REVERT JUMPDEST PUSH1 0x0 DUP1 REVERT JUMPDEST PUSH1 0x1F SWAP1 SWAP2 ADD PUSH1 0x1F NOT AND DUP2 ADD SWAP1 PUSH1 0x1 PUSH1 0x1 PUSH1 0x40 SHL SUB DUP3 GT SWAP1 DUP3 LT OR PUSH3 0x17C JUMPI PUSH1 0x40 MSTORE JUMP JUMPDEST PUSH4 0x4E487B71 PUSH1 0xE0 SHL PUSH1 0x0 MSTORE PUSH1 0x41 PUSH1 0x4 MSTORE PUSH1 0x24 PUSH1 0x0 REVERT INVALID PUSH1 0x80 PUSH1 0x40 MSTORE PUSH1 0x4 CALLDATASIZE LT ISZERO PUSH2 0x12 JUMPI PUSH1 0x0 DUP1 REVERT JUMPDEST PUSH1 0x0 CALLDATALOAD PUSH1 0xE0 SHR DUP1 PUSH4 0x6FDDE03 EQ PUSH2 0x22EE JUMPI DUP1 PUSH4 0x131AD74E EQ PUSH2 0x18FA JUMPI DUP1 PUSH4 0x17E5A1A1 EQ PUSH2 0x15A2 JUMPI DUP1 PUSH4 0x193D1DA9 EQ PUSH2 0x1421 JUMPI DUP1 PUSH4 0x313CE567 EQ PUSH2 0x13C5 JUMPI DUP1 PUSH4 0x3EF096D3 EQ PUSH2 0x1000 JUMPI DUP1 PUSH4 0x4BE1C796 EQ PUSH2 0xFA7 JUMPI DUP1 PUSH4 0x54FD4D50 EQ PUSH2 0xF1C JUMPI DUP1 PUSH4 0x8A790CF2 EQ PUSH2 0xEE2 JUMPI DUP1 PUSH4 0x8EB6F8F0 EQ PUSH2 0xE73 JUMPI DUP1 PUSH4 0x9FF631DD EQ PUSH2 0xE35 JUMPI DUP1 PUSH4 0xBA3941E7 EQ PUSH2 0xDEC JUMPI DUP1 PUSH4 0xCADBCC21 EQ PUSH2 0xD19 JUMPI DUP1 PUSH4 0xD02C70E8 EQ PUSH2 0xCAB JUMPI DUP1 PUSH4 0xD9BE8531 EQ PUSH2 0x202 JUMPI DUP1 PUSH4 0xE13D88AC EQ PUSH2 0x193 JUMPI DUP1 PUSH4 0xE6A69AB8 EQ PUSH2 0x156 JUMPI PUSH4 0xF6B9FDFB EQ PUSH2 0xE2 JUMPI PUSH1 0x0 DUP1 REVERT JUMPDEST CALLVALUE PUSH2 0x151 JUMPI PUSH1 0x0 PUSH32 0xFFFFFFFFFFFFFFFFFFFFFFFFFFFFFFFFFFFFFFFFFFFFFFFFFFFFFFFFFFFFFFFC CALLDATASIZE ADD SLT PUSH2 0x151 JUMPI PUSH1 0x20 PUSH1 0x40 MLOAD PUSH20 0xFFFFFFFFFFFFFFFFFFFFFFFFFFFFFFFFFFFFFFFF PUSH32 0x0 AND DUP2 MSTORE RETURN JUMPDEST PUSH1 0x0 DUP1 REVERT JUMPDEST CALLVALUE PUSH2 0x151 JUMPI PUSH1 0x0 PUSH32 0xFFFFFFFFFFFFFFFFFFFFFFFFFFFFFFFFFFFFFFFFFFFFFFFFFFFFFFFFFFFFFFFC CALLDATASIZE ADD SLT PUSH2 0x151 JUMPI PUSH1 0x20 PUSH1 0x40 MLOAD PUSH4 0x1E13380 DUP2 MSTORE RETURN JUMPDEST CALLVALUE PUSH2 0x151 JUMPI PUSH1 0x0 PUSH32 0xFFFFFFFFFFFFFFFFFFFFFFFFFFFFFFFFFFFFFFFFFFFFFFFFFFFFFFFFFFFFFFFC CALLDATASIZE ADD SLT PUSH2 0x151 JUMPI PUSH1 0x20 PUSH1 0x40 MLOAD PUSH20 0xFFFFFFFFFFFFFFFFFFFFFFFFFFFFFFFFFFFFFFFF PUSH32 0x0 AND DUP2 MSTORE RETURN JUMPDEST CALLVALUE PUSH2 0x151 JUMPI PUSH1 0x40 PUSH32 0xFFFFFFFFFFFFFFFFFFFFFFFFFFFFFFFFFFFFFFFFFFFFFFFFFFFFFFFFFFFFFFFC CALLDATASIZE ADD SLT PUSH2 0x151 JUMPI PUSH1 0x4 CALLDATALOAD PUSH20 0xFFFFFFFFFFFFFFFFFFFFFFFFFFFFFFFFFFFFFFFF DUP2 AND DUP2 SUB PUSH2 0x151 JUMPI PUSH8 0xFFFFFFFFFFFFFFFF PUSH1 0x24 CALLDATALOAD GT PUSH2 0x151 JUMPI CALLDATASIZE PUSH1 0x23 PUSH1 0x24 CALLDATALOAD ADD SLT ISZERO PUSH2 0x151 JUMPI PUSH8 0xFFFFFFFFFFFFFFFF PUSH1 0x24 CALLDATALOAD PUSH1 0x4 ADD CALLDATALOAD GT PUSH2 0x151 JUMPI CALLDATASIZE PUSH1 0x24 DUP1 CALLDATALOAD PUSH1 0x4 ADD CALLDATALOAD PUSH1 0x5 SHL DUP2 CALLDATALOAD ADD ADD GT PUSH2 0x151 JUMPI PUSH20 0xFFFFFFFFFFFFFFFFFFFFFFFFFFFFFFFFFFFFFFFF PUSH32 0x0 AND CALLER SUB PUSH2 0xC7B JUMPI PUSH20 0xFFFFFFFFFFFFFFFFFFFFFFFFFFFFFFFFFFFFFFFF DUP2 AND PUSH1 0x0 MSTORE PUSH1 0x0 PUSH1 0x20 MSTORE PUSH1 0x40 PUSH1 0x0 KECCAK256 SWAP1 DUP2 SLOAD SWAP2 PUSH1 0xFF DUP4 AND PUSH2 0xC34 JUMPI PUSH2 0x315 PUSH1 0x24 CALLDATALOAD PUSH1 0x4 ADD CALLDATALOAD PUSH2 0x2690 JUMP JUMPDEST PUSH2 0x322 PUSH1 0x40 MLOAD SWAP2 DUP3 PUSH2 0x239B JUMP JUMPDEST PUSH1 0x4 PUSH1 0x24 CALLDATALOAD ADD CALLDATALOAD DUP1 DUP3 MSTORE PUSH32 0xFFFFFFFFFFFFFFFFFFFFFFFFFFFFFFFFFFFFFFFFFFFFFFFFFFFFFFFFFFFFFFE0 SWAP1 PUSH2 0x357 SWAP1 PUSH2 0x2690 JUMP JUMPDEST ADD CALLDATASIZE PUSH1 0x20 DUP4 ADD CALLDATACOPY PUSH2 0x36D PUSH1 0x24 CALLDATALOAD PUSH1 0x4 ADD CALLDATALOAD PUSH2 0x26A8 JUMP JUMPDEST SWAP2 PUSH2 0x37D PUSH1 0x24 CALLDATALOAD PUSH1 0x4 ADD CALLDATALOAD PUSH2 0x26A8 JUMP JUMPDEST SWAP5 PUSH1 0x40 MLOAD PUSH32 0xDFE168100000000000000000000000000000000000000000000000000000000 DUP2 MSTORE PUSH1 0x20 DUP2 PUSH1 0x4 DUP2 PUSH20 0xFFFFFFFFFFFFFFFFFFFFFFFFFFFFFFFFFFFFFFFF DUP11 AND GAS STATICCALL DUP1 ISZERO PUSH2 0xA95 JUMPI PUSH20 0xFFFFFFFFFFFFFFFFFFFFFFFFFFFFFFFFFFFFFFFF SWAP2 PUSH1 0x0 SWAP2 PUSH2 0xC15 JUMPI JUMPDEST POP AND PUSH2 0x3F4 PUSH1 0x0 DUP6 PUSH2 0x2724 JUMP JUMPDEST MSTORE PUSH1 0x40 MLOAD PUSH32 0xD21220A700000000000000000000000000000000000000000000000000000000 DUP2 MSTORE PUSH1 0x20 DUP2 PUSH1 0x4 DUP2 PUSH20 0xFFFFFFFFFFFFFFFFFFFFFFFFFFFFFFFFFFFFFFFF DUP11 AND GAS STATICCALL DUP1 ISZERO PUSH2 0xA95 JUMPI PUSH20 0xFFFFFFFFFFFFFFFFFFFFFFFFFFFFFFFFFFFFFFFF SWAP2 PUSH1 0x0 SWAP2 PUSH2 0xBE6 JUMPI JUMPDEST POP AND PUSH2 0x46B PUSH1 0x1 DUP6 PUSH2 0x2724 JUMP JUMPDEST MSTORE PUSH1 0x0 JUMPDEST PUSH1 0x24 CALLDATALOAD PUSH1 0x4 ADD CALLDATALOAD DUP2 LT PUSH2 0xAA1 JUMPI POP PUSH32 0xFFFFFFFFFFFFFFFFFFFFFFFFFFFFFFFFFFFFFFFF0000000000000000000000FF PUSH12 0xFFFFFFFFFFFFFFFFFFFFFF00 PUSH1 0x1 SLOAD PUSH1 0x8 SHL AND SWAP2 AND OR DUP2 SSTORE PUSH1 0x40 MLOAD PUSH32 0x6FDDE0300000000000000000000000000000000000000000000000000000000 DUP2 MSTORE PUSH1 0x0 DUP2 PUSH1 0x4 DUP2 PUSH20 0xFFFFFFFFFFFFFFFFFFFFFFFFFFFFFFFFFFFFFFFF DUP10 AND GAS STATICCALL SWAP1 DUP2 ISZERO PUSH2 0xA95 JUMPI PUSH1 0x0 SWAP2 PUSH2 0xA1B JUMPI JUMPDEST POP DUP1 MLOAD SWAP1 PUSH8 0xFFFFFFFFFFFFFFFF DUP3 GT PUSH2 0x868 JUMPI DUP2 SWAP1 PUSH2 0x52D PUSH1 0x1 DUP6 ADD SLOAD PUSH2 0x2541 JUMP JUMPDEST PUSH1 0x1F DUP2 GT PUSH2 0x9DB JUMPI JUMPDEST POP PUSH1 0x20 SWAP1 PUSH1 0x1F DUP4 GT PUSH1 0x1 EQ PUSH2 0x90F JUMPI PUSH1 0x0 SWAP3 PUSH2 0x904 JUMPI JUMPDEST POP POP PUSH32 0xFFFFFFFFFFFFFFFFFFFFFFFFFFFFFFFFFFFFFFFFFFFFFFFFFFFFFFFFFFFFFFFF DUP3 PUSH1 0x1 SHL SWAP3 PUSH1 0x3 SHL SHR NOT AND OR PUSH1 0x1 DUP3 ADD SSTORE JUMPDEST PUSH1 0x2 DUP2 ADD PUSH20 0xFFFFFFFFFFFFFFFFFFFFFFFFFFFFFFFFFFFFFFFF DUP6 AND PUSH32 0xFFFFFFFFFFFFFFFFFFFFFFFF0000000000000000000000000000000000000000 DUP3 SLOAD AND OR SWAP1 SSTORE DUP2 MLOAD PUSH8 0xFFFFFFFFFFFFFFFF DUP2 GT PUSH2 0x868 JUMPI PUSH9 0x10000000000000000 DUP2 GT PUSH2 0x868 JUMPI PUSH1 0x3 DUP3 ADD PUSH2 0x5F8 DUP3 DUP3 SLOAD DUP2 DUP5 SSTORE DUP4 PUSH2 0x27B5 JUMP JUMPDEST PUSH1 0x20 DUP5 ADD SWAP1 PUSH1 0x0 MSTORE PUSH1 0x20 PUSH1 0x0 KECCAK256 PUSH1 0x0 JUMPDEST DUP4 DUP2 LT PUSH2 0x8DA JUMPI POP POP POP POP DUP3 MLOAD PUSH8 0xFFFFFFFFFFFFFFFF DUP2 GT PUSH2 0x868 JUMPI PUSH9 0x10000000000000000 DUP2 GT PUSH2 0x868 JUMPI PUSH1 0x4 DUP3 ADD PUSH2 0x647 DUP3 DUP3 SLOAD DUP2 DUP5 SSTORE DUP4 PUSH2 0x27B5 JUMP JUMPDEST PUSH1 0x20 DUP6 ADD SWAP1 PUSH1 0x0 MSTORE PUSH1 0x20 PUSH1 0x0 KECCAK256 PUSH1 0x0 JUMPDEST DUP4 DUP2 LT PUSH2 0x8C6 JUMPI POP POP POP POP PUSH9 0x10000000000000000 PUSH1 0x24 CALLDATALOAD PUSH1 0x4 ADD CALLDATALOAD GT PUSH2 0x868 JUMPI PUSH1 0x5 DUP2 ADD DUP1 SLOAD PUSH1 0x4 PUSH1 0x24 CALLDATALOAD ADD CALLDATALOAD DUP1 DUP4 SSTORE PUSH2 0x694 SWAP3 SWAP1 SWAP2 SWAP1 PUSH2 0x27B5 JUMP JUMPDEST PUSH1 0x24 DUP1 CALLDATALOAD ADD SWAP3 DUP4 PUSH1 0x5 DUP4 ADD PUSH1 0x0 MSTORE PUSH1 0x20 PUSH1 0x0 KECCAK256 SWAP1 PUSH1 0x0 JUMPDEST PUSH1 0x24 CALLDATALOAD PUSH1 0x4 ADD CALLDATALOAD DUP2 LT PUSH2 0x8AB JUMPI POP POP POP DUP6 MLOAD PUSH8 0xFFFFFFFFFFFFFFFF DUP2 GT PUSH2 0x868 JUMPI PUSH9 0x10000000000000000 DUP2 GT PUSH2 0x868 JUMPI PUSH1 0x6 DUP4 ADD PUSH2 0x6EF DUP3 DUP3 SLOAD DUP2 DUP5 SSTORE DUP4 PUSH2 0x27B5 JUMP JUMPDEST PUSH1 0x20 DUP9 ADD SWAP1 PUSH1 0x0 MSTORE PUSH1 0x20 PUSH1 0x0 KECCAK256 PUSH1 0x0 JUMPDEST DUP4 DUP2 LT PUSH2 0x897 JUMPI POP POP POP POP PUSH1 0x1 PUSH32 0xFFFFFFFFFFFFFFFFFFFFFFFFFFFFFFFFFFFFFFFFFFFFFFFFFFFFFFFFFFFFFF00 DUP4 SLOAD AND OR DUP3 SSTORE PUSH1 0x1 SLOAD PUSH9 0x10000000000000000 DUP2 LT ISZERO PUSH2 0x868 JUMPI PUSH1 0x20 SWAP4 PUSH20 0xFFFFFFFFFFFFFFFFFFFFFFFFFFFFFFFFFFFFFFFF PUSH11 0xFFFFFFFFFFFFFFFFFFFFFF PUSH2 0x7D5 SWAP6 DUP3 PUSH2 0x785 DUP7 PUSH1 0x1 PUSH2 0x7C7 SWAP9 ADD PUSH1 0x1 SSTORE PUSH1 0x1 PUSH2 0x24FA JUMP JUMPDEST DUP13 DUP3 SWAP4 SWAP3 SLOAD SWAP2 PUSH1 0x3 SHL DUP4 DUP2 SHL SWAP4 DUP5 SWAP3 AND SWAP1 SHL AND SWAP2 NOT AND OR SWAP1 SSTORE SLOAD PUSH1 0x8 SHR AND SWAP8 PUSH1 0x40 MLOAD SWAP9 PUSH1 0x1 DUP11 MSTORE DUP8 DUP11 ADD MSTORE AND PUSH1 0x40 DUP9 ADD MSTORE PUSH1 0xE0 PUSH1 0x60 DUP9 ADD MSTORE PUSH1 0xE0 DUP8 ADD SWAP1 PUSH2 0x24B0 JUMP JUMPDEST SWAP1 DUP6 DUP3 SUB PUSH1 0x80 DUP8 ADD MSTORE PUSH2 0x247C JUMP JUMPDEST DUP4 DUP2 SUB PUSH1 0xA0 DUP6 ADD MSTORE PUSH1 0x24 CALLDATALOAD PUSH1 0x4 ADD CALLDATALOAD DUP2 MSTORE ADD SWAP1 PUSH1 0x0 JUMPDEST PUSH1 0x24 CALLDATALOAD PUSH1 0x4 ADD CALLDATALOAD DUP2 LT PUSH2 0x832 JUMPI PUSH32 0x558B57994E63DD3105E23DD47F60A4074D50167448CD407BC457B8A29E3DAB0D DUP5 DUP1 PUSH2 0x82D DUP7 DUP10 DUP4 DUP3 SUB PUSH1 0xC0 DUP6 ADD MSTORE PUSH2 0x247C JUMP JUMPDEST SUB SWAP1 LOG1 STOP JUMPDEST SWAP1 SWAP2 DUP3 CALLDATALOAD SWAP1 PUSH20 0xFFFFFFFFFFFFFFFFFFFFFFFFFFFFFFFFFFFFFFFF DUP3 AND DUP1 SWAP3 SUB PUSH2 0x151 JUMPI PUSH1 0x20 DUP2 PUSH1 0x1 SWAP4 DUP3 SWAP4 MSTORE ADD SWAP4 ADD SWAP2 ADD PUSH2 0x7EB JUMP JUMPDEST PUSH32 0x4E487B7100000000000000000000000000000000000000000000000000000000 PUSH1 0x0 MSTORE PUSH1 0x41 PUSH1 0x4 MSTORE PUSH1 0x24 PUSH1 0x0 REVERT JUMPDEST PUSH1 0x1 SWAP1 PUSH1 0x20 DUP5 MLOAD SWAP5 ADD SWAP4 DUP2 DUP5 ADD SSTORE ADD PUSH2 0x6FF JUMP JUMPDEST PUSH1 0x1 SWAP1 PUSH1 0x20 PUSH2 0x8B9 DUP5 PUSH2 0x277D JUMP JUMPDEST SWAP4 ADD SWAP3 DUP2 DUP6 ADD SSTORE ADD PUSH2 0x6AB JUMP JUMPDEST PUSH1 0x1 SWAP1 PUSH1 0x20 DUP5 MLOAD SWAP5 ADD SWAP4 DUP2 DUP5 ADD SSTORE ADD PUSH2 0x657 JUMP JUMPDEST PUSH1 0x1 SWAP1 PUSH1 0x20 PUSH20 0xFFFFFFFFFFFFFFFFFFFFFFFFFFFFFFFFFFFFFFFF DUP6 MLOAD AND SWAP5 ADD SWAP4 DUP2 DUP5 ADD SSTORE ADD PUSH2 0x608 JUMP JUMPDEST ADD MLOAD SWAP1 POP DUP8 DUP1 PUSH2 0x54D JUMP JUMPDEST SWAP3 POP PUSH1 0x1 DUP5 ADD PUSH1 0x0 MSTORE PUSH1 0x20 PUSH1 0x0 KECCAK256 SWAP1 PUSH1 0x0 SWAP4 JUMPDEST PUSH32 0xFFFFFFFFFFFFFFFFFFFFFFFFFFFFFFFFFFFFFFFFFFFFFFFFFFFFFFFFFFFFFFE0 DUP5 AND DUP6 LT PUSH2 0x9C0 JUMPI PUSH1 0x1 SWAP5 POP DUP4 PUSH32 0xFFFFFFFFFFFFFFFFFFFFFFFFFFFFFFFFFFFFFFFFFFFFFFFFFFFFFFFFFFFFFFE0 DUP2 AND LT PUSH2 0x989 JUMPI JUMPDEST POP POP POP DUP2 SHL ADD PUSH1 0x1 DUP3 ADD SSTORE PUSH2 0x582 JUMP JUMPDEST ADD MLOAD PUSH32 0xFFFFFFFFFFFFFFFFFFFFFFFFFFFFFFFFFFFFFFFFFFFFFFFFFFFFFFFFFFFFFFFF PUSH1 0xF8 DUP5 PUSH1 0x3 SHL AND SHR NOT AND SWAP1 SSTORE DUP8 DUP1 DUP1 PUSH2 0x979 JUMP JUMPDEST DUP2 DUP2 ADD MLOAD DUP4 SSTORE PUSH1 0x20 SWAP5 DUP6 ADD SWAP5 PUSH1 0x1 SWAP1 SWAP4 ADD SWAP3 SWAP1 SWAP2 ADD SWAP1 PUSH2 0x922 JUMP JUMPDEST PUSH2 0xA0B SWAP1 PUSH1 0x1 DUP7 ADD PUSH1 0x0 MSTORE PUSH1 0x20 PUSH1 0x0 KECCAK256 PUSH1 0x1F DUP6 ADD PUSH1 0x5 SHR DUP2 ADD SWAP2 PUSH1 0x20 DUP7 LT PUSH2 0xA11 JUMPI JUMPDEST PUSH1 0x1F ADD PUSH1 0x5 SHR ADD SWAP1 PUSH2 0x279E JUMP JUMPDEST DUP9 PUSH2 0x536 JUMP JUMPDEST SWAP1 SWAP2 POP DUP2 SWAP1 PUSH2 0x9FE JUMP JUMPDEST SWAP1 POP RETURNDATASIZE DUP1 PUSH1 0x0 DUP4 RETURNDATACOPY PUSH2 0xA2D DUP2 DUP4 PUSH2 0x239B JUMP JUMPDEST DUP2 ADD SWAP1 PUSH1 0x20 DUP2 DUP4 SUB SLT PUSH2 0x151 JUMPI DUP1 MLOAD SWAP1 PUSH8 0xFFFFFFFFFFFFFFFF DUP3 GT PUSH2 0x151 JUMPI ADD DUP2 PUSH1 0x1F DUP3 ADD SLT ISZERO PUSH2 0x151 JUMPI DUP1 MLOAD PUSH2 0xA63 DUP2 PUSH2 0x23DC JUMP JUMPDEST SWAP3 PUSH2 0xA71 PUSH1 0x40 MLOAD SWAP5 DUP6 PUSH2 0x239B JUMP JUMPDEST DUP2 DUP5 MSTORE PUSH1 0x20 DUP3 DUP5 ADD ADD GT PUSH2 0x151 JUMPI PUSH2 0xA8F SWAP2 PUSH1 0x20 DUP1 DUP6 ADD SWAP2 ADD PUSH2 0x2416 JUMP JUMPDEST DUP7 PUSH2 0x50B JUMP JUMPDEST PUSH1 0x40 MLOAD RETURNDATASIZE PUSH1 0x0 DUP3 RETURNDATACOPY RETURNDATASIZE SWAP1 REVERT JUMPDEST DUP1 PUSH1 0x20 PUSH20 0xFFFFFFFFFFFFFFFFFFFFFFFFFFFFFFFFFFFFFFFF PUSH2 0xAC5 PUSH1 0x4 SWAP5 DUP9 PUSH2 0x2724 JUMP JUMPDEST MLOAD AND PUSH1 0x40 MLOAD SWAP4 DUP5 DUP1 SWAP3 PUSH32 0x313CE56700000000000000000000000000000000000000000000000000000000 DUP3 MSTORE GAS STATICCALL SWAP2 DUP3 ISZERO PUSH2 0xA95 JUMPI PUSH1 0x4 SWAP3 PUSH1 0xFF SWAP2 PUSH1 0x0 SWAP2 PUSH2 0xBC7 JUMPI JUMPDEST POP AND PUSH2 0xB14 DUP3 DUP9 PUSH2 0x2724 JUMP JUMPDEST MSTORE PUSH1 0x20 PUSH20 0xFFFFFFFFFFFFFFFFFFFFFFFFFFFFFFFFFFFFFFFF PUSH2 0xB3E PUSH1 0x24 DUP5 PUSH1 0x5 SHL DUP2 CALLDATALOAD ADD ADD PUSH2 0x277D JUMP JUMPDEST AND PUSH1 0x40 MLOAD SWAP4 DUP5 DUP1 SWAP3 PUSH32 0x313CE56700000000000000000000000000000000000000000000000000000000 DUP3 MSTORE GAS STATICCALL SWAP2 DUP3 ISZERO PUSH2 0xA95 JUMPI PUSH2 0xB93 SWAP3 PUSH1 0xFF SWAP2 PUSH1 0x0 SWAP2 PUSH2 0xB98 JUMPI JUMPDEST POP AND PUSH2 0xB8D DUP3 DUP11 PUSH2 0x2724 JUMP JUMPDEST MSTORE PUSH2 0x26F7 JUMP JUMPDEST PUSH2 0x46F JUMP JUMPDEST PUSH2 0xBBA SWAP2 POP PUSH1 0x20 RETURNDATASIZE PUSH1 0x20 GT PUSH2 0xBC0 JUMPI JUMPDEST PUSH2 0xBB2 DUP2 DUP4 PUSH2 0x239B JUMP JUMPDEST DUP2 ADD SWAP1 PUSH2 0x2764 JUMP JUMPDEST DUP11 PUSH2 0xB81 JUMP JUMPDEST POP RETURNDATASIZE PUSH2 0xBA8 JUMP JUMPDEST PUSH2 0xBE0 SWAP2 POP PUSH1 0x20 RETURNDATASIZE PUSH1 0x20 GT PUSH2 0xBC0 JUMPI PUSH2 0xBB2 DUP2 DUP4 PUSH2 0x239B JUMP JUMPDEST DUP11 PUSH2 0xB08 JUMP JUMPDEST PUSH2 0xC08 SWAP2 POP PUSH1 0x20 RETURNDATASIZE PUSH1 0x20 GT PUSH2 0xC0E JUMPI JUMPDEST PUSH2 0xC00 DUP2 DUP4 PUSH2 0x239B JUMP JUMPDEST DUP2 ADD SWAP1 PUSH2 0x2738 JUMP JUMPDEST DUP9 PUSH2 0x45E JUMP JUMPDEST POP RETURNDATASIZE PUSH2 0xBF6 JUMP JUMPDEST PUSH2 0xC2E SWAP2 POP PUSH1 0x20 RETURNDATASIZE PUSH1 0x20 GT PUSH2 0xC0E JUMPI PUSH2 0xC00 DUP2 DUP4 PUSH2 0x239B JUMP JUMPDEST DUP9 PUSH2 0x3E7 JUMP JUMPDEST PUSH1 0x24 DUP3 PUSH20 0xFFFFFFFFFFFFFFFFFFFFFFFFFFFFFFFFFFFFFFFF PUSH1 0x40 MLOAD SWAP2 PUSH32 0x48A979DC00000000000000000000000000000000000000000000000000000000 DUP4 MSTORE AND PUSH1 0x4 DUP3 ADD MSTORE REVERT JUMPDEST PUSH1 0x24 PUSH1 0x40 MLOAD PUSH32 0x47A51A2800000000000000000000000000000000000000000000000000000000 DUP2 MSTORE CALLER PUSH1 0x4 DUP3 ADD MSTORE REVERT JUMPDEST CALLVALUE PUSH2 0x151 JUMPI PUSH1 0x20 PUSH32 0xFFFFFFFFFFFFFFFFFFFFFFFFFFFFFFFFFFFFFFFFFFFFFFFFFFFFFFFFFFFFFFFC CALLDATASIZE ADD SLT PUSH2 0x151 JUMPI PUSH1 0x4 CALLDATALOAD PUSH1 0x1 SLOAD DUP2 LT ISZERO PUSH2 0x151 JUMPI PUSH20 0xFFFFFFFFFFFFFFFFFFFFFFFFFFFFFFFFFFFFFFFF PUSH2 0xD09 PUSH1 0x20 SWAP3 PUSH1 0x1 PUSH2 0x24FA JUMP JUMPDEST SWAP2 SWAP1 SLOAD PUSH1 0x40 MLOAD SWAP3 PUSH1 0x3 SHL SHR AND DUP2 MSTORE RETURN JUMPDEST CALLVALUE PUSH2 0x151 JUMPI PUSH1 0x0 PUSH32 0xFFFFFFFFFFFFFFFFFFFFFFFFFFFFFFFFFFFFFFFFFFFFFFFFFFFFFFFFFFFFFFFC CALLDATASIZE ADD SLT PUSH2 0x151 JUMPI PUSH2 0xD71 PUSH32 0x0 PUSH2 0x2642 JUMP JUMPDEST PUSH1 0xFF PUSH32 0x0 AND PUSH1 0x12 SUB PUSH1 0xFF DUP2 GT PUSH2 0xDBD JUMPI PUSH1 0x20 SWAP2 PUSH2 0xDAF PUSH2 0xDB5 SWAP3 PUSH2 0x2631 JUMP JUMPDEST SWAP1 PUSH2 0x25F8 JUMP JUMPDEST PUSH1 0x40 MLOAD SWAP1 DUP2 MSTORE RETURN JUMPDEST PUSH32 0x4E487B7100000000000000000000000000000000000000000000000000000000 PUSH1 0x0 MSTORE PUSH1 0x11 PUSH1 0x4 MSTORE PUSH1 0x24 PUSH1 0x0 REVERT JUMPDEST CALLVALUE PUSH2 0x151 JUMPI PUSH1 0x0 PUSH32 0xFFFFFFFFFFFFFFFFFFFFFFFFFFFFFFFFFFFFFFFFFFFFFFFFFFFFFFFFFFFFFFFC CALLDATASIZE ADD SLT PUSH2 0x151 JUMPI PUSH1 0x20 PUSH11 0xFFFFFFFFFFFFFFFFFFFFFF PUSH1 0x1 SLOAD AND PUSH1 0x40 MLOAD SWAP1 DUP2 MSTORE RETURN JUMPDEST CALLVALUE PUSH2 0x151 JUMPI PUSH1 0x0 PUSH32 0xFFFFFFFFFFFFFFFFFFFFFFFFFFFFFFFFFFFFFFFFFFFFFFFFFFFFFFFFFFFFFFFC CALLDATASIZE ADD SLT PUSH2 0x151 JUMPI PUSH1 0x20 PUSH1 0x40 MLOAD PUSH5 0x2540BE400 DUP2 MSTORE RETURN JUMPDEST CALLVALUE PUSH2 0x151 JUMPI PUSH1 0x0 PUSH32 0xFFFFFFFFFFFFFFFFFFFFFFFFFFFFFFFFFFFFFFFFFFFFFFFFFFFFFFFFFFFFFFFC CALLDATASIZE ADD SLT PUSH2 0x151 JUMPI PUSH1 0x20 PUSH1 0x40 MLOAD PUSH20 0xFFFFFFFFFFFFFFFFFFFFFFFFFFFFFFFFFFFFFFFF PUSH32 0x0 AND DUP2 MSTORE RETURN JUMPDEST CALLVALUE PUSH2 0x151 JUMPI PUSH1 0x0 PUSH32 0xFFFFFFFFFFFFFFFFFFFFFFFFFFFFFFFFFFFFFFFFFFFFFFFFFFFFFFFFFFFFFFFC CALLDATASIZE ADD SLT PUSH2 0x151 JUMPI PUSH1 0x20 PUSH1 0x40 MLOAD PUSH1 0x8 DUP2 MSTORE RETURN JUMPDEST CALLVALUE PUSH2 0x151 JUMPI PUSH1 0x0 PUSH32 0xFFFFFFFFFFFFFFFFFFFFFFFFFFFFFFFFFFFFFFFFFFFFFFFFFFFFFFFFFFFFFFFC CALLDATASIZE ADD SLT PUSH2 0x151 JUMPI PUSH2 0xFA3 PUSH2 0xF58 PUSH1 0x5 PUSH2 0x23DC JUMP JUMPDEST PUSH2 0xF65 PUSH1 0x40 MLOAD SWAP2 DUP3 PUSH2 0x239B JUMP JUMPDEST PUSH1 0x5 DUP2 MSTORE PUSH32 0x312E302E30000000000000000000000000000000000000000000000000000000 PUSH1 0x20 DUP3 ADD MSTORE PUSH1 0x40 MLOAD SWAP2 DUP3 SWAP2 PUSH1 0x20 DUP4 MSTORE PUSH1 0x20 DUP4 ADD SWAP1 PUSH2 0x2439 JUMP JUMPDEST SUB SWAP1 RETURN JUMPDEST CALLVALUE PUSH2 0x151 JUMPI PUSH1 0x0 PUSH32 0xFFFFFFFFFFFFFFFFFFFFFFFFFFFFFFFFFFFFFFFFFFFFFFFFFFFFFFFFFFFFFFFC CALLDATASIZE ADD SLT PUSH2 0x151 JUMPI PUSH1 0x20 PUSH1 0x40 MLOAD PUSH32 0x6A62784200000000000000000000000000000000000000000000000000000000 DUP2 MSTORE RETURN JUMPDEST CALLVALUE PUSH2 0x151 JUMPI PUSH1 0x20 PUSH32 0xFFFFFFFFFFFFFFFFFFFFFFFFFFFFFFFFFFFFFFFFFFFFFFFFFFFFFFFFFFFFFFFC CALLDATASIZE ADD SLT PUSH2 0x151 JUMPI PUSH1 0x4 CALLDATALOAD PUSH20 0xFFFFFFFFFFFFFFFFFFFFFFFFFFFFFFFFFFFFFFFF DUP2 AND DUP1 SWAP2 SUB PUSH2 0x151 JUMPI PUSH1 0x60 PUSH1 0xE0 PUSH1 0x40 MLOAD PUSH2 0x1063 PUSH2 0x100 DUP3 PUSH2 0x239B JUMP JUMPDEST PUSH1 0x0 DUP2 MSTORE PUSH1 0x0 PUSH1 0x20 DUP3 ADD MSTORE DUP3 PUSH1 0x40 DUP3 ADD MSTORE PUSH1 0x0 DUP4 DUP3 ADD MSTORE DUP3 PUSH1 0x80 DUP3 ADD MSTORE DUP3 PUSH1 0xA0 DUP3 ADD MSTORE DUP3 PUSH1 0xC0 DUP3 ADD MSTORE ADD MSTORE PUSH1 0x0 MSTORE PUSH1 0x0 PUSH1 0x20 MSTORE PUSH1 0x40 PUSH1 0x0 KECCAK256 PUSH1 0x40 MLOAD SWAP1 PUSH2 0x10AB PUSH2 0x100 DUP4 PUSH2 0x239B JUMP JUMPDEST PUSH11 0xFFFFFFFFFFFFFFFFFFFFFF DUP2 SLOAD PUSH1 0xFF DUP2 AND ISZERO ISZERO DUP5 MSTORE PUSH1 0x8 SHR AND PUSH1 0x20 DUP4 ADD MSTORE PUSH1 0x1 DUP2 ADD PUSH1 0x40 MLOAD SWAP1 DUP2 PUSH1 0x0 DUP3 SLOAD SWAP3 PUSH2 0x10E1 DUP5 PUSH2 0x2541 JUMP JUMPDEST DUP1 DUP5 MSTORE SWAP4 PUSH1 0x1 DUP2 AND SWAP1 DUP2 ISZERO PUSH2 0x1385 JUMPI POP PUSH1 0x1 EQ PUSH2 0x133E JUMPI JUMPDEST POP PUSH2 0x1106 SWAP3 POP SUB DUP3 PUSH2 0x239B JUMP JUMPDEST PUSH1 0x40 DUP4 ADD MSTORE PUSH20 0xFFFFFFFFFFFFFFFFFFFFFFFFFFFFFFFFFFFFFFFF PUSH1 0x2 DUP3 ADD SLOAD AND PUSH1 0x60 DUP4 ADD MSTORE PUSH1 0x3 DUP2 ADD PUSH1 0x40 MLOAD DUP1 DUP3 PUSH1 0x20 DUP3 SWAP5 SLOAD SWAP4 DUP5 DUP2 MSTORE ADD SWAP1 PUSH1 0x0 MSTORE PUSH1 0x20 PUSH1 0x0 KECCAK256 SWAP3 PUSH1 0x0 JUMPDEST DUP2 DUP2 LT PUSH2 0x130F JUMPI POP POP PUSH2 0x1160 SWAP3 POP SUB DUP3 PUSH2 0x239B JUMP JUMPDEST PUSH1 0x80 DUP4 ADD MSTORE PUSH2 0x1171 PUSH1 0x4 DUP3 ADD PUSH2 0x2594 JUMP JUMPDEST PUSH1 0xA0 DUP4 ADD MSTORE PUSH1 0x5 DUP2 ADD PUSH1 0x40 MLOAD SWAP1 DUP2 PUSH1 0x20 DUP3 SLOAD SWAP2 DUP3 DUP2 MSTORE ADD SWAP2 PUSH1 0x0 MSTORE PUSH1 0x20 PUSH1 0x0 KECCAK256 SWAP1 PUSH1 0x0 JUMPDEST DUP2 DUP2 LT PUSH2 0x12E3 JUMPI DUP7 PUSH2 0x11BB PUSH1 0x6 DUP9 DUP9 PUSH2 0x11B0 DUP2 DUP11 SUB DUP3 PUSH2 0x239B JUMP JUMPDEST PUSH1 0xC0 DUP6 ADD MSTORE ADD PUSH2 0x2594 JUMP JUMPDEST PUSH1 0xE0 DUP3 ADD MSTORE PUSH1 0x40 MLOAD PUSH1 0x20 DUP2 MSTORE DUP2 MLOAD ISZERO ISZERO PUSH1 0x20 DUP3 ADD MSTORE PUSH11 0xFFFFFFFFFFFFFFFFFFFFFF PUSH1 0x20 DUP4 ADD MLOAD AND PUSH1 0x40 DUP3 ADD MSTORE PUSH2 0x1202 PUSH1 0x40 DUP4 ADD MLOAD PUSH2 0x100 PUSH1 0x60 DUP5 ADD MSTORE PUSH2 0x120 DUP4 ADD SWAP1 PUSH2 0x2439 JUMP JUMPDEST PUSH20 0xFFFFFFFFFFFFFFFFFFFFFFFFFFFFFFFFFFFFFFFF PUSH1 0x60 DUP5 ADD MLOAD AND PUSH1 0x80 DUP4 ADD MSTORE PUSH2 0x1273 PUSH2 0x125F PUSH1 0x80 DUP6 ADD MLOAD SWAP3 PUSH32 0xFFFFFFFFFFFFFFFFFFFFFFFFFFFFFFFFFFFFFFFFFFFFFFFFFFFFFFFFFFFFFFE0 SWAP4 DUP5 DUP7 DUP4 SUB ADD PUSH1 0xA0 DUP8 ADD MSTORE PUSH2 0x24B0 JUMP JUMPDEST PUSH1 0xA0 DUP6 ADD MLOAD DUP4 DUP6 DUP4 SUB ADD PUSH1 0xC0 DUP7 ADD MSTORE PUSH2 0x247C JUMP JUMPDEST SWAP3 PUSH1 0xC0 DUP2 ADD MLOAD SWAP4 DUP3 DUP5 DUP3 SUB ADD PUSH1 0xE0 DUP6 ADD MSTORE PUSH1 0x20 DUP1 DUP7 MLOAD SWAP3 DUP4 DUP2 MSTORE ADD SWAP6 ADD SWAP1 PUSH1 0x0 JUMPDEST DUP2 DUP2 LT PUSH2 0x12B7 JUMPI DUP6 DUP1 PUSH2 0xFA3 DUP10 DUP9 PUSH1 0xE0 DUP10 ADD MLOAD SWAP1 DUP5 DUP4 SUB ADD PUSH2 0x100 DUP6 ADD MSTORE PUSH2 0x247C JUMP JUMPDEST DUP3 MLOAD PUSH20 0xFFFFFFFFFFFFFFFFFFFFFFFFFFFFFFFFFFFFFFFF AND DUP8 MSTORE PUSH1 0x20 SWAP7 DUP8 ADD SWAP7 SWAP1 SWAP3 ADD SWAP2 PUSH1 0x1 ADD PUSH2 0x1294 JUMP JUMPDEST DUP3 SLOAD PUSH20 0xFFFFFFFFFFFFFFFFFFFFFFFFFFFFFFFFFFFFFFFF AND DUP5 MSTORE PUSH1 0x20 SWAP1 SWAP4 ADD SWAP3 PUSH1 0x1 SWAP3 DUP4 ADD SWAP3 ADD PUSH2 0x1195 JUMP JUMPDEST DUP5 SLOAD PUSH20 0xFFFFFFFFFFFFFFFFFFFFFFFFFFFFFFFFFFFFFFFF AND DUP4 MSTORE PUSH1 0x1 SWAP5 DUP6 ADD SWAP5 DUP7 SWAP5 POP PUSH1 0x20 SWAP1 SWAP4 ADD SWAP3 ADD PUSH2 0x114B JUMP JUMPDEST SWAP1 POP PUSH1 0x0 SWAP3 SWAP2 SWAP3 MSTORE PUSH1 0x20 PUSH1 0x0 KECCAK256 SWAP1 PUSH1 0x0 SWAP2 JUMPDEST DUP2 DUP4 LT PUSH2 0x1369 JUMPI POP POP SWAP1 PUSH1 0x20 PUSH2 0x1106 SWAP3 DUP3 ADD ADD DUP7 PUSH2 0x10F9 JUMP JUMPDEST PUSH1 0x20 SWAP2 SWAP4 POP DUP1 PUSH1 0x1 SWAP2 SLOAD DUP4 DUP6 DUP9 ADD ADD MSTORE ADD SWAP2 ADD SWAP1 SWAP2 DUP4 SWAP3 PUSH2 0x1350 JUMP JUMPDEST PUSH1 0x20 SWAP4 POP PUSH2 0x1106 SWAP6 SWAP3 POP PUSH32 0xFFFFFFFFFFFFFFFFFFFFFFFFFFFFFFFFFFFFFFFFFFFFFFFFFFFFFFFFFFFFFF00 SWAP2 POP AND DUP3 DUP5 ADD MSTORE ISZERO ISZERO PUSH1 0x5 SHL DUP3 ADD ADD DUP7 PUSH2 0x10F9 JUMP JUMPDEST CALLVALUE PUSH2 0x151 JUMPI PUSH1 0x0 PUSH32 0xFFFFFFFFFFFFFFFFFFFFFFFFFFFFFFFFFFFFFFFFFFFFFFFFFFFFFFFFFFFFFFFC CALLDATASIZE ADD SLT PUSH2 0x151 JUMPI PUSH1 0x20 PUSH1 0x40 MLOAD PUSH1 0xFF PUSH32 0x0 AND DUP2 MSTORE RETURN JUMPDEST CALLVALUE PUSH2 0x151 JUMPI PUSH1 0x20 PUSH32 0xFFFFFFFFFFFFFFFFFFFFFFFFFFFFFFFFFFFFFFFFFFFFFFFFFFFFFFFFFFFFFFFC CALLDATASIZE ADD SLT PUSH2 0x151 JUMPI PUSH1 0x4 CALLDATALOAD PUSH20 0xFFFFFFFFFFFFFFFFFFFFFFFFFFFFFFFFFFFFFFFF DUP1 DUP3 AND DUP1 SWAP3 SUB PUSH2 0x151 JUMPI DUP2 PUSH1 0x0 MSTORE PUSH1 0x0 PUSH1 0x20 MSTORE PUSH1 0x40 PUSH1 0x0 KECCAK256 SWAP2 PUSH1 0xFF DUP4 SLOAD AND ISZERO PUSH2 0x1571 JUMPI POP PUSH2 0x14B5 PUSH32 0x0 PUSH2 0x2642 JUMP JUMPDEST PUSH1 0x3 SWAP3 DUP4 DUP2 ADD SLOAD SWAP2 PUSH2 0x14C6 DUP4 PUSH2 0x26A8 JUMP JUMPDEST SWAP4 PUSH1 0x5 PUSH1 0x0 SWAP4 ADD SWAP6 PUSH1 0xFF PUSH32 0x0 AND PUSH1 0x12 SUB SWAP7 PUSH1 0xFF DUP9 GT SWAP5 JUMPDEST DUP7 DUP2 LT PUSH2 0x1519 JUMPI PUSH1 0x40 MLOAD PUSH1 0x20 DUP1 DUP3 MSTORE DUP2 SWAP1 PUSH2 0xFA3 SWAP1 DUP3 ADD DUP12 PUSH2 0x247C JUMP JUMPDEST DUP1 PUSH2 0x1535 DUP6 PUSH2 0x1529 DUP10 SWAP5 DUP7 PUSH2 0x24FA JUMP JUMPDEST SWAP1 SLOAD SWAP1 DUP8 SHL SHR AND PUSH2 0x2642 JUMP JUMPDEST SWAP2 PUSH2 0xDBD JUMPI PUSH2 0x1562 PUSH2 0x156C SWAP3 PUSH8 0xDE0B6B3A7640000 PUSH2 0x155C PUSH2 0x1556 DUP15 PUSH2 0x2631 JUMP JUMPDEST DUP11 PUSH2 0x25E5 JUMP JUMPDEST SWAP2 PUSH2 0x27D8 JUMP JUMPDEST PUSH2 0xB8D DUP3 DUP12 PUSH2 0x2724 JUMP JUMPDEST PUSH2 0x14FC JUMP JUMPDEST PUSH1 0x24 SWAP1 PUSH1 0x40 MLOAD SWAP1 PUSH32 0xFB642B4D00000000000000000000000000000000000000000000000000000000 DUP3 MSTORE PUSH1 0x4 DUP3 ADD MSTORE REVERT JUMPDEST CALLVALUE PUSH2 0x151 JUMPI PUSH1 0x20 DUP1 PUSH32 0xFFFFFFFFFFFFFFFFFFFFFFFFFFFFFFFFFFFFFFFFFFFFFFFFFFFFFFFFFFFFFFFC CALLDATASIZE ADD SLT PUSH2 0x151 JUMPI PUSH20 0xFFFFFFFFFFFFFFFFFFFFFFFFFFFFFFFFFFFFFFFF PUSH1 0x4 CALLDATALOAD DUP2 DUP2 AND SWAP1 DUP2 DUP2 SUB PUSH2 0x151 JUMPI PUSH1 0x0 DUP1 SWAP2 PUSH1 0x40 MLOAD DUP7 DUP2 ADD SWAP1 PUSH32 0x6A62784200000000000000000000000000000000000000000000000000000000 DUP3 MSTORE DUP4 PUSH1 0x24 DUP3 ADD MSTORE PUSH1 0x24 DUP2 MSTORE PUSH2 0x1638 PUSH1 0x44 DUP3 PUSH2 0x239B JUMP JUMPDEST MLOAD SWAP2 PUSH2 0x2710 STATICCALL POP RETURNDATASIZE ISZERO PUSH2 0x18F3 JUMPI RETURNDATASIZE PUSH2 0x164F DUP2 PUSH2 0x23DC JUMP JUMPDEST SWAP1 PUSH2 0x165D PUSH1 0x40 MLOAD SWAP3 DUP4 PUSH2 0x239B JUMP JUMPDEST DUP2 MSTORE RETURNDATASIZE PUSH1 0x0 DUP6 DUP4 ADD RETURNDATACOPY JUMPDEST MLOAD PUSH2 0x18C9 JUMPI DUP1 PUSH1 0x0 MSTORE PUSH1 0x0 DUP4 MSTORE PUSH1 0x40 PUSH1 0x0 KECCAK256 SWAP1 PUSH1 0xFF DUP3 SLOAD AND ISZERO PUSH2 0x1571 JUMPI PUSH2 0x16B3 PUSH1 0x5 DUP4 ADD SWAP4 PUSH2 0x16A0 PUSH1 0x1 PUSH2 0x16AD DUP4 PUSH2 0x16A0 PUSH1 0x0 DUP11 PUSH2 0x24FA JUMP JUMPDEST SWAP1 SLOAD SWAP1 PUSH1 0x3 SHL SHR AND PUSH2 0x2642 JUMP JUMPDEST SWAP7 PUSH2 0x24FA JUMP JUMPDEST SWAP2 PUSH1 0x40 MLOAD SWAP1 PUSH32 0x902F1AC00000000000000000000000000000000000000000000000000000000 DUP3 MSTORE PUSH1 0x60 DUP3 PUSH1 0x4 DUP2 DUP7 GAS STATICCALL SWAP4 DUP5 ISZERO PUSH2 0xA95 JUMPI DUP7 SWAP3 PUSH1 0x0 SWAP1 PUSH1 0x0 SWAP7 PUSH2 0x1868 JUMPI JUMPDEST POP PUSH2 0x173E PUSH1 0x1 PUSH2 0x1752 PUSH2 0x1758 SWAP6 SWAP5 PUSH2 0xDAF SWAP5 PUSH2 0x174A PUSH1 0x4 PUSH2 0x172D DUP2 SWAP14 SWAP15 PUSH14 0xFFFFFFFFFFFFFFFFFFFFFFFFFFFF DUP1 SWAP6 AND SWAP1 PUSH2 0x25E5 JUMP JUMPDEST SWAP9 ADD SWAP8 PUSH2 0xDAF PUSH2 0x173E PUSH1 0x0 DUP12 PUSH2 0x24FA JUMP JUMPDEST SWAP1 SLOAD SWAP1 PUSH1 0x3 SHL SHR PUSH2 0x2682 JUMP JUMPDEST SWAP12 AND SWAP1 PUSH2 0x25E5 JUMP JUMPDEST SWAP4 PUSH2 0x24FA JUMP JUMPDEST SWAP2 PUSH1 0x40 MLOAD SWAP4 DUP5 DUP1 SWAP3 PUSH32 0x18160DDD00000000000000000000000000000000000000000000000000000000 DUP3 MSTORE GAS STATICCALL SWAP2 DUP3 ISZERO PUSH2 0xA95 JUMPI PUSH1 0x0 SWAP3 PUSH2 0x1837 JUMPI JUMPDEST POP PUSH2 0x179F SWAP2 SWAP3 PUSH2 0x28B5 JUMP JUMPDEST SWAP1 PUSH8 0x1BC16D674EC80000 SWAP2 DUP1 DUP4 MUL SWAP3 DUP4 DIV SUB PUSH2 0xDBD JUMPI PUSH2 0x17BE SWAP2 PUSH2 0x25F8 JUMP JUMPDEST PUSH2 0x17E7 PUSH32 0x0 PUSH2 0x2642 JUMP JUMPDEST SWAP1 PUSH1 0xFF PUSH32 0x0 AND PUSH1 0x12 SUB SWAP2 PUSH1 0xFF DUP4 GT PUSH2 0xDBD JUMPI PUSH2 0x155C PUSH8 0xDE0B6B3A7640000 SWAP2 PUSH2 0x1831 PUSH2 0xDB5 SWAP6 PUSH2 0x2631 JUMP JUMPDEST SWAP1 PUSH2 0x25E5 JUMP JUMPDEST SWAP2 POP DUP4 DUP3 DUP2 RETURNDATASIZE DUP4 GT PUSH2 0x1861 JUMPI JUMPDEST PUSH2 0x184E DUP2 DUP4 PUSH2 0x239B JUMP JUMPDEST DUP2 ADD SUB SLT PUSH2 0x151 JUMPI PUSH2 0x179F SWAP2 MLOAD SWAP2 PUSH2 0x1794 JUMP JUMPDEST POP RETURNDATASIZE PUSH2 0x1844 JUMP JUMPDEST SWAP3 SWAP6 POP POP SWAP2 POP PUSH1 0x60 DUP2 RETURNDATASIZE DUP3 GT PUSH2 0x18C1 JUMPI JUMPDEST DUP2 PUSH2 0x1886 PUSH1 0x60 SWAP4 DUP4 PUSH2 0x239B JUMP JUMPDEST DUP2 ADD SUB SLT PUSH2 0x151 JUMPI PUSH2 0x1897 DUP2 PUSH2 0x2667 JUMP JUMPDEST SWAP4 PUSH1 0x40 PUSH2 0x18A5 DUP9 DUP5 ADD PUSH2 0x2667 JUMP JUMPDEST SWAP3 ADD MLOAD PUSH4 0xFFFFFFFF DUP2 AND SUB PUSH2 0x151 JUMPI SWAP1 SWAP4 DUP7 SWAP3 SWAP1 PUSH2 0x173E PUSH2 0x16F8 JUMP JUMPDEST RETURNDATASIZE SWAP2 POP PUSH2 0x1879 JUMP JUMPDEST PUSH1 0x4 PUSH1 0x40 MLOAD PUSH32 0x47A08E9600000000000000000000000000000000000000000000000000000000 DUP2 MSTORE REVERT JUMPDEST PUSH1 0x60 PUSH2 0x1667 JUMP JUMPDEST CALLVALUE PUSH2 0x151 JUMPI PUSH1 0x60 PUSH32 0xFFFFFFFFFFFFFFFFFFFFFFFFFFFFFFFFFFFFFFFFFFFFFFFFFFFFFFFFFFFFFFFC CALLDATASIZE ADD SLT PUSH2 0x151 JUMPI PUSH8 0xDE0B6B3A7640000 PUSH8 0x14057B7EF767814F DUP1 DUP3 PUSH2 0x1948 PUSH1 0x4 CALLDATALOAD PUSH2 0x2A65 JUMP JUMPDEST MUL DIV SWAP2 PUSH1 0x24 SWAP3 DUP3 DUP3 PUSH2 0x195A DUP7 CALLDATALOAD PUSH2 0x2A65 JUMP JUMPDEST MUL DIV DUP2 DUP2 SUB SWAP2 DUP2 DUP4 GT PUSH2 0x22C0 JUMPI PUSH4 0x1E13380 DUP1 DUP5 MUL SWAP4 DUP5 DIV EQ SWAP2 EQ OR ISZERO PUSH2 0x2292 JUMPI PUSH2 0x1988 SWAP1 PUSH1 0x44 CALLDATALOAD SWAP1 PUSH2 0x25F8 JUMP JUMPDEST SWAP2 PUSH9 0x736EA4425C11AC631 DUP4 LT ISZERO PUSH2 0x2262 JUMPI PUSH8 0x6F05B59D3B20000 SWAP1 DUP3 SWAP4 MUL ADD DIV SWAP1 PUSH9 0xA688906BD8B000000 DUP3 LT ISZERO PUSH2 0x2233 JUMPI DUP1 SWAP2 PUSH1 0x40 SHL DIV SWAP1 PUSH24 0x800000000000000000000000000000000000000000000000 PUSH8 0x8000000000000000 DUP4 AND PUSH2 0x2214 JUMPI JUMPDEST PUSH8 0x4000000000000000 DUP4 AND PUSH2 0x2201 JUMPI JUMPDEST PUSH8 0x2000000000000000 DUP4 AND PUSH2 0x21EE JUMPI JUMPDEST PUSH8 0x1000000000000000 DUP4 AND PUSH2 0x21DB JUMPI JUMPDEST PUSH8 0x800000000000000 DUP4 AND PUSH2 0x21C8 JUMPI JUMPDEST PUSH8 0x400000000000000 DUP4 AND PUSH2 0x21B5 JUMPI JUMPDEST PUSH8 0x200000000000000 DUP4 AND PUSH2 0x21A2 JUMPI JUMPDEST PUSH8 0x100000000000000 DUP4 AND PUSH2 0x218F JUMPI JUMPDEST PUSH7 0x80000000000000 DUP4 AND PUSH2 0x217C JUMPI JUMPDEST PUSH7 0x40000000000000 DUP4 AND PUSH2 0x2169 JUMPI JUMPDEST PUSH7 0x20000000000000 DUP4 AND PUSH2 0x2156 JUMPI JUMPDEST PUSH7 0x10000000000000 DUP4 AND PUSH2 0x2143 JUMPI JUMPDEST PUSH7 0x8000000000000 DUP4 AND PUSH2 0x2130 JUMPI JUMPDEST PUSH7 0x4000000000000 DUP4 AND PUSH2 0x211D JUMPI JUMPDEST PUSH7 0x2000000000000 DUP4 AND PUSH2 0x210A JUMPI JUMPDEST PUSH7 0x1000000000000 DUP4 AND PUSH2 0x20F7 JUMPI JUMPDEST PUSH6 0x800000000000 DUP4 AND PUSH2 0x20E4 JUMPI JUMPDEST PUSH6 0x400000000000 DUP4 AND PUSH2 0x20D1 JUMPI JUMPDEST PUSH6 0x200000000000 DUP4 AND PUSH2 0x20BE JUMPI JUMPDEST PUSH6 0x100000000000 DUP4 AND PUSH2 0x20AB JUMPI JUMPDEST PUSH6 0x80000000000 DUP4 AND PUSH2 0x2098 JUMPI JUMPDEST PUSH6 0x40000000000 DUP4 AND PUSH2 0x2085 JUMPI JUMPDEST PUSH6 0x20000000000 DUP4 AND PUSH2 0x2072 JUMPI JUMPDEST PUSH6 0x10000000000 DUP4 AND PUSH2 0x205F JUMPI JUMPDEST PUSH5 0x8000000000 DUP4 AND PUSH2 0x204C JUMPI JUMPDEST PUSH5 0x4000000000 DUP4 AND PUSH2 0x2039 JUMPI JUMPDEST PUSH5 0x2000000000 DUP4 AND PUSH2 0x2026 JUMPI JUMPDEST PUSH5 0x1000000000 DUP4 AND PUSH2 0x2013 JUMPI JUMPDEST PUSH5 0x800000000 DUP4 AND PUSH2 0x2000 JUMPI JUMPDEST PUSH5 0x400000000 DUP4 AND PUSH2 0x1FED JUMPI JUMPDEST PUSH5 0x200000000 DUP4 AND PUSH2 0x1FDA JUMPI JUMPDEST PUSH5 0x100000000 DUP4 AND PUSH2 0x1FC7 JUMPI JUMPDEST PUSH4 0x80000000 DUP4 AND PUSH2 0x1FB4 JUMPI JUMPDEST PUSH4 0x40000000 DUP4 AND PUSH2 0x1FA1 JUMPI JUMPDEST PUSH4 0x20000000 DUP4 AND PUSH2 0x1F8E JUMPI JUMPDEST PUSH4 0x10000000 DUP4 AND PUSH2 0x1F7B JUMPI JUMPDEST PUSH4 0x8000000 DUP4 AND PUSH2 0x1F68 JUMPI JUMPDEST PUSH4 0x4000000 DUP4 AND PUSH2 0x1F55 JUMPI JUMPDEST PUSH4 0x2000000 DUP4 AND PUSH2 0x1F42 JUMPI JUMPDEST PUSH4 0x1000000 DUP4 AND PUSH2 0x1F2F JUMPI JUMPDEST PUSH3 0x800000 DUP4 AND PUSH2 0x1F1C JUMPI JUMPDEST PUSH3 0x400000 DUP4 AND PUSH2 0x1F09 JUMPI JUMPDEST PUSH3 0x200000 DUP4 AND PUSH2 0x1EF6 JUMPI JUMPDEST PUSH3 0x100000 DUP4 AND PUSH2 0x1EE3 JUMPI JUMPDEST PUSH3 0x80000 DUP4 AND PUSH2 0x1ED0 JUMPI JUMPDEST PUSH3 0x40000 DUP4 AND PUSH2 0x1EBD JUMPI JUMPDEST PUSH3 0x20000 DUP4 AND PUSH2 0x1EAA JUMPI JUMPDEST PUSH3 0x10000 DUP4 AND PUSH2 0x1E97 JUMPI JUMPDEST PUSH2 0x8000 DUP4 AND PUSH2 0x1E84 JUMPI JUMPDEST PUSH2 0x4000 DUP4 AND PUSH2 0x1E71 JUMPI JUMPDEST PUSH2 0x2000 DUP4 AND PUSH2 0x1E5E JUMPI JUMPDEST PUSH2 0x1000 DUP4 AND PUSH2 0x1E4B JUMPI JUMPDEST PUSH2 0x800 DUP4 AND PUSH2 0x1E38 JUMPI JUMPDEST PUSH2 0x400 DUP4 AND PUSH2 0x1E25 JUMPI JUMPDEST PUSH2 0x200 DUP4 AND PUSH2 0x1E12 JUMPI JUMPDEST PUSH2 0x100 DUP4 AND PUSH2 0x1DFF JUMPI JUMPDEST PUSH1 0x80 DUP4 AND PUSH2 0x1DEC JUMPI JUMPDEST PUSH1 0x40 DUP4 AND PUSH2 0x1DD9 JUMPI JUMPDEST PUSH1 0x20 DUP4 AND PUSH2 0x1DC6 JUMPI JUMPDEST PUSH1 0x10 DUP4 AND PUSH2 0x1DB3 JUMPI JUMPDEST PUSH1 0x8 DUP4 AND PUSH2 0x1DA0 JUMPI JUMPDEST PUSH1 0x4 DUP4 AND PUSH2 0x1D8D JUMPI JUMPDEST PUSH1 0x2 DUP4 AND PUSH2 0x1D7A JUMPI JUMPDEST PUSH1 0x1 DUP4 AND PUSH2 0x1D67 JUMPI JUMPDEST MUL SWAP1 PUSH1 0x40 SHR PUSH1 0xBF SUB SHR PUSH32 0xFFFFFFFFFFFFFFFFFFFFFFFFFFFFFFFFFFFFFFFFFFFFFFFFF21F494C589C0000 DUP2 ADD SWAP1 DUP2 GT PUSH2 0x1D39 JUMPI PUSH1 0x20 SWAP1 PUSH1 0x40 MLOAD SWAP1 DUP2 MSTORE RETURN JUMPDEST POP PUSH32 0x4E487B7100000000000000000000000000000000000000000000000000000000 PUSH1 0x0 MSTORE PUSH1 0x11 PUSH1 0x4 MSTORE PUSH1 0x0 REVERT JUMPDEST PUSH9 0x10000000000000001 MUL PUSH1 0x40 SHR PUSH2 0x1CFB JUMP JUMPDEST PUSH9 0x10000000000000001 MUL PUSH1 0x40 SHR PUSH2 0x1CF2 JUMP JUMPDEST PUSH9 0x10000000000000003 MUL PUSH1 0x40 SHR PUSH2 0x1CE9 JUMP JUMPDEST PUSH9 0x10000000000000006 MUL PUSH1 0x40 SHR PUSH2 0x1CE0 JUMP JUMPDEST PUSH9 0x1000000000000000B MUL PUSH1 0x40 SHR PUSH2 0x1CD7 JUMP JUMPDEST PUSH9 0x10000000000000016 MUL PUSH1 0x40 SHR PUSH2 0x1CCE JUMP JUMPDEST PUSH9 0x1000000000000002C MUL PUSH1 0x40 SHR PUSH2 0x1CC5 JUMP JUMPDEST PUSH9 0x10000000000000059 MUL PUSH1 0x40 SHR PUSH2 0x1CBC JUMP JUMPDEST PUSH9 0x100000000000000B1 MUL PUSH1 0x40 SHR PUSH2 0x1CB3 JUMP JUMPDEST PUSH9 0x10000000000000163 MUL PUSH1 0x40 SHR PUSH2 0x1CA9 JUMP JUMPDEST PUSH9 0x100000000000002C6 MUL PUSH1 0x40 SHR PUSH2 0x1C9F JUMP JUMPDEST PUSH9 0x1000000000000058C MUL PUSH1 0x40 SHR PUSH2 0x1C95 JUMP JUMPDEST PUSH9 0x10000000000000B17 MUL PUSH1 0x40 SHR PUSH2 0x1C8B JUMP JUMPDEST PUSH9 0x1000000000000162E MUL PUSH1 0x40 SHR PUSH2 0x1C81 JUMP JUMPDEST PUSH9 0x10000000000002C5D MUL PUSH1 0x40 SHR PUSH2 0x1C77 JUMP JUMPDEST PUSH9 0x100000000000058B9 MUL PUSH1 0x40 SHR PUSH2 0x1C6D JUMP JUMPDEST PUSH9 0x1000000000000B172 MUL PUSH1 0x40 SHR PUSH2 0x1C63 JUMP JUMPDEST PUSH9 0x100000000000162E4 MUL PUSH1 0x40 SHR PUSH2 0x1C58 JUMP JUMPDEST PUSH9 0x1000000000002C5C8 MUL PUSH1 0x40 SHR PUSH2 0x1C4D JUMP JUMPDEST PUSH9 0x10000000000058B91 MUL PUSH1 0x40 SHR PUSH2 0x1C42 JUMP JUMPDEST PUSH9 0x100000000000B1721 MUL PUSH1 0x40 SHR PUSH2 0x1C37 JUMP JUMPDEST PUSH9 0x10000000000162E43 MUL PUSH1 0x40 SHR PUSH2 0x1C2C JUMP JUMPDEST PUSH9 0x100000000002C5C86 MUL PUSH1 0x40 SHR PUSH2 0x1C21 JUMP JUMPDEST PUSH9 0x1000000000058B90C MUL PUSH1 0x40 SHR PUSH2 0x1C16 JUMP JUMPDEST PUSH9 0x10000000000B17218 MUL PUSH1 0x40 SHR PUSH2 0x1C0B JUMP JUMPDEST PUSH9 0x1000000000162E430 MUL PUSH1 0x40 SHR PUSH2 0x1BFF JUMP JUMPDEST PUSH9 0x10000000002C5C860 MUL PUSH1 0x40 SHR PUSH2 0x1BF3 JUMP JUMPDEST PUSH9 0x100000000058B90C0 MUL PUSH1 0x40 SHR PUSH2 0x1BE7 JUMP JUMPDEST PUSH9 0x1000000000B17217F MUL PUSH1 0x40 SHR PUSH2 0x1BDB JUMP JUMPDEST PUSH9 0x100000000162E42FF MUL PUSH1 0x40 SHR PUSH2 0x1BCF JUMP JUMPDEST PUSH9 0x1000000002C5C85FE MUL PUSH1 0x40 SHR PUSH2 0x1BC3 JUMP JUMPDEST PUSH9 0x10000000058B90BFC MUL PUSH1 0x40 SHR PUSH2 0x1BB7 JUMP JUMPDEST PUSH9 0x100000000B17217F8 MUL PUSH1 0x40 SHR PUSH2 0x1BAB JUMP JUMPDEST PUSH9 0x10000000162E42FF1 MUL PUSH1 0x40 SHR PUSH2 0x1B9E JUMP JUMPDEST PUSH9 0x100000002C5C85FE3 MUL PUSH1 0x40 SHR PUSH2 0x1B91 JUMP JUMPDEST PUSH9 0x1000000058B90BFCE MUL PUSH1 0x40 SHR PUSH2 0x1B84 JUMP JUMPDEST PUSH9 0x10000000B17217FBB MUL PUSH1 0x40 SHR PUSH2 0x1B77 JUMP JUMPDEST PUSH9 0x1000000162E42FFF0 MUL PUSH1 0x40 SHR PUSH2 0x1B6A JUMP JUMPDEST PUSH9 0x10000002C5C8601CC MUL PUSH1 0x40 SHR PUSH2 0x1B5D JUMP JUMPDEST PUSH9 0x100000058B90C0B49 MUL PUSH1 0x40 SHR PUSH2 0x1B50 JUMP JUMPDEST PUSH9 0x1000000B172183551 MUL PUSH1 0x40 SHR PUSH2 0x1B43 JUMP JUMPDEST PUSH9 0x100000162E430E5A2 MUL PUSH1 0x40 SHR PUSH2 0x1B35 JUMP JUMPDEST PUSH9 0x1000002C5C863B73F MUL PUSH1 0x40 SHR PUSH2 0x1B27 JUMP JUMPDEST PUSH9 0x10000058B90CF1E6E MUL PUSH1 0x40 SHR PUSH2 0x1B19 JUMP JUMPDEST PUSH9 0x100000B1721BCFC9A MUL PUSH1 0x40 SHR PUSH2 0x1B0B JUMP JUMPDEST PUSH9 0x10000162E43F4F831 MUL PUSH1 0x40 SHR PUSH2 0x1AFD JUMP JUMPDEST PUSH9 0x100002C5C89D5EC6D MUL PUSH1 0x40 SHR PUSH2 0x1AEF JUMP JUMPDEST PUSH9 0x1000058B91B5BC9AE MUL PUSH1 0x40 SHR PUSH2 0x1AE1 JUMP JUMPDEST PUSH9 0x10000B17255775C04 MUL PUSH1 0x40 SHR PUSH2 0x1AD3 JUMP JUMPDEST PUSH9 0x1000162E525EE0547 MUL PUSH1 0x40 SHR PUSH2 0x1AC4 JUMP JUMPDEST PUSH9 0x10002C5CC37DA9492 MUL PUSH1 0x40 SHR PUSH2 0x1AB5 JUMP JUMPDEST PUSH9 0x100058BA01FB9F96D MUL PUSH1 0x40 SHR PUSH2 0x1AA6 JUMP JUMPDEST PUSH9 0x1000B175EFFDC76BA MUL PUSH1 0x40 SHR PUSH2 0x1A97 JUMP JUMPDEST PUSH9 0x100162F3904051FA1 MUL PUSH1 0x40 SHR PUSH2 0x1A88 JUMP JUMPDEST PUSH9 0x1002C605E2E8CEC50 MUL PUSH1 0x40 SHR PUSH2 0x1A79 JUMP JUMPDEST PUSH9 0x10058C86DA1C09EA2 MUL PUSH1 0x40 SHR PUSH2 0x1A6A JUMP JUMPDEST PUSH9 0x100B1AFA5ABCBED61 MUL PUSH1 0x40 SHR PUSH2 0x1A5B JUMP JUMPDEST PUSH9 0x10163DA9FB33356D8 MUL PUSH1 0x40 SHR PUSH2 0x1A4B JUMP JUMPDEST PUSH9 0x102C9A3E778060EE7 MUL PUSH1 0x40 SHR PUSH2 0x1A3B JUMP JUMPDEST PUSH9 0x1059B0D31585743AE MUL PUSH1 0x40 SHR PUSH2 0x1A2B JUMP JUMPDEST PUSH9 0x10B5586CF9890F62A MUL PUSH1 0x40 SHR PUSH2 0x1A1B JUMP JUMPDEST PUSH9 0x1172B83C7D517ADCE MUL PUSH1 0x40 SHR PUSH2 0x1A0B JUMP JUMPDEST PUSH9 0x1306FE0A31B7152DF MUL PUSH1 0x40 SHR PUSH2 0x19FB JUMP JUMPDEST POP PUSH24 0xB504F333F9DE648480000000000000000000000000000000 PUSH2 0x19EB JUMP JUMPDEST POP PUSH1 0x40 MLOAD SWAP1 PUSH32 0x4A4F26F100000000000000000000000000000000000000000000000000000000 DUP3 MSTORE PUSH1 0x4 DUP3 ADD MSTORE REVERT JUMPDEST POP POP PUSH1 0x40 MLOAD SWAP1 PUSH32 0x315DA06800000000000000000000000000000000000000000000000000000000 DUP3 MSTORE PUSH1 0x4 DUP3 ADD MSTORE REVERT JUMPDEST DUP4 PUSH32 0x4E487B7100000000000000000000000000000000000000000000000000000000 PUSH1 0x0 MSTORE PUSH1 0x11 PUSH1 0x4 MSTORE PUSH1 0x0 REVERT JUMPDEST DUP6 PUSH32 0x4E487B7100000000000000000000000000000000000000000000000000000000 PUSH1 0x0 MSTORE PUSH1 0x11 PUSH1 0x4 MSTORE PUSH1 0x0 REVERT JUMPDEST CALLVALUE PUSH2 0x151 JUMPI PUSH1 0x0 PUSH32 0xFFFFFFFFFFFFFFFFFFFFFFFFFFFFFFFFFFFFFFFFFFFFFFFFFFFFFFFFFFFFFFFC CALLDATASIZE ADD SLT PUSH2 0x151 JUMPI PUSH2 0xFA3 PUSH2 0x232A PUSH1 0x29 PUSH2 0x23DC JUMP JUMPDEST PUSH2 0x2337 PUSH1 0x40 MLOAD SWAP2 DUP3 PUSH2 0x239B JUMP JUMPDEST PUSH1 0x29 DUP2 MSTORE PUSH32 0x4379676E75732D4E6562756C613A20436F6E7374616E742D50726F6475637420 PUSH1 0x20 DUP3 ADD MSTORE PUSH32 0x4C50204F7261636C650000000000000000000000000000000000000000000000 PUSH1 0x40 DUP3 ADD MSTORE PUSH1 0x40 MLOAD SWAP2 DUP3 SWAP2 PUSH1 0x20 DUP4 MSTORE PUSH1 0x20 DUP4 ADD SWAP1 PUSH2 0x2439 JUMP JUMPDEST SWAP1 PUSH1 0x1F PUSH32 0xFFFFFFFFFFFFFFFFFFFFFFFFFFFFFFFFFFFFFFFFFFFFFFFFFFFFFFFFFFFFFFE0 SWAP2 ADD AND DUP2 ADD SWAP1 DUP2 LT PUSH8 0xFFFFFFFFFFFFFFFF DUP3 GT OR PUSH2 0x868 JUMPI PUSH1 0x40 MSTORE JUMP JUMPDEST PUSH8 0xFFFFFFFFFFFFFFFF DUP2 GT PUSH2 0x868 JUMPI PUSH1 0x1F ADD PUSH32 0xFFFFFFFFFFFFFFFFFFFFFFFFFFFFFFFFFFFFFFFFFFFFFFFFFFFFFFFFFFFFFFE0 AND PUSH1 0x20 ADD SWAP1 JUMP JUMPDEST PUSH1 0x0 JUMPDEST DUP4 DUP2 LT PUSH2 0x2429 JUMPI POP POP PUSH1 0x0 SWAP2 ADD MSTORE JUMP JUMPDEST DUP2 DUP2 ADD MLOAD DUP4 DUP3 ADD MSTORE PUSH1 0x20 ADD PUSH2 0x2419 JUMP JUMPDEST SWAP1 PUSH32 0xFFFFFFFFFFFFFFFFFFFFFFFFFFFFFFFFFFFFFFFFFFFFFFFFFFFFFFFFFFFFFFE0 PUSH1 0x1F PUSH1 0x20 SWAP4 PUSH2 0x2475 DUP2 MLOAD DUP1 SWAP3 DUP2 DUP8 MSTORE DUP8 DUP1 DUP9 ADD SWAP2 ADD PUSH2 0x2416 JUMP JUMPDEST ADD AND ADD ADD SWAP1 JUMP JUMPDEST SWAP1 DUP2 MLOAD DUP1 DUP3 MSTORE PUSH1 0x20 DUP1 DUP1 SWAP4 ADD SWAP4 ADD SWAP2 PUSH1 0x0 JUMPDEST DUP3 DUP2 LT PUSH2 0x249C JUMPI POP POP POP POP SWAP1 JUMP JUMPDEST DUP4 MLOAD DUP6 MSTORE SWAP4 DUP2 ADD SWAP4 SWAP3 DUP2 ADD SWAP3 PUSH1 0x1 ADD PUSH2 0x248E JUMP JUMPDEST SWAP1 DUP2 MLOAD DUP1 DUP3 MSTORE PUSH1 0x20 DUP1 DUP1 SWAP4 ADD SWAP4 ADD SWAP2 PUSH1 0x0 JUMPDEST DUP3 DUP2 LT PUSH2 0x24D0 JUMPI POP POP POP POP SWAP1 JUMP JUMPDEST DUP4 MLOAD PUSH20 0xFFFFFFFFFFFFFFFFFFFFFFFFFFFFFFFFFFFFFFFF AND DUP6 MSTORE SWAP4 DUP2 ADD SWAP4 SWAP3 DUP2 ADD SWAP3 PUSH1 0x1 ADD PUSH2 0x24C2 JUMP JUMPDEST DUP1 SLOAD DUP3 LT ISZERO PUSH2 0x2512 JUMPI PUSH1 0x0 MSTORE PUSH1 0x20 PUSH1 0x0 KECCAK256 ADD SWAP1 PUSH1 0x0 SWAP1 JUMP JUMPDEST PUSH32 0x4E487B7100000000000000000000000000000000000000000000000000000000 PUSH1 0x0 MSTORE PUSH1 0x32 PUSH1 0x4 MSTORE PUSH1 0x24 PUSH1 0x0 REVERT JUMPDEST SWAP1 PUSH1 0x1 DUP3 DUP2 SHR SWAP3 AND DUP1 ISZERO PUSH2 0x258A JUMPI JUMPDEST PUSH1 0x20 DUP4 LT EQ PUSH2 0x255B JUMPI JUMP JUMPDEST PUSH32 0x4E487B7100000000000000000000000000000000000000000000000000000000 PUSH1 0x0 MSTORE PUSH1 0x22 PUSH1 0x4 MSTORE PUSH1 0x24 PUSH1 0x0 REVERT JUMPDEST SWAP2 PUSH1 0x7F AND SWAP2 PUSH2 0x2550 JUMP JUMPDEST SWAP1 PUSH1 0x40 MLOAD SWAP2 DUP3 DUP2 SLOAD SWAP2 DUP3 DUP3 MSTORE PUSH1 0x20 SWAP3 DUP4 DUP4 ADD SWAP2 PUSH1 0x0 MSTORE DUP4 PUSH1 0x0 KECCAK256 SWAP4 PUSH1 0x0 SWAP1 JUMPDEST DUP3 DUP3 LT PUSH2 0x25CB JUMPI POP POP POP PUSH2 0x25C9 SWAP3 POP SUB DUP4 PUSH2 0x239B JUMP JUMPDEST JUMP JUMPDEST DUP6 SLOAD DUP5 MSTORE PUSH1 0x1 SWAP6 DUP7 ADD SWAP6 DUP9 SWAP6 POP SWAP4 DUP2 ADD SWAP4 SWAP1 SWAP2 ADD SWAP1 PUSH2 0x25B3 JUMP JUMPDEST DUP2 DUP2 MUL SWAP3 SWAP2 DUP2 ISZERO SWAP2 DUP5 DIV EQ OR ISZERO PUSH2 0xDBD JUMPI JUMP JUMPDEST DUP2 ISZERO PUSH2 0x2602 JUMPI DIV SWAP1 JUMP JUMPDEST PUSH32 0x4E487B7100000000000000000000000000000000000000000000000000000000 PUSH1 0x0 MSTORE PUSH1 0x12 PUSH1 0x4 MSTORE PUSH1 0x24 PUSH1 0x0 REVERT JUMPDEST PUSH1 0xFF AND PUSH1 0x4D DUP2 GT PUSH2 0xDBD JUMPI PUSH1 0xA EXP SWAP1 JUMP JUMPDEST PUSH1 0x40 PUSH1 0x0 PUSH1 0x4 PUSH1 0x1C PUSH5 0x2540BE400 SWAP5 PUSH4 0xFEAF968C DUP5 MSTORE GAS STATICCALL PUSH1 0x1F RETURNDATASIZE GT AND PUSH1 0x20 MLOAD MUL MUL SWAP1 JUMP JUMPDEST MLOAD SWAP1 PUSH14 0xFFFFFFFFFFFFFFFFFFFFFFFFFFFF DUP3 AND DUP3 SUB PUSH2 0x151 JUMPI JUMP JUMPDEST PUSH1 0x4D DUP2 GT PUSH2 0xDBD JUMPI PUSH1 0xA EXP SWAP1 JUMP JUMPDEST PUSH8 0xFFFFFFFFFFFFFFFF DUP2 GT PUSH2 0x868 JUMPI PUSH1 0x5 SHL PUSH1 0x20 ADD SWAP1 JUMP JUMPDEST SWAP1 PUSH2 0x26B2 DUP3 PUSH2 0x2690 JUMP JUMPDEST PUSH2 0x26BF PUSH1 0x40 MLOAD SWAP2 DUP3 PUSH2 0x239B JUMP JUMPDEST DUP3 DUP2 MSTORE PUSH32 0xFFFFFFFFFFFFFFFFFFFFFFFFFFFFFFFFFFFFFFFFFFFFFFFFFFFFFFFFFFFFFFE0 PUSH2 0x26ED DUP3 SWAP5 PUSH2 0x2690 JUMP JUMPDEST ADD SWAP1 PUSH1 0x20 CALLDATASIZE SWAP2 ADD CALLDATACOPY JUMP JUMPDEST PUSH32 0xFFFFFFFFFFFFFFFFFFFFFFFFFFFFFFFFFFFFFFFFFFFFFFFFFFFFFFFFFFFFFFFF DUP2 EQ PUSH2 0xDBD JUMPI PUSH1 0x1 ADD SWAP1 JUMP JUMPDEST DUP1 MLOAD DUP3 LT ISZERO PUSH2 0x2512 JUMPI PUSH1 0x20 SWAP2 PUSH1 0x5 SHL ADD ADD SWAP1 JUMP JUMPDEST SWAP1 DUP2 PUSH1 0x20 SWAP2 SUB SLT PUSH2 0x151 JUMPI MLOAD PUSH20 0xFFFFFFFFFFFFFFFFFFFFFFFFFFFFFFFFFFFFFFFF DUP2 AND DUP2 SUB PUSH2 0x151 JUMPI SWAP1 JUMP JUMPDEST SWAP1 DUP2 PUSH1 0x20 SWAP2 SUB SLT PUSH2 0x151 JUMPI MLOAD PUSH1 0xFF DUP2 AND DUP2 SUB PUSH2 0x151 JUMPI SWAP1 JUMP JUMPDEST CALLDATALOAD PUSH20 0xFFFFFFFFFFFFFFFFFFFFFFFFFFFFFFFFFFFFFFFF DUP2 AND DUP2 SUB PUSH2 0x151 JUMPI SWAP1 JUMP JUMPDEST DUP2 DUP2 LT PUSH2 0x27A9 JUMPI POP POP JUMP JUMPDEST PUSH1 0x0 DUP2 SSTORE PUSH1 0x1 ADD PUSH2 0x279E JUMP JUMPDEST SWAP2 DUP2 DUP2 LT PUSH2 0x27C2 JUMPI POP POP POP JUMP JUMPDEST PUSH2 0x25C9 SWAP3 PUSH1 0x0 MSTORE PUSH1 0x20 PUSH1 0x0 KECCAK256 SWAP2 DUP3 ADD SWAP2 ADD PUSH2 0x279E JUMP JUMPDEST SWAP1 SWAP2 PUSH32 0xFFFFFFFFFFFFFFFFFFFFFFFFFFFFFFFFFFFFFFFFFFFFFFFFFFFFFFFFFFFFFFFF DUP4 DUP4 MULMOD SWAP3 DUP1 DUP4 MUL SWAP3 DUP4 DUP1 DUP7 LT SWAP6 SUB SWAP5 DUP1 DUP7 SUB SWAP6 EQ PUSH2 0x28A5 JUMPI DUP3 DUP6 LT ISZERO PUSH2 0x286E JUMPI SWAP1 DUP3 SWAP2 MULMOD PUSH1 0x1 DUP3 NOT ADD DUP3 AND DUP1 SWAP3 DIV PUSH1 0x2 DUP1 DUP3 PUSH1 0x3 MUL XOR DUP1 DUP4 MUL DUP3 SUB MUL DUP1 DUP4 MUL DUP3 SUB MUL DUP1 DUP4 MUL DUP3 SUB MUL DUP1 DUP4 MUL DUP3 SUB MUL DUP1 DUP4 MUL DUP3 SUB MUL DUP1 SWAP3 MUL SWAP1 SUB MUL SWAP4 PUSH1 0x1 DUP4 DUP1 PUSH1 0x0 SUB DIV ADD SWAP1 DUP5 DUP4 GT SWAP1 SUB MUL SWAP3 SUB DIV OR MUL SWAP1 JUMP JUMPDEST PUSH1 0x44 DUP6 DUP5 PUSH1 0x40 MLOAD SWAP2 PUSH32 0x773CC18C00000000000000000000000000000000000000000000000000000000 DUP4 MSTORE PUSH1 0x4 DUP4 ADD MSTORE PUSH1 0x24 DUP3 ADD MSTORE REVERT JUMPDEST POP POP SWAP1 PUSH2 0x28B2 SWAP3 POP PUSH2 0x25F8 JUMP JUMPDEST SWAP1 JUMP JUMPDEST DUP1 ISZERO PUSH2 0x2910 JUMPI DUP2 DUP2 MUL SWAP2 DUP1 PUSH2 0x28CA DUP4 DUP6 PUSH2 0x25F8 JUMP JUMPDEST SUB PUSH2 0x28DA JUMPI POP POP PUSH2 0x28B2 SWAP1 PUSH2 0x2917 JUMP JUMPDEST PUSH1 0x44 SWAP3 POP PUSH1 0x40 MLOAD SWAP2 PUSH31 0xC3EFDF00000000000000000000000000000000000000000000000000000000 DUP4 MSTORE PUSH1 0x4 DUP4 ADD MSTORE PUSH1 0x24 DUP3 ADD MSTORE REVERT JUMPDEST POP POP PUSH1 0x0 SWAP1 JUMP JUMPDEST DUP1 ISZERO PUSH2 0x2A5F JUMPI DUP1 PUSH1 0x1 PUSH17 0x100000000000000000000000000000000 DUP4 LT ISZERO PUSH2 0x2A49 JUMPI JUMPDEST PUSH1 0x8 DUP3 PUSH9 0x10000000000000000 PUSH2 0x29F1 SWAP5 LT ISZERO PUSH2 0x2A3C JUMPI JUMPDEST PUSH5 0x100000000 DUP2 LT ISZERO PUSH2 0x2A2F JUMPI JUMPDEST PUSH3 0x10000 DUP2 LT ISZERO PUSH2 0x2A23 JUMPI JUMPDEST PUSH2 0x100 DUP2 LT ISZERO PUSH2 0x2A17 JUMPI JUMPDEST PUSH1 0x10 DUP2 LT ISZERO PUSH2 0x2A0A JUMPI JUMPDEST LT ISZERO PUSH2 0x2A02 JUMPI JUMPDEST PUSH2 0x2992 DUP2 DUP5 PUSH2 0x25F8 JUMP JUMPDEST ADD PUSH1 0x1 SHR PUSH2 0x29A0 DUP2 DUP5 PUSH2 0x25F8 JUMP JUMPDEST ADD PUSH1 0x1 SHR PUSH2 0x29AE DUP2 DUP5 PUSH2 0x25F8 JUMP JUMPDEST ADD PUSH1 0x1 SHR PUSH2 0x29BC DUP2 DUP5 PUSH2 0x25F8 JUMP JUMPDEST ADD PUSH1 0x1 SHR PUSH2 0x29CA DUP2 DUP5 PUSH2 0x25F8 JUMP JUMPDEST ADD PUSH1 0x1 SHR PUSH2 0x29D8 DUP2 DUP5 PUSH2 0x25F8 JUMP JUMPDEST ADD PUSH1 0x1 SHR PUSH2 0x29E6 DUP2 DUP5 PUSH2 0x25F8 JUMP JUMPDEST ADD PUSH1 0x1 SHR DUP1 SWAP3 PUSH2 0x25F8 JUMP JUMPDEST SWAP1 DUP2 DUP2 LT PUSH2 0x29FD JUMPI POP SWAP1 JUMP JUMPDEST SWAP1 POP SWAP1 JUMP JUMPDEST PUSH1 0x1 SHL PUSH2 0x2988 JUMP JUMPDEST PUSH1 0x4 SHR SWAP2 PUSH1 0x2 SHL SWAP2 PUSH2 0x2981 JUMP JUMPDEST DUP2 SHR SWAP2 PUSH1 0x4 SHL SWAP2 PUSH2 0x2977 JUMP JUMPDEST PUSH1 0x10 SHR SWAP2 DUP2 SHL SWAP2 PUSH2 0x296C JUMP JUMPDEST PUSH1 0x20 SHR SWAP2 PUSH1 0x10 SHL SWAP2 PUSH2 0x2960 JUMP JUMPDEST PUSH1 0x40 SHR SWAP2 PUSH1 0x20 SHL SWAP2 PUSH2 0x2952 JUMP JUMPDEST POP POP PUSH1 0x80 DUP2 SWAP1 SHR PUSH9 0x10000000000000000 PUSH2 0x293A JUMP JUMPDEST POP PUSH1 0x0 SWAP1 JUMP JUMPDEST SWAP1 PUSH8 0xDE0B6B3A7640000 DUP1 DUP4 LT PUSH2 0x2BDA JUMPI PUSH1 0x0 SWAP3 DUP2 DUP2 DIV PUSH17 0x100000000000000000000000000000000 DUP2 LT ISZERO PUSH2 0x2BCF JUMPI JUMPDEST PUSH9 0x10000000000000000 DUP2 LT ISZERO PUSH2 0x2BBA JUMPI JUMPDEST PUSH5 0x100000000 DUP2 LT ISZERO PUSH2 0x2BA5 JUMPI JUMPDEST PUSH3 0x10000 DUP2 LT ISZERO PUSH2 0x2B90 JUMPI JUMPDEST PUSH2 0x100 DUP2 LT ISZERO PUSH2 0x2B7B JUMPI JUMPDEST PUSH1 0x10 DUP2 LT ISZERO PUSH2 0x2B66 JUMPI JUMPDEST PUSH1 0x4 DUP2 LT ISZERO PUSH2 0x2B51 JUMPI JUMPDEST PUSH1 0x2 GT ISZERO PUSH2 0x2B3F JUMPI JUMPDEST DUP2 DUP5 MUL SWAP4 SHR SWAP1 DUP1 DUP3 EQ PUSH2 0x2B3B JUMPI PUSH8 0x6F05B59D3B20000 SWAP2 DUP3 JUMPDEST PUSH2 0x2B0C JUMPI POP POP POP JUMP JUMPDEST DUP1 DUP3 SWAP2 MUL DIV SWAP2 PUSH8 0x1BC16D674EC80000 DUP4 LT ISZERO PUSH2 0x2B2D JUMPI JUMPDEST PUSH1 0x1 SHR SWAP2 DUP3 PUSH2 0x2B03 JUMP JUMPDEST DUP1 SWAP3 SWAP5 ADD SWAP4 PUSH1 0x1 SHR SWAP2 PUSH2 0x2B23 JUMP JUMPDEST POP POP JUMP JUMPDEST SWAP3 PUSH1 0x1 DUP2 ADD DUP1 SWAP2 GT PUSH2 0xDBD JUMPI SWAP3 PUSH2 0x2AEA JUMP JUMPDEST PUSH1 0x2 SHR SWAP4 PUSH1 0x2 DUP2 ADD DUP1 SWAP2 GT PUSH2 0xDBD JUMPI SWAP4 PUSH2 0x2AE1 JUMP JUMPDEST PUSH1 0x4 SHR SWAP4 PUSH1 0x4 DUP2 ADD DUP1 SWAP2 GT PUSH2 0xDBD JUMPI SWAP4 PUSH2 0x2AD7 JUMP JUMPDEST PUSH1 0x8 SHR SWAP4 PUSH1 0x8 DUP2 ADD DUP1 SWAP2 GT PUSH2 0xDBD JUMPI SWAP4 PUSH2 0x2ACD JUMP JUMPDEST PUSH1 0x10 SHR SWAP4 PUSH1 0x10 DUP2 ADD DUP1 SWAP2 GT PUSH2 0xDBD JUMPI SWAP4 PUSH2 0x2AC2 JUMP JUMPDEST PUSH1 0x20 SHR SWAP4 PUSH1 0x20 DUP2 ADD DUP1 SWAP2 GT PUSH2 0xDBD JUMPI SWAP4 PUSH2 0x2AB6 JUMP JUMPDEST PUSH1 0x40 SHR SWAP4 PUSH1 0x40 DUP2 ADD DUP1 SWAP2 GT PUSH2 0xDBD JUMPI SWAP4 PUSH2 0x2AA8 JUMP JUMPDEST PUSH1 0x80 SWAP5 POP DUP5 SHR PUSH2 0x2A96 JUMP JUMPDEST PUSH1 0x24 DUP4 PUSH1 0x40 MLOAD SWAP1 PUSH32 0xD88504DC00000000000000000000000000000000000000000000000000000000 DUP3 MSTORE PUSH1 0x4 DUP3 ADD MSTORE REVERT INVALID LOG1 PUSH5 0x736F6C6343 STOP ADDMOD GT STOP EXP "},"methodIdentifiers":{"AGGREGATOR_DECIMALS()":"8a790cf2","AGGREGATOR_SCALAR()":"9ff631dd","S()":"4be1c796","SECONDS_PER_YEAR()":"e6a69ab8","allNebulas(uint256)":"d02c70e8","assetPricesUsd(address)":"193d1da9","decimals()":"313ce567","denominationAggregator()":"8eb6f8f0","denominationToken()":"f6b9fdfb","denominationTokenPrice()":"cadbcc21","getAnnualizedBaseRate(uint256,uint256,uint256)":"131ad74e","getNebulaOracle(address)":"3ef096d3","initializeNebulaOracle(address,address[])":"d9be8531","lpTokenPriceUsd(address)":"17e5a1a1","name()":"06fdde03","nebulaRegistry()":"e13d88ac","nebulaSize()":"ba3941e7","version()":"54fd4d50"}}}}}