{"contracts/cygnus-oracle/CygnusNebulaOracle.sol":{"CygnusNebulaOracle":{"abi":[{"inputs":[{"internalType":"contract IERC20","name":"denomination","type":"address"},{"internalType":"contract AggregatorV3Interface","name":"denominationPrice","type":"address"}],"stateMutability":"nonpayable","type":"constructor"},{"inputs":[{"internalType":"address","name":"pendingAdmin","type":"address"}],"name":"CygnusNebulaOracle__AdminCantBeZero","type":"error"},{"inputs":[{"internalType":"address","name":"msgSender","type":"address"}],"name":"CygnusNebulaOracle__MsgSenderNotAdmin","type":"error"},{"inputs":[{"internalType":"contract IDexPair","name":"lpTokenPair","type":"address"}],"name":"CygnusNebulaOracle__NebulaRecordAlreadyInitialized","type":"error"},{"inputs":[{"internalType":"contract IDexPair","name":"lpTokenPair","type":"address"}],"name":"CygnusNebulaOracle__NebulaRecordNotInitialized","type":"error"},{"inputs":[{"internalType":"address","name":"lpTokenPair","type":"address"}],"name":"CygnusNebulaOracle__PairAlreadyInitialized","type":"error"},{"inputs":[{"internalType":"address","name":"lpTokenPair","type":"address"}],"name":"CygnusNebulaOracle__PairNotInitialized","type":"error"},{"inputs":[{"internalType":"address","name":"pendingAdmin","type":"address"}],"name":"CygnusNebulaOracle__PendingAdminAlreadySet","type":"error"},{"inputs":[{"internalType":"contract IERC20","name":"token","type":"address"},{"internalType":"uint256","name":"decimals","type":"uint256"}],"name":"IERC20Normalizer__TokenDecimalsGreaterThan18","type":"error"},{"inputs":[{"internalType":"contract IERC20","name":"token","type":"address"}],"name":"IERC20Normalizer__TokenDecimalsZero","type":"error"},{"inputs":[{"internalType":"uint256","name":"x","type":"uint256"}],"name":"PRBMathUD60x18__Exp2InputTooBig","type":"error"},{"inputs":[{"internalType":"uint256","name":"x","type":"uint256"}],"name":"PRBMathUD60x18__ExpInputTooBig","type":"error"},{"inputs":[{"internalType":"uint256","name":"x","type":"uint256"},{"internalType":"uint256","name":"y","type":"uint256"}],"name":"PRBMathUD60x18__GmOverflow","type":"error"},{"inputs":[{"internalType":"uint256","name":"x","type":"uint256"}],"name":"PRBMathUD60x18__LogInputTooSmall","type":"error"},{"inputs":[{"internalType":"uint256","name":"prod1","type":"uint256"},{"internalType":"uint256","name":"denominator","type":"uint256"}],"name":"PRBMath__MulDivOverflow","type":"error"},{"inputs":[],"name":"ReentrantCall","type":"error"},{"anonymous":false,"inputs":[{"indexed":false,"internalType":"bool","name":"initialized","type":"bool"},{"indexed":false,"internalType":"uint88","name":"oracleId","type":"uint88"},{"indexed":false,"internalType":"address","name":"lpTokenPair","type":"address"},{"indexed":false,"internalType":"contract AggregatorV3Interface","name":"priceFeedA","type":"address"},{"indexed":false,"internalType":"contract AggregatorV3Interface","name":"priceFeedB","type":"address"}],"name":"InitializeCygnusNebula","type":"event"},{"anonymous":false,"inputs":[{"indexed":false,"internalType":"address","name":"oracleOldAdmin","type":"address"},{"indexed":false,"internalType":"address","name":"oracleNewAdmin","type":"address"}],"name":"NewOracleAdmin","type":"event"},{"anonymous":false,"inputs":[{"indexed":false,"internalType":"address","name":"oracleCurrentAdmin","type":"address"},{"indexed":false,"internalType":"address","name":"oraclePendingAdmin","type":"address"}],"name":"NewOraclePendingAdmin","type":"event"},{"inputs":[],"name":"SECONDS_PER_YEAR","outputs":[{"internalType":"uint256","name":"","type":"uint256"}],"stateMutability":"view","type":"function"},{"inputs":[],"name":"admin","outputs":[{"internalType":"address","name":"","type":"address"}],"stateMutability":"view","type":"function"},{"inputs":[{"internalType":"uint256","name":"","type":"uint256"}],"name":"allNebulas","outputs":[{"internalType":"address","name":"","type":"address"}],"stateMutability":"view","type":"function"},{"inputs":[{"internalType":"address","name":"lpTokenPair","type":"address"}],"name":"assetPricesUsd","outputs":[{"internalType":"uint256","name":"tokenPriceA","type":"uint256"},{"internalType":"uint256","name":"tokenPriceB","type":"uint256"}],"stateMutability":"view","type":"function"},{"inputs":[],"name":"decimals","outputs":[{"internalType":"uint8","name":"","type":"uint8"}],"stateMutability":"view","type":"function"},{"inputs":[],"name":"denominationAggregator","outputs":[{"internalType":"contract AggregatorV3Interface","name":"","type":"address"}],"stateMutability":"view","type":"function"},{"inputs":[],"name":"denominationToken","outputs":[{"internalType":"contract IERC20","name":"","type":"address"}],"stateMutability":"view","type":"function"},{"inputs":[],"name":"denominationTokenPrice","outputs":[{"internalType":"uint256","name":"","type":"uint256"}],"stateMutability":"view","type":"function"},{"inputs":[{"internalType":"uint256","name":"exchangeRateLast","type":"uint256"},{"internalType":"uint256","name":"exchangeRateNow","type":"uint256"},{"internalType":"uint256","name":"timeElapsed","type":"uint256"}],"name":"getAnnualizedLogApr","outputs":[{"internalType":"uint256","name":"","type":"uint256"}],"stateMutability":"pure","type":"function"},{"inputs":[{"internalType":"address","name":"","type":"address"}],"name":"getNebula","outputs":[{"internalType":"bool","name":"initialized","type":"bool"},{"internalType":"uint88","name":"oracleId","type":"uint88"},{"internalType":"address","name":"underlying","type":"address"},{"internalType":"contract IERC20","name":"token0","type":"address"},{"internalType":"contract IERC20","name":"token1","type":"address"},{"internalType":"contract AggregatorV3Interface","name":"priceFeedA","type":"address"},{"internalType":"contract AggregatorV3Interface","name":"priceFeedB","type":"address"}],"stateMutability":"view","type":"function"},{"inputs":[{"internalType":"address","name":"lpTokenPair","type":"address"},{"internalType":"contract AggregatorV3Interface","name":"aggregatorA","type":"address"},{"internalType":"contract AggregatorV3Interface","name":"aggregatorB","type":"address"}],"name":"initializeNebula","outputs":[],"stateMutability":"nonpayable","type":"function"},{"inputs":[{"internalType":"address","name":"lpTokenPair","type":"address"}],"name":"lpTokenPriceUsd","outputs":[{"internalType":"uint256","name":"lpTokenPrice","type":"uint256"}],"stateMutability":"view","type":"function"},{"inputs":[],"name":"name","outputs":[{"internalType":"string","name":"","type":"string"}],"stateMutability":"view","type":"function"},{"inputs":[],"name":"nebulaSize","outputs":[{"internalType":"uint24","name":"","type":"uint24"}],"stateMutability":"view","type":"function"},{"inputs":[],"name":"pendingAdmin","outputs":[{"internalType":"address","name":"","type":"address"}],"stateMutability":"view","type":"function"},{"inputs":[],"name":"setOracleAdmin","outputs":[],"stateMutability":"nonpayable","type":"function"},{"inputs":[{"internalType":"address","name":"newPendingAdmin","type":"address"}],"name":"setOraclePendingAdmin","outputs":[],"stateMutability":"nonpayable","type":"function"},{"inputs":[],"name":"symbol","outputs":[{"internalType":"string","name":"","type":"string"}],"stateMutability":"view","type":"function"},{"inputs":[],"name":"version","outputs":[{"internalType":"string","name":"","type":"string"}],"stateMutability":"view","type":"function"}],"evm":{"bytecode":{"linkReferences":{},"object":"60e06040523480156200001157600080fd5b506040516200263038038062002630833981016040819052620000349162000244565b6000805460ff19166001179055620000493390565b600480546001600160a01b0319166001600160a01b03928316178155606084901b6001600160601b0319166080526040805163313ce56760e01b815290519285169263313ce56792828101926020929190829003018186803b158015620000af57600080fd5b505afa158015620000c4573d6000803e3d6000fd5b505050506040513d601f19601f82011682018060405250810190620000ea919062000282565b60f81b7fff000000000000000000000000000000000000000000000000000000000000001660a052606081901b6001600160601b03191660c0526200012f8162000138565b505050620002c5565b600080826001600160a01b031663313ce5676040518163ffffffff1660e01b815260040160206040518083038186803b1580156200017557600080fd5b505afa1580156200018a573d6000803e3d6000fd5b505050506040513d601f19601f82011682018060405250810190620001b0919062000282565b60ff16905080620001e45760405163fe3c012960e01b81526001600160a01b03841660048201526024015b60405180910390fd5b60128111156200021a576040516396434c7f60e01b81526001600160a01b038416600482015260248101829052604401620001db565b6001600160a01b039092166000908152600160205260409020601292909203600a0a918290555090565b6000806040838503121562000257578182fd5b82516200026481620002ac565b60208401519092506200027781620002ac565b809150509250929050565b60006020828403121562000294578081fd5b815160ff81168114620002a5578182fd5b9392505050565b6001600160a01b0381168114620002c257600080fd5b50565b60805160601c60a05160f81c60c05160601c6122fa620003366000396000818161020f015281816106bc01528181610758015281816109ae01528181610a6e0152611052015260008181610182015281816107ac01528181610a9a0152610ae60152600061036801526122fa6000f3fe608060405234801561001057600080fd5b50600436106100f15760003560e01c806306fdde03146100f657806317e5a1a114610114578063193d1da914610135578063267822471461015d578063313ce5671461017d57806351fcba9d146101b657806354fd4d50146101cb57806362bbb6e0146101ef57806365c9b257146101f75780638eb6f8f01461020a5780638fd1c2131461023157806395d89b4114610244578063ba3941e71461026c578063cadbcc2114610283578063d02c70e81461028b578063e6a69ab81461029e578063f0ac40c4146102a9578063f6b9fdfb14610363578063f851a4401461038a575b600080fd5b6100fe61039d565b60405161010b91906120a2565b60405180910390f35b610127610122366004611ee4565b6103b9565b60405190815260200161010b565b610148610143366004611ee4565b610807565b6040805192835260208301919091520161010b565b600554610170906001600160a01b031681565b60405161010b9190612074565b6101a47f000000000000000000000000000000000000000000000000000000000000000081565b60405160ff909116815260200161010b565b6101c96101c4366004611f1c565b610b39565b005b6100fe604051806040016040528060058152602001640312e302e360dc1b81525081565b6101c9610e3e565b6101c9610205366004611ee4565b610f1f565b6101707f000000000000000000000000000000000000000000000000000000000000000081565b61012761023f366004611fd9565b610fda565b6100fe604051806040016040528060098152602001684379674e6562756c6160b81b81525081565b60035460405162ffffff909116815260200161010b565b61012761104d565b610170610299366004611fa9565b6110ec565b6101276301e1338081565b6103146102b7366004611ee4565b60026020819052600091825260409091208054600182015492820154600383015460049093015460ff8316946001600160581b03610100850416946001600160a01b03600160601b90950485169491821693821692908216911687565b6040805197151588526001600160581b0390961660208801526001600160a01b0394851695870195909552918316606086015282166080850152811660a08401521660c082015260e00161010b565b6101707f000000000000000000000000000000000000000000000000000000000000000081565b600454610170906001600160a01b031681565b6040518060600160405280602281526020016122a36022913981565b6001600160a01b038082166000908152600260208181526040808420815160e081018352815460ff811615158083526001600160581b0361010083041695830195909552600160601b900487169281019290925260018101548616606083015292830154851660808201526003830154851660a082015260049092015490931660c08201529091610468578260405163fb642b4d60e01b815260040161045f9190612074565b60405180910390fd5b600080846001600160a01b0316630902f1ac6040518163ffffffff1660e01b815260040160606040518083038186803b1580156104a457600080fd5b505afa1580156104b8573d6000803e3d6000fd5b505050506040513d601f19601f820116820180604052508101906104dc9190611f66565b50915091506000856001600160a01b03166318160ddd6040518163ffffffff1660e01b815260040160206040518083038186803b15801561051c57600080fd5b505afa158015610530573d6000803e3d6000fd5b505050506040513d601f19601f820116820180604052508101906105549190611fc1565b9050600061056f8560600151856001600160701b0316611116565b9050600061058a8660800151856001600160701b0316611116565b905060006105988383611150565b905060008760a001516001600160a01b031663feaf968c6040518163ffffffff1660e01b815260040160a06040518083038186803b1580156105d957600080fd5b505afa1580156105ed573d6000803e3d6000fd5b505050506040513d601f19601f820116820180604052508101906106119190612004565b50505091505060008860c001516001600160a01b031663feaf968c6040518163ffffffff1660e01b815260040160a06040518083038186803b15801561065657600080fd5b505afa15801561066a573d6000803e3d6000fd5b505050506040513d601f19601f8201168201806040525081019061068e9190612004565b50505091505060006106a48a60a0015184611116565b905060006106b68b60c0015184611116565b905060007f00000000000000000000000000000000000000000000000000000000000000006001600160a01b031663feaf968c6040518163ffffffff1660e01b815260040160a06040518083038186803b15801561071357600080fd5b505afa158015610727573d6000803e3d6000fd5b505050506040513d601f19601f8201168201806040525081019061074b9190612004565b505050915050600061077d7f000000000000000000000000000000000000000000000000000000000000000083611116565b9050600061078b8585611150565b9050600061079a89838e6111b7565b6107a590600261221b565b90506107d27f00000000000000000000000000000000000000000000000000000000000000006012612251565b6107dd90600a612170565b6107e78285611293565b6107f1919061210d565b9f50505050505050505050505050505050919050565b6001600160a01b038082166000908152600260208181526040808420815160e081018352815460ff811615158083526001600160581b0361010083041695830195909552600160601b900487169281019290925260018101548616606083015292830154851660808201526003830154851660a082015260049092015490931660c082015290918291906108b0578360405163fb642b4d60e01b815260040161045f9190612074565b60008160a001516001600160a01b031663feaf968c6040518163ffffffff1660e01b815260040160a06040518083038186803b1580156108ef57600080fd5b505afa158015610903573d6000803e3d6000fd5b505050506040513d601f19601f820116820180604052508101906109279190612004565b50505091505060008260c001516001600160a01b031663feaf968c6040518163ffffffff1660e01b815260040160a06040518083038186803b15801561096c57600080fd5b505afa158015610980573d6000803e3d6000fd5b505050506040513d601f19601f820116820180604052508101906109a49190612004565b50505091505060007f00000000000000000000000000000000000000000000000000000000000000006001600160a01b031663feaf968c6040518163ffffffff1660e01b815260040160a06040518083038186803b158015610a0557600080fd5b505afa158015610a19573d6000803e3d6000fd5b505050506040513d601f19601f82011682018060405250810190610a3d9190612004565b5050509150506000610a538560a0015185611116565b90506000610a658660c0015185611116565b90506000610a937f000000000000000000000000000000000000000000000000000000000000000085611116565b9050610ac07f00000000000000000000000000000000000000000000000000000000000000006012612251565b610acb90600a612170565b610ad58483611293565b610adf919061210d565b9850610b0c7f00000000000000000000000000000000000000000000000000000000000000006012612251565b610b1790600a612170565b610b218383611293565b610b2b919061210d565b975050505050505050915091565b60005460ff16610b5c576040516306fda65d60e31b815260040160405180910390fd5b6000805460ff19169055610b6e6112a8565b6001600160a01b0383166000908152600260205260409020805460ff1615610bab578360405163122a5e7760e21b815260040161045f9190612074565b600354815460ff1662ffffff91909116610100026001600160601b031617600160601b6001600160a01b03861690810291909117825560408051630dfe168160e01b81529051630dfe168191600480820192602092909190829003018186803b158015610c1757600080fd5b505afa158015610c2b573d6000803e3d6000fd5b505050506040513d601f19601f82011682018060405250810190610c4f9190611f00565b8160010160006101000a8154816001600160a01b0302191690836001600160a01b03160217905550836001600160a01b031663d21220a76040518163ffffffff1660e01b815260040160206040518083038186803b158015610cb057600080fd5b505afa158015610cc4573d6000803e3d6000fd5b505050506040513d601f19601f82011682018060405250810190610ce89190611f00565b6002820180546001600160a01b0319166001600160a01b039283161790556001820154610d1591166112e0565b506002810154610d2d906001600160a01b03166112e0565b506003810180546001600160a01b038086166001600160a01b03199283161790925560048301805492851692909116919091179055610d6b836112e0565b50610d75826112e0565b5060038054600180820183556000929092527fc2575a0e9e593c00f959f8c92f12db2869c3395a3b0502d05e2516446f71f85b0180546001600160a01b0319166001600160a01b03878116918217909255835460ff19168317808555604080519485526101009091046001600160581b031660208501528301528481166060830152831660808201527fa9c1a243c663bea93d8b6c5d7850083fd601a6719a17f6e8eb16e89860e258559060a00160405180910390a150506000805460ff191660011790555050565b60005460ff16610e61576040516306fda65d60e31b815260040160405180910390fd5b6000805460ff19169055610e736112a8565b6005546001600160a01b0316610ea95760055460405163b964881760e01b815261045f916001600160a01b031690600401612074565b60048054600580546001600160a01b038082166001600160a01b03198086168217909655949091169091556040519116917f5d79527e1742e3cb9a668b777100775a1648a5a8adea9c578d164dd2d0908aac91610f07918491612088565b60405180910390a1506000805460ff19166001179055565b60005460ff16610f42576040516306fda65d60e31b815260040160405180910390fd5b6000805460ff19169055610f546112a8565b6005546001600160a01b0382811691161415610f8557806040516318c0efa960e11b815260040161045f9190612074565b600580546001600160a01b0319166001600160a01b03838116919091179091556004546040517f0ddc205eecbcb9fd6100d787269a63285115c1e35297b5cd128aa171376b762292610f079216908490612088565b600080610fe6856113d7565b90506000610ff3856113d7565b90506000611001838361223a565b90506000856110146301e133808461221b565b61101e919061210d565b90506000670de0b6b3a764000061103483611417565b61103e919061223a565b955050505050505b9392505050565b6000807f00000000000000000000000000000000000000000000000000000000000000006001600160a01b031663feaf968c6040518163ffffffff1660e01b815260040160a06040518083038186803b1580156110a957600080fd5b505afa1580156110bd573d6000803e3d6000fd5b505050506040513d601f19601f820116820180604052508101906110e19190612004565b509195945050505050565b600381815481106110fc57600080fd5b6000918252602090912001546001600160a01b0316905081565b6001600160a01b038216600090815260016020526040812054806001141561113e5782611148565b611148818461221b565b949350505050565b60008261115f575060006111b1565b8282028284828161118057634e487b7160e01b600052601260045260246000fd5b04146111a85760405162c3efdf60e01b8152600481018590526024810184905260440161045f565b6111488161146d565b92915050565b600080806000198587098587029250828110838203039150508060001415611200578382816111f657634e487b7160e01b600052601260045260246000fd5b0492505050611046565b83811061122a57604051631dcf306360e21b8152600481018290526024810185905260440161045f565b60008486880960026001871981018816978890046003810283188082028403028082028403028082028403028082028403028082028403029081029092039091026000889003889004909101858311909403939093029303949094049190911702949350505050565b600061104683670de0b6b3a7640000846111b7565b6004546001600160a01b0316336001600160a01b0316146112de5733604051634bfe64f160e11b815260040161045f9190612074565b565b600080826001600160a01b031663313ce5676040518163ffffffff1660e01b815260040160206040518083038186803b15801561131c57600080fd5b505afa158015611330573d6000803e3d6000fd5b505050506040513d601f19601f820116820180604052508101906113549190612053565b60ff16905080611379578260405163fe3c012960e01b815260040161045f9190612074565b60128111156113ad576040516396434c7f60e01b81526001600160a01b03841660048201526024810182905260440161045f565b6001600160a01b039092166000908152600160205260409020601292909203600a0a918290555090565b60006714057b7ef767814f670de0b6b3a76400006113f484611648565b028161141057634e487b7160e01b600052601260045260246000fd5b0492915050565b6000680736ea4425c11ac63182106114455760405163062bb40d60e31b81526004810183905260240161045f565b6714057b7ef767814f8202611046670de0b6b3a76400006706f05b59d3b200008301046116f8565b60008161147c57506000919050565b50600181600160801b81106114965760409190911b9060801c5b600160401b81106114ac5760209190911b9060401c5b600160201b81106114c25760109190911b9060201c5b6201000081106114d75760089190911b9060101c5b61010081106114eb5760049190911b9060081c5b601081106114fe5760029190911b9060041c5b6008811061150e57600182901b91505b600182848161152d57634e487b7160e01b600052601260045260246000fd5b048301901c9150600182848161155357634e487b7160e01b600052601260045260246000fd5b048301901c9150600182848161157957634e487b7160e01b600052601260045260246000fd5b048301901c9150600182848161159f57634e487b7160e01b600052601260045260246000fd5b048301901c915060018284816115c557634e487b7160e01b600052601260045260246000fd5b048301901c915060018284816115eb57634e487b7160e01b600052601260045260246000fd5b048301901c9150600182848161161157634e487b7160e01b600052601260045260246000fd5b048301901c9150600082848161163757634e487b7160e01b600052601260045260246000fd5b049050808310156110465782611148565b6000670de0b6b3a764000082101561167657604051633621413760e21b81526004810183905260240161045f565b600061168b670de0b6b3a7640000840461173e565b670de0b6b3a7640000808202935090915083821c908114156116ae575050919050565b6706f05b59d3b200005b80156116f057670de0b6b3a7640000828002049150671bc16d674ec8000082106116e8579283019260019190911c905b60011c6116b8565b505050919050565b6000680a688906bd8b000000821061172657604051634a4f26f160e01b81526004810183905260240161045f565b670de0b6b3a7640000604083901b0461104681611824565b6000600160801b821061175e57608091821c9161175b90826120f5565b90505b600160401b821061177c57604091821c9161177990826120f5565b90505b600160201b821061179a57602091821c9161179790826120f5565b90505b6201000082106117b757601091821c916117b490826120f5565b90505b61010082106117d357600891821c916117d090826120f5565b90505b601082106117ee57600491821c916117eb90826120f5565b90505b6004821061180957600291821c9161180690826120f5565b90505b6002821061181f5761181c6001826120f5565b90505b919050565b600160bf1b6001603f1b8216156118445768016a09e667f3bcc9090260401c5b6001603e1b82161561185f576801306fe0a31b7152df0260401c5b6001603d1b82161561187a576801172b83c7d517adce0260401c5b6001603c1b8216156118955768010b5586cf9890f62a0260401c5b6001603b1b8216156118b0576801059b0d31585743ae0260401c5b6001603a1b8216156118cb57680102c9a3e778060ee70260401c5b600160391b8216156118e65768010163da9fb33356d80260401c5b600160381b82161561190157680100b1afa5abcbed610260401c5b600160371b82161561191c5768010058c86da1c09ea20260401c5b600160361b821615611937576801002c605e2e8cec500260401c5b600160351b82161561195257680100162f3904051fa10260401c5b600160341b82161561196d576801000b175effdc76ba0260401c5b600160331b82161561198857680100058ba01fb9f96d0260401c5b600160321b8216156119a35768010002c5cc37da94920260401c5b600160311b8216156119be576801000162e525ee05470260401c5b600160301b8216156119d95768010000b17255775c040260401c5b6001602f1b8216156119f4576801000058b91b5bc9ae0260401c5b6001602e1b821615611a0f57680100002c5c89d5ec6d0260401c5b6001602d1b821615611a2a5768010000162e43f4f8310260401c5b6001602c1b821615611a4557680100000b1721bcfc9a0260401c5b6001602b1b821615611a605768010000058b90cf1e6e0260401c5b6001602a1b821615611a7b576801000002c5c863b73f0260401c5b600160291b821615611a9657680100000162e430e5a20260401c5b600160281b821615611ab1576801000000b1721835510260401c5b600160271b821615611acc57680100000058b90c0b490260401c5b600160261b821615611ae75768010000002c5c8601cc0260401c5b600160251b821615611b02576801000000162e42fff00260401c5b600160241b821615611b1d5768010000000b17217fbb0260401c5b600160231b821615611b38576801000000058b90bfce0260401c5b600160221b821615611b5357680100000002c5c85fe30260401c5b600160211b821615611b6e5768010000000162e42ff10260401c5b600160201b821615611b8957680100000000b17217f80260401c5b6380000000821615611ba45768010000000058b90bfc0260401c5b6340000000821615611bbf576801000000002c5c85fe0260401c5b6320000000821615611bda57680100000000162e42ff0260401c5b6310000000821615611bf5576801000000000b17217f0260401c5b6308000000821615611c1057680100000000058b90c00260401c5b6304000000821615611c2b5768010000000002c5c8600260401c5b6302000000821615611c46576801000000000162e4300260401c5b6301000000821615611c615768010000000000b172180260401c5b62800000821615611c7b576801000000000058b90c0260401c5b62400000821615611c9557680100000000002c5c860260401c5b62200000821615611caf5768010000000000162e430260401c5b62100000821615611cc957680100000000000b17210260401c5b62080000821615611ce35768010000000000058b910260401c5b62040000821615611cfd576801000000000002c5c80260401c5b62020000821615611d1757680100000000000162e40260401c5b62010000821615611d305761b172600160401b010260401c5b618000821615611d48576158b9600160401b010260401c5b614000821615611d6057612c5d600160401b010260401c5b612000821615611d785761162e600160401b010260401c5b611000821615611d9057610b17600160401b010260401c5b610800821615611da85761058c600160401b010260401c5b610400821615611dc0576102c6600160401b010260401c5b610200821615611dd857610163600160401b010260401c5b610100821615611def5760b1600160401b010260401c5b6080821615611e05576059600160401b010260401c5b6040821615611e1b57602c600160401b010260401c5b6020821615611e31576016600160401b010260401c5b6010821615611e4757600b600160401b010260401c5b6008821615611e5d576006600160401b010260401c5b6004821615611e73576003600160401b010260401c5b6002821615611e89576001600160401b010260401c5b6001821615611e9f576001600160401b010260401c5b670de0b6b3a76400000260409190911c60bf031c90565b80516001600160701b038116811461181f57600080fd5b80516001600160501b038116811461181f57600080fd5b600060208284031215611ef5578081fd5b81356110468161228a565b600060208284031215611f11578081fd5b81516110468161228a565b600080600060608486031215611f30578182fd5b8335611f3b8161228a565b92506020840135611f4b8161228a565b91506040840135611f5b8161228a565b809150509250925092565b600080600060608486031215611f7a578283fd5b611f8384611eb6565b9250611f9160208501611eb6565b9150604084015163ffffffff81168114611f5b578182fd5b600060208284031215611fba578081fd5b5035919050565b600060208284031215611fd2578081fd5b5051919050565b600080600060608486031215611fed578283fd5b505081359360208301359350604090920135919050565b600080600080600060a0868803121561201b578081fd5b61202486611ecd565b945060208601519350604086015192506060860151915061204760808701611ecd565b90509295509295909350565b600060208284031215612064578081fd5b815160ff81168114611046578182fd5b6001600160a01b0391909116815260200190565b6001600160a01b0392831681529116602082015260400190565b6000602080835283518082850152825b818110156120ce578581018301518582016040015282016120b2565b818111156120df5783604083870101525b50601f01601f1916929092016040019392505050565b6000821982111561210857612108612274565b500190565b60008261212857634e487b7160e01b81526012600452602481fd5b500490565b600181815b8085111561216857816000190482111561214e5761214e612274565b8085161561215b57918102915b93841c9390800290612132565b509250929050565b600061104660ff841683600082612189575060016111b1565b81612196575060006111b1565b81600181146121ac57600281146121b6576121d2565b60019150506111b1565b60ff8411156121c7576121c7612274565b50506001821b6111b1565b5060208310610133831016604e8410600b84101617156121f5575081810a6111b1565b6121ff838361212d565b806000190482111561221357612213612274565b029392505050565b600081600019048311821515161561223557612235612274565b500290565b60008282101561224c5761224c612274565b500390565b600060ff821660ff84168082101561226b5761226b612274565b90039392505050565b634e487b7160e01b600052601160045260246000fd5b6001600160a01b038116811461229f57600080fd5b5056fe4379676e75732d4e6562756c613a20436861696e6c696e6b204c50204f7261636c65a264697066735822122073496cc466c33f981348ac09a8040a8ff9eed7006dace03adc08081dd506cf7e64736f6c63430008040033","opcodes":"PUSH1 0xE0 PUSH1 0x40 MSTORE CALLVALUE DUP1 ISZERO PUSH3 0x11 JUMPI PUSH1 0x0 DUP1 REVERT JUMPDEST POP PUSH1 0x40 MLOAD PUSH3 0x2630 CODESIZE SUB DUP1 PUSH3 0x2630 DUP4 CODECOPY DUP2 ADD PUSH1 0x40 DUP2 SWAP1 MSTORE PUSH3 0x34 SWAP2 PUSH3 0x244 JUMP JUMPDEST PUSH1 0x0 DUP1 SLOAD PUSH1 0xFF NOT AND PUSH1 0x1 OR SWAP1 SSTORE PUSH3 0x49 CALLER SWAP1 JUMP JUMPDEST PUSH1 0x4 DUP1 SLOAD PUSH1 0x1 PUSH1 0x1 PUSH1 0xA0 SHL SUB NOT AND PUSH1 0x1 PUSH1 0x1 PUSH1 0xA0 SHL SUB SWAP3 DUP4 AND OR DUP2 SSTORE PUSH1 0x60 DUP5 SWAP1 SHL PUSH1 0x1 PUSH1 0x1 PUSH1 0x60 SHL SUB NOT AND PUSH1 0x80 MSTORE PUSH1 0x40 DUP1 MLOAD PUSH4 0x313CE567 PUSH1 0xE0 SHL DUP2 MSTORE SWAP1 MLOAD SWAP3 DUP6 AND SWAP3 PUSH4 0x313CE567 SWAP3 DUP3 DUP2 ADD SWAP3 PUSH1 0x20 SWAP3 SWAP2 SWAP1 DUP3 SWAP1 SUB ADD DUP2 DUP7 DUP1 EXTCODESIZE ISZERO DUP1 ISZERO PUSH3 0xAF JUMPI PUSH1 0x0 DUP1 REVERT JUMPDEST POP GAS STATICCALL ISZERO DUP1 ISZERO PUSH3 0xC4 JUMPI RETURNDATASIZE PUSH1 0x0 DUP1 RETURNDATACOPY RETURNDATASIZE PUSH1 0x0 REVERT JUMPDEST POP POP POP POP PUSH1 0x40 MLOAD RETURNDATASIZE PUSH1 0x1F NOT PUSH1 0x1F DUP3 ADD AND DUP3 ADD DUP1 PUSH1 0x40 MSTORE POP DUP2 ADD SWAP1 PUSH3 0xEA SWAP2 SWAP1 PUSH3 0x282 JUMP JUMPDEST PUSH1 0xF8 SHL PUSH32 0xFF00000000000000000000000000000000000000000000000000000000000000 AND PUSH1 0xA0 MSTORE PUSH1 0x60 DUP2 SWAP1 SHL PUSH1 0x1 PUSH1 0x1 PUSH1 0x60 SHL SUB NOT AND PUSH1 0xC0 MSTORE PUSH3 0x12F DUP2 PUSH3 0x138 JUMP JUMPDEST POP POP POP PUSH3 0x2C5 JUMP JUMPDEST PUSH1 0x0 DUP1 DUP3 PUSH1 0x1 PUSH1 0x1 PUSH1 0xA0 SHL SUB AND PUSH4 0x313CE567 PUSH1 0x40 MLOAD DUP2 PUSH4 0xFFFFFFFF AND PUSH1 0xE0 SHL DUP2 MSTORE PUSH1 0x4 ADD PUSH1 0x20 PUSH1 0x40 MLOAD DUP1 DUP4 SUB DUP2 DUP7 DUP1 EXTCODESIZE ISZERO DUP1 ISZERO PUSH3 0x175 JUMPI PUSH1 0x0 DUP1 REVERT JUMPDEST POP GAS STATICCALL ISZERO DUP1 ISZERO PUSH3 0x18A JUMPI RETURNDATASIZE PUSH1 0x0 DUP1 RETURNDATACOPY RETURNDATASIZE PUSH1 0x0 REVERT JUMPDEST POP POP POP POP PUSH1 0x40 MLOAD RETURNDATASIZE PUSH1 0x1F NOT PUSH1 0x1F DUP3 ADD AND DUP3 ADD DUP1 PUSH1 0x40 MSTORE POP DUP2 ADD SWAP1 PUSH3 0x1B0 SWAP2 SWAP1 PUSH3 0x282 JUMP JUMPDEST PUSH1 0xFF AND SWAP1 POP DUP1 PUSH3 0x1E4 JUMPI PUSH1 0x40 MLOAD PUSH4 0xFE3C0129 PUSH1 0xE0 SHL DUP2 MSTORE PUSH1 0x1 PUSH1 0x1 PUSH1 0xA0 SHL SUB DUP5 AND PUSH1 0x4 DUP3 ADD MSTORE PUSH1 0x24 ADD JUMPDEST PUSH1 0x40 MLOAD DUP1 SWAP2 SUB SWAP1 REVERT JUMPDEST PUSH1 0x12 DUP2 GT ISZERO PUSH3 0x21A JUMPI PUSH1 0x40 MLOAD PUSH4 0x96434C7F PUSH1 0xE0 SHL DUP2 MSTORE PUSH1 0x1 PUSH1 0x1 PUSH1 0xA0 SHL SUB DUP5 AND PUSH1 0x4 DUP3 ADD MSTORE PUSH1 0x24 DUP2 ADD DUP3 SWAP1 MSTORE PUSH1 0x44 ADD PUSH3 0x1DB JUMP JUMPDEST PUSH1 0x1 PUSH1 0x1 PUSH1 0xA0 SHL SUB SWAP1 SWAP3 AND PUSH1 0x0 SWAP1 DUP2 MSTORE PUSH1 0x1 PUSH1 0x20 MSTORE PUSH1 0x40 SWAP1 KECCAK256 PUSH1 0x12 SWAP3 SWAP1 SWAP3 SUB PUSH1 0xA EXP SWAP2 DUP3 SWAP1 SSTORE POP SWAP1 JUMP JUMPDEST PUSH1 0x0 DUP1 PUSH1 0x40 DUP4 DUP6 SUB SLT ISZERO PUSH3 0x257 JUMPI DUP2 DUP3 REVERT JUMPDEST DUP3 MLOAD PUSH3 0x264 DUP2 PUSH3 0x2AC JUMP JUMPDEST PUSH1 0x20 DUP5 ADD MLOAD SWAP1 SWAP3 POP PUSH3 0x277 DUP2 PUSH3 0x2AC JUMP JUMPDEST DUP1 SWAP2 POP POP SWAP3 POP SWAP3 SWAP1 POP JUMP JUMPDEST PUSH1 0x0 PUSH1 0x20 DUP3 DUP5 SUB SLT ISZERO PUSH3 0x294 JUMPI DUP1 DUP2 REVERT JUMPDEST DUP2 MLOAD PUSH1 0xFF DUP2 AND DUP2 EQ PUSH3 0x2A5 JUMPI DUP2 DUP3 REVERT JUMPDEST SWAP4 SWAP3 POP POP POP JUMP JUMPDEST PUSH1 0x1 PUSH1 0x1 PUSH1 0xA0 SHL SUB DUP2 AND DUP2 EQ PUSH3 0x2C2 JUMPI PUSH1 0x0 DUP1 REVERT JUMPDEST POP JUMP JUMPDEST PUSH1 0x80 MLOAD PUSH1 0x60 SHR PUSH1 0xA0 MLOAD PUSH1 0xF8 SHR PUSH1 0xC0 MLOAD PUSH1 0x60 SHR PUSH2 0x22FA PUSH3 0x336 PUSH1 0x0 CODECOPY PUSH1 0x0 DUP2 DUP2 PUSH2 0x20F ADD MSTORE DUP2 DUP2 PUSH2 0x6BC ADD MSTORE DUP2 DUP2 PUSH2 0x758 ADD MSTORE DUP2 DUP2 PUSH2 0x9AE ADD MSTORE DUP2 DUP2 PUSH2 0xA6E ADD MSTORE PUSH2 0x1052 ADD MSTORE PUSH1 0x0 DUP2 DUP2 PUSH2 0x182 ADD MSTORE DUP2 DUP2 PUSH2 0x7AC ADD MSTORE DUP2 DUP2 PUSH2 0xA9A ADD MSTORE PUSH2 0xAE6 ADD MSTORE PUSH1 0x0 PUSH2 0x368 ADD MSTORE PUSH2 0x22FA PUSH1 0x0 RETURN INVALID PUSH1 0x80 PUSH1 0x40 MSTORE CALLVALUE DUP1 ISZERO PUSH2 0x10 JUMPI PUSH1 0x0 DUP1 REVERT JUMPDEST POP PUSH1 0x4 CALLDATASIZE LT PUSH2 0xF1 JUMPI PUSH1 0x0 CALLDATALOAD PUSH1 0xE0 SHR DUP1 PUSH4 0x6FDDE03 EQ PUSH2 0xF6 JUMPI DUP1 PUSH4 0x17E5A1A1 EQ PUSH2 0x114 JUMPI DUP1 PUSH4 0x193D1DA9 EQ PUSH2 0x135 JUMPI DUP1 PUSH4 0x26782247 EQ PUSH2 0x15D JUMPI DUP1 PUSH4 0x313CE567 EQ PUSH2 0x17D JUMPI DUP1 PUSH4 0x51FCBA9D EQ PUSH2 0x1B6 JUMPI DUP1 PUSH4 0x54FD4D50 EQ PUSH2 0x1CB JUMPI DUP1 PUSH4 0x62BBB6E0 EQ PUSH2 0x1EF JUMPI DUP1 PUSH4 0x65C9B257 EQ PUSH2 0x1F7 JUMPI DUP1 PUSH4 0x8EB6F8F0 EQ PUSH2 0x20A JUMPI DUP1 PUSH4 0x8FD1C213 EQ PUSH2 0x231 JUMPI DUP1 PUSH4 0x95D89B41 EQ PUSH2 0x244 JUMPI DUP1 PUSH4 0xBA3941E7 EQ PUSH2 0x26C JUMPI DUP1 PUSH4 0xCADBCC21 EQ PUSH2 0x283 JUMPI DUP1 PUSH4 0xD02C70E8 EQ PUSH2 0x28B JUMPI DUP1 PUSH4 0xE6A69AB8 EQ PUSH2 0x29E JUMPI DUP1 PUSH4 0xF0AC40C4 EQ PUSH2 0x2A9 JUMPI DUP1 PUSH4 0xF6B9FDFB EQ PUSH2 0x363 JUMPI DUP1 PUSH4 0xF851A440 EQ PUSH2 0x38A JUMPI JUMPDEST PUSH1 0x0 DUP1 REVERT JUMPDEST PUSH2 0xFE PUSH2 0x39D JUMP JUMPDEST PUSH1 0x40 MLOAD PUSH2 0x10B SWAP2 SWAP1 PUSH2 0x20A2 JUMP JUMPDEST PUSH1 0x40 MLOAD DUP1 SWAP2 SUB SWAP1 RETURN JUMPDEST PUSH2 0x127 PUSH2 0x122 CALLDATASIZE PUSH1 0x4 PUSH2 0x1EE4 JUMP JUMPDEST PUSH2 0x3B9 JUMP JUMPDEST PUSH1 0x40 MLOAD SWAP1 DUP2 MSTORE PUSH1 0x20 ADD PUSH2 0x10B JUMP JUMPDEST PUSH2 0x148 PUSH2 0x143 CALLDATASIZE PUSH1 0x4 PUSH2 0x1EE4 JUMP JUMPDEST PUSH2 0x807 JUMP JUMPDEST PUSH1 0x40 DUP1 MLOAD SWAP3 DUP4 MSTORE PUSH1 0x20 DUP4 ADD SWAP2 SWAP1 SWAP2 MSTORE ADD PUSH2 0x10B JUMP JUMPDEST PUSH1 0x5 SLOAD PUSH2 0x170 SWAP1 PUSH1 0x1 PUSH1 0x1 PUSH1 0xA0 SHL SUB AND DUP2 JUMP JUMPDEST PUSH1 0x40 MLOAD PUSH2 0x10B SWAP2 SWAP1 PUSH2 0x2074 JUMP JUMPDEST PUSH2 0x1A4 PUSH32 0x0 DUP2 JUMP JUMPDEST PUSH1 0x40 MLOAD PUSH1 0xFF SWAP1 SWAP2 AND DUP2 MSTORE PUSH1 0x20 ADD PUSH2 0x10B JUMP JUMPDEST PUSH2 0x1C9 PUSH2 0x1C4 CALLDATASIZE PUSH1 0x4 PUSH2 0x1F1C JUMP JUMPDEST PUSH2 0xB39 JUMP JUMPDEST STOP JUMPDEST PUSH2 0xFE PUSH1 0x40 MLOAD DUP1 PUSH1 0x40 ADD PUSH1 0x40 MSTORE DUP1 PUSH1 0x5 DUP2 MSTORE PUSH1 0x20 ADD PUSH5 0x312E302E3 PUSH1 0xDC SHL DUP2 MSTORE POP DUP2 JUMP JUMPDEST PUSH2 0x1C9 PUSH2 0xE3E JUMP JUMPDEST PUSH2 0x1C9 PUSH2 0x205 CALLDATASIZE PUSH1 0x4 PUSH2 0x1EE4 JUMP JUMPDEST PUSH2 0xF1F JUMP JUMPDEST PUSH2 0x170 PUSH32 0x0 DUP2 JUMP JUMPDEST PUSH2 0x127 PUSH2 0x23F CALLDATASIZE PUSH1 0x4 PUSH2 0x1FD9 JUMP JUMPDEST PUSH2 0xFDA JUMP JUMPDEST PUSH2 0xFE PUSH1 0x40 MLOAD DUP1 PUSH1 0x40 ADD PUSH1 0x40 MSTORE DUP1 PUSH1 0x9 DUP2 MSTORE PUSH1 0x20 ADD PUSH9 0x4379674E6562756C61 PUSH1 0xB8 SHL DUP2 MSTORE POP DUP2 JUMP JUMPDEST PUSH1 0x3 SLOAD PUSH1 0x40 MLOAD PUSH3 0xFFFFFF SWAP1 SWAP2 AND DUP2 MSTORE PUSH1 0x20 ADD PUSH2 0x10B JUMP JUMPDEST PUSH2 0x127 PUSH2 0x104D JUMP JUMPDEST PUSH2 0x170 PUSH2 0x299 CALLDATASIZE PUSH1 0x4 PUSH2 0x1FA9 JUMP JUMPDEST PUSH2 0x10EC JUMP JUMPDEST PUSH2 0x127 PUSH4 0x1E13380 DUP2 JUMP JUMPDEST PUSH2 0x314 PUSH2 0x2B7 CALLDATASIZE PUSH1 0x4 PUSH2 0x1EE4 JUMP JUMPDEST PUSH1 0x2 PUSH1 0x20 DUP2 SWAP1 MSTORE PUSH1 0x0 SWAP2 DUP3 MSTORE PUSH1 0x40 SWAP1 SWAP2 KECCAK256 DUP1 SLOAD PUSH1 0x1 DUP3 ADD SLOAD SWAP3 DUP3 ADD SLOAD PUSH1 0x3 DUP4 ADD SLOAD PUSH1 0x4 SWAP1 SWAP4 ADD SLOAD PUSH1 0xFF DUP4 AND SWAP5 PUSH1 0x1 PUSH1 0x1 PUSH1 0x58 SHL SUB PUSH2 0x100 DUP6 DIV AND SWAP5 PUSH1 0x1 PUSH1 0x1 PUSH1 0xA0 SHL SUB PUSH1 0x1 PUSH1 0x60 SHL SWAP1 SWAP6 DIV DUP6 AND SWAP5 SWAP2 DUP3 AND SWAP4 DUP3 AND SWAP3 SWAP1 DUP3 AND SWAP2 AND DUP8 JUMP JUMPDEST PUSH1 0x40 DUP1 MLOAD SWAP8 ISZERO ISZERO DUP9 MSTORE PUSH1 0x1 PUSH1 0x1 PUSH1 0x58 SHL SUB SWAP1 SWAP7 AND PUSH1 0x20 DUP9 ADD MSTORE PUSH1 0x1 PUSH1 0x1 PUSH1 0xA0 SHL SUB SWAP5 DUP6 AND SWAP6 DUP8 ADD SWAP6 SWAP1 SWAP6 MSTORE SWAP2 DUP4 AND PUSH1 0x60 DUP7 ADD MSTORE DUP3 AND PUSH1 0x80 DUP6 ADD MSTORE DUP2 AND PUSH1 0xA0 DUP5 ADD MSTORE AND PUSH1 0xC0 DUP3 ADD MSTORE PUSH1 0xE0 ADD PUSH2 0x10B JUMP JUMPDEST PUSH2 0x170 PUSH32 0x0 DUP2 JUMP JUMPDEST PUSH1 0x4 SLOAD PUSH2 0x170 SWAP1 PUSH1 0x1 PUSH1 0x1 PUSH1 0xA0 SHL SUB AND DUP2 JUMP JUMPDEST PUSH1 0x40 MLOAD DUP1 PUSH1 0x60 ADD PUSH1 0x40 MSTORE DUP1 PUSH1 0x22 DUP2 MSTORE PUSH1 0x20 ADD PUSH2 0x22A3 PUSH1 0x22 SWAP2 CODECOPY DUP2 JUMP JUMPDEST PUSH1 0x1 PUSH1 0x1 PUSH1 0xA0 SHL SUB DUP1 DUP3 AND PUSH1 0x0 SWAP1 DUP2 MSTORE PUSH1 0x2 PUSH1 0x20 DUP2 DUP2 MSTORE PUSH1 0x40 DUP1 DUP5 KECCAK256 DUP2 MLOAD PUSH1 0xE0 DUP2 ADD DUP4 MSTORE DUP2 SLOAD PUSH1 0xFF DUP2 AND ISZERO ISZERO DUP1 DUP4 MSTORE PUSH1 0x1 PUSH1 0x1 PUSH1 0x58 SHL SUB PUSH2 0x100 DUP4 DIV AND SWAP6 DUP4 ADD SWAP6 SWAP1 SWAP6 MSTORE PUSH1 0x1 PUSH1 0x60 SHL SWAP1 DIV DUP8 AND SWAP3 DUP2 ADD SWAP3 SWAP1 SWAP3 MSTORE PUSH1 0x1 DUP2 ADD SLOAD DUP7 AND PUSH1 0x60 DUP4 ADD MSTORE SWAP3 DUP4 ADD SLOAD DUP6 AND PUSH1 0x80 DUP3 ADD MSTORE PUSH1 0x3 DUP4 ADD SLOAD DUP6 AND PUSH1 0xA0 DUP3 ADD MSTORE PUSH1 0x4 SWAP1 SWAP3 ADD SLOAD SWAP1 SWAP4 AND PUSH1 0xC0 DUP3 ADD MSTORE SWAP1 SWAP2 PUSH2 0x468 JUMPI DUP3 PUSH1 0x40 MLOAD PUSH4 0xFB642B4D PUSH1 0xE0 SHL DUP2 MSTORE PUSH1 0x4 ADD PUSH2 0x45F SWAP2 SWAP1 PUSH2 0x2074 JUMP JUMPDEST PUSH1 0x40 MLOAD DUP1 SWAP2 SUB SWAP1 REVERT JUMPDEST PUSH1 0x0 DUP1 DUP5 PUSH1 0x1 PUSH1 0x1 PUSH1 0xA0 SHL SUB AND PUSH4 0x902F1AC PUSH1 0x40 MLOAD DUP2 PUSH4 0xFFFFFFFF AND PUSH1 0xE0 SHL DUP2 MSTORE PUSH1 0x4 ADD PUSH1 0x60 PUSH1 0x40 MLOAD DUP1 DUP4 SUB DUP2 DUP7 DUP1 EXTCODESIZE ISZERO DUP1 ISZERO PUSH2 0x4A4 JUMPI PUSH1 0x0 DUP1 REVERT JUMPDEST POP GAS STATICCALL ISZERO DUP1 ISZERO PUSH2 0x4B8 JUMPI RETURNDATASIZE PUSH1 0x0 DUP1 RETURNDATACOPY RETURNDATASIZE PUSH1 0x0 REVERT JUMPDEST POP POP POP POP PUSH1 0x40 MLOAD RETURNDATASIZE PUSH1 0x1F NOT PUSH1 0x1F DUP3 ADD AND DUP3 ADD DUP1 PUSH1 0x40 MSTORE POP DUP2 ADD SWAP1 PUSH2 0x4DC SWAP2 SWAP1 PUSH2 0x1F66 JUMP JUMPDEST POP SWAP2 POP SWAP2 POP PUSH1 0x0 DUP6 PUSH1 0x1 PUSH1 0x1 PUSH1 0xA0 SHL SUB AND PUSH4 0x18160DDD PUSH1 0x40 MLOAD DUP2 PUSH4 0xFFFFFFFF AND PUSH1 0xE0 SHL DUP2 MSTORE PUSH1 0x4 ADD PUSH1 0x20 PUSH1 0x40 MLOAD DUP1 DUP4 SUB DUP2 DUP7 DUP1 EXTCODESIZE ISZERO DUP1 ISZERO PUSH2 0x51C JUMPI PUSH1 0x0 DUP1 REVERT JUMPDEST POP GAS STATICCALL ISZERO DUP1 ISZERO PUSH2 0x530 JUMPI RETURNDATASIZE PUSH1 0x0 DUP1 RETURNDATACOPY RETURNDATASIZE PUSH1 0x0 REVERT JUMPDEST POP POP POP POP PUSH1 0x40 MLOAD RETURNDATASIZE PUSH1 0x1F NOT PUSH1 0x1F DUP3 ADD AND DUP3 ADD DUP1 PUSH1 0x40 MSTORE POP DUP2 ADD SWAP1 PUSH2 0x554 SWAP2 SWAP1 PUSH2 0x1FC1 JUMP JUMPDEST SWAP1 POP PUSH1 0x0 PUSH2 0x56F DUP6 PUSH1 0x60 ADD MLOAD DUP6 PUSH1 0x1 PUSH1 0x1 PUSH1 0x70 SHL SUB AND PUSH2 0x1116 JUMP JUMPDEST SWAP1 POP PUSH1 0x0 PUSH2 0x58A DUP7 PUSH1 0x80 ADD MLOAD DUP6 PUSH1 0x1 PUSH1 0x1 PUSH1 0x70 SHL SUB AND PUSH2 0x1116 JUMP JUMPDEST SWAP1 POP PUSH1 0x0 PUSH2 0x598 DUP4 DUP4 PUSH2 0x1150 JUMP JUMPDEST SWAP1 POP PUSH1 0x0 DUP8 PUSH1 0xA0 ADD MLOAD PUSH1 0x1 PUSH1 0x1 PUSH1 0xA0 SHL SUB AND PUSH4 0xFEAF968C PUSH1 0x40 MLOAD DUP2 PUSH4 0xFFFFFFFF AND PUSH1 0xE0 SHL DUP2 MSTORE PUSH1 0x4 ADD PUSH1 0xA0 PUSH1 0x40 MLOAD DUP1 DUP4 SUB DUP2 DUP7 DUP1 EXTCODESIZE ISZERO DUP1 ISZERO PUSH2 0x5D9 JUMPI PUSH1 0x0 DUP1 REVERT JUMPDEST POP GAS STATICCALL ISZERO DUP1 ISZERO PUSH2 0x5ED JUMPI RETURNDATASIZE PUSH1 0x0 DUP1 RETURNDATACOPY RETURNDATASIZE PUSH1 0x0 REVERT JUMPDEST POP POP POP POP PUSH1 0x40 MLOAD RETURNDATASIZE PUSH1 0x1F NOT PUSH1 0x1F DUP3 ADD AND DUP3 ADD DUP1 PUSH1 0x40 MSTORE POP DUP2 ADD SWAP1 PUSH2 0x611 SWAP2 SWAP1 PUSH2 0x2004 JUMP JUMPDEST POP POP POP SWAP2 POP POP PUSH1 0x0 DUP9 PUSH1 0xC0 ADD MLOAD PUSH1 0x1 PUSH1 0x1 PUSH1 0xA0 SHL SUB AND PUSH4 0xFEAF968C PUSH1 0x40 MLOAD DUP2 PUSH4 0xFFFFFFFF AND PUSH1 0xE0 SHL DUP2 MSTORE PUSH1 0x4 ADD PUSH1 0xA0 PUSH1 0x40 MLOAD DUP1 DUP4 SUB DUP2 DUP7 DUP1 EXTCODESIZE ISZERO DUP1 ISZERO PUSH2 0x656 JUMPI PUSH1 0x0 DUP1 REVERT JUMPDEST POP GAS STATICCALL ISZERO DUP1 ISZERO PUSH2 0x66A JUMPI RETURNDATASIZE PUSH1 0x0 DUP1 RETURNDATACOPY RETURNDATASIZE PUSH1 0x0 REVERT JUMPDEST POP POP POP POP PUSH1 0x40 MLOAD RETURNDATASIZE PUSH1 0x1F NOT PUSH1 0x1F DUP3 ADD AND DUP3 ADD DUP1 PUSH1 0x40 MSTORE POP DUP2 ADD SWAP1 PUSH2 0x68E SWAP2 SWAP1 PUSH2 0x2004 JUMP JUMPDEST POP POP POP SWAP2 POP POP PUSH1 0x0 PUSH2 0x6A4 DUP11 PUSH1 0xA0 ADD MLOAD DUP5 PUSH2 0x1116 JUMP JUMPDEST SWAP1 POP PUSH1 0x0 PUSH2 0x6B6 DUP12 PUSH1 0xC0 ADD MLOAD DUP5 PUSH2 0x1116 JUMP JUMPDEST SWAP1 POP PUSH1 0x0 PUSH32 0x0 PUSH1 0x1 PUSH1 0x1 PUSH1 0xA0 SHL SUB AND PUSH4 0xFEAF968C PUSH1 0x40 MLOAD DUP2 PUSH4 0xFFFFFFFF AND PUSH1 0xE0 SHL DUP2 MSTORE PUSH1 0x4 ADD PUSH1 0xA0 PUSH1 0x40 MLOAD DUP1 DUP4 SUB DUP2 DUP7 DUP1 EXTCODESIZE ISZERO DUP1 ISZERO PUSH2 0x713 JUMPI PUSH1 0x0 DUP1 REVERT JUMPDEST POP GAS STATICCALL ISZERO DUP1 ISZERO PUSH2 0x727 JUMPI RETURNDATASIZE PUSH1 0x0 DUP1 RETURNDATACOPY RETURNDATASIZE PUSH1 0x0 REVERT JUMPDEST POP POP POP POP PUSH1 0x40 MLOAD RETURNDATASIZE PUSH1 0x1F NOT PUSH1 0x1F DUP3 ADD AND DUP3 ADD DUP1 PUSH1 0x40 MSTORE POP DUP2 ADD SWAP1 PUSH2 0x74B SWAP2 SWAP1 PUSH2 0x2004 JUMP JUMPDEST POP POP POP SWAP2 POP POP PUSH1 0x0 PUSH2 0x77D PUSH32 0x0 DUP4 PUSH2 0x1116 JUMP JUMPDEST SWAP1 POP PUSH1 0x0 PUSH2 0x78B DUP6 DUP6 PUSH2 0x1150 JUMP JUMPDEST SWAP1 POP PUSH1 0x0 PUSH2 0x79A DUP10 DUP4 DUP15 PUSH2 0x11B7 JUMP JUMPDEST PUSH2 0x7A5 SWAP1 PUSH1 0x2 PUSH2 0x221B JUMP JUMPDEST SWAP1 POP PUSH2 0x7D2 PUSH32 0x0 PUSH1 0x12 PUSH2 0x2251 JUMP JUMPDEST PUSH2 0x7DD SWAP1 PUSH1 0xA PUSH2 0x2170 JUMP JUMPDEST PUSH2 0x7E7 DUP3 DUP6 PUSH2 0x1293 JUMP JUMPDEST PUSH2 0x7F1 SWAP2 SWAP1 PUSH2 0x210D JUMP JUMPDEST SWAP16 POP POP POP POP POP POP POP POP POP POP POP POP POP POP POP POP SWAP2 SWAP1 POP JUMP JUMPDEST PUSH1 0x1 PUSH1 0x1 PUSH1 0xA0 SHL SUB DUP1 DUP3 AND PUSH1 0x0 SWAP1 DUP2 MSTORE PUSH1 0x2 PUSH1 0x20 DUP2 DUP2 MSTORE PUSH1 0x40 DUP1 DUP5 KECCAK256 DUP2 MLOAD PUSH1 0xE0 DUP2 ADD DUP4 MSTORE DUP2 SLOAD PUSH1 0xFF DUP2 AND ISZERO ISZERO DUP1 DUP4 MSTORE PUSH1 0x1 PUSH1 0x1 PUSH1 0x58 SHL SUB PUSH2 0x100 DUP4 DIV AND SWAP6 DUP4 ADD SWAP6 SWAP1 SWAP6 MSTORE PUSH1 0x1 PUSH1 0x60 SHL SWAP1 DIV DUP8 AND SWAP3 DUP2 ADD SWAP3 SWAP1 SWAP3 MSTORE PUSH1 0x1 DUP2 ADD SLOAD DUP7 AND PUSH1 0x60 DUP4 ADD MSTORE SWAP3 DUP4 ADD SLOAD DUP6 AND PUSH1 0x80 DUP3 ADD MSTORE PUSH1 0x3 DUP4 ADD SLOAD DUP6 AND PUSH1 0xA0 DUP3 ADD MSTORE PUSH1 0x4 SWAP1 SWAP3 ADD SLOAD SWAP1 SWAP4 AND PUSH1 0xC0 DUP3 ADD MSTORE SWAP1 SWAP2 DUP3 SWAP2 SWAP1 PUSH2 0x8B0 JUMPI DUP4 PUSH1 0x40 MLOAD PUSH4 0xFB642B4D PUSH1 0xE0 SHL DUP2 MSTORE PUSH1 0x4 ADD PUSH2 0x45F SWAP2 SWAP1 PUSH2 0x2074 JUMP JUMPDEST PUSH1 0x0 DUP2 PUSH1 0xA0 ADD MLOAD PUSH1 0x1 PUSH1 0x1 PUSH1 0xA0 SHL SUB AND PUSH4 0xFEAF968C PUSH1 0x40 MLOAD DUP2 PUSH4 0xFFFFFFFF AND PUSH1 0xE0 SHL DUP2 MSTORE PUSH1 0x4 ADD PUSH1 0xA0 PUSH1 0x40 MLOAD DUP1 DUP4 SUB DUP2 DUP7 DUP1 EXTCODESIZE ISZERO DUP1 ISZERO PUSH2 0x8EF JUMPI PUSH1 0x0 DUP1 REVERT JUMPDEST POP GAS STATICCALL ISZERO DUP1 ISZERO PUSH2 0x903 JUMPI RETURNDATASIZE PUSH1 0x0 DUP1 RETURNDATACOPY RETURNDATASIZE PUSH1 0x0 REVERT JUMPDEST POP POP POP POP PUSH1 0x40 MLOAD RETURNDATASIZE PUSH1 0x1F NOT PUSH1 0x1F DUP3 ADD AND DUP3 ADD DUP1 PUSH1 0x40 MSTORE POP DUP2 ADD SWAP1 PUSH2 0x927 SWAP2 SWAP1 PUSH2 0x2004 JUMP JUMPDEST POP POP POP SWAP2 POP POP PUSH1 0x0 DUP3 PUSH1 0xC0 ADD MLOAD PUSH1 0x1 PUSH1 0x1 PUSH1 0xA0 SHL SUB AND PUSH4 0xFEAF968C PUSH1 0x40 MLOAD DUP2 PUSH4 0xFFFFFFFF AND PUSH1 0xE0 SHL DUP2 MSTORE PUSH1 0x4 ADD PUSH1 0xA0 PUSH1 0x40 MLOAD DUP1 DUP4 SUB DUP2 DUP7 DUP1 EXTCODESIZE ISZERO DUP1 ISZERO PUSH2 0x96C JUMPI PUSH1 0x0 DUP1 REVERT JUMPDEST POP GAS STATICCALL ISZERO DUP1 ISZERO PUSH2 0x980 JUMPI RETURNDATASIZE PUSH1 0x0 DUP1 RETURNDATACOPY RETURNDATASIZE PUSH1 0x0 REVERT JUMPDEST POP POP POP POP PUSH1 0x40 MLOAD RETURNDATASIZE PUSH1 0x1F NOT PUSH1 0x1F DUP3 ADD AND DUP3 ADD DUP1 PUSH1 0x40 MSTORE POP DUP2 ADD SWAP1 PUSH2 0x9A4 SWAP2 SWAP1 PUSH2 0x2004 JUMP JUMPDEST POP POP POP SWAP2 POP POP PUSH1 0x0 PUSH32 0x0 PUSH1 0x1 PUSH1 0x1 PUSH1 0xA0 SHL SUB AND PUSH4 0xFEAF968C PUSH1 0x40 MLOAD DUP2 PUSH4 0xFFFFFFFF AND PUSH1 0xE0 SHL DUP2 MSTORE PUSH1 0x4 ADD PUSH1 0xA0 PUSH1 0x40 MLOAD DUP1 DUP4 SUB DUP2 DUP7 DUP1 EXTCODESIZE ISZERO DUP1 ISZERO PUSH2 0xA05 JUMPI PUSH1 0x0 DUP1 REVERT JUMPDEST POP GAS STATICCALL ISZERO DUP1 ISZERO PUSH2 0xA19 JUMPI RETURNDATASIZE PUSH1 0x0 DUP1 RETURNDATACOPY RETURNDATASIZE PUSH1 0x0 REVERT JUMPDEST POP POP POP POP PUSH1 0x40 MLOAD RETURNDATASIZE PUSH1 0x1F NOT PUSH1 0x1F DUP3 ADD AND DUP3 ADD DUP1 PUSH1 0x40 MSTORE POP DUP2 ADD SWAP1 PUSH2 0xA3D SWAP2 SWAP1 PUSH2 0x2004 JUMP JUMPDEST POP POP POP SWAP2 POP POP PUSH1 0x0 PUSH2 0xA53 DUP6 PUSH1 0xA0 ADD MLOAD DUP6 PUSH2 0x1116 JUMP JUMPDEST SWAP1 POP PUSH1 0x0 PUSH2 0xA65 DUP7 PUSH1 0xC0 ADD MLOAD DUP6 PUSH2 0x1116 JUMP JUMPDEST SWAP1 POP PUSH1 0x0 PUSH2 0xA93 PUSH32 0x0 DUP6 PUSH2 0x1116 JUMP JUMPDEST SWAP1 POP PUSH2 0xAC0 PUSH32 0x0 PUSH1 0x12 PUSH2 0x2251 JUMP JUMPDEST PUSH2 0xACB SWAP1 PUSH1 0xA PUSH2 0x2170 JUMP JUMPDEST PUSH2 0xAD5 DUP5 DUP4 PUSH2 0x1293 JUMP JUMPDEST PUSH2 0xADF SWAP2 SWAP1 PUSH2 0x210D JUMP JUMPDEST SWAP9 POP PUSH2 0xB0C PUSH32 0x0 PUSH1 0x12 PUSH2 0x2251 JUMP JUMPDEST PUSH2 0xB17 SWAP1 PUSH1 0xA PUSH2 0x2170 JUMP JUMPDEST PUSH2 0xB21 DUP4 DUP4 PUSH2 0x1293 JUMP JUMPDEST PUSH2 0xB2B SWAP2 SWAP1 PUSH2 0x210D JUMP JUMPDEST SWAP8 POP POP POP POP POP POP POP POP SWAP2 POP SWAP2 JUMP JUMPDEST PUSH1 0x0 SLOAD PUSH1 0xFF AND PUSH2 0xB5C JUMPI PUSH1 0x40 MLOAD PUSH4 0x6FDA65D PUSH1 0xE3 SHL DUP2 MSTORE PUSH1 0x4 ADD PUSH1 0x40 MLOAD DUP1 SWAP2 SUB SWAP1 REVERT JUMPDEST PUSH1 0x0 DUP1 SLOAD PUSH1 0xFF NOT AND SWAP1 SSTORE PUSH2 0xB6E PUSH2 0x12A8 JUMP JUMPDEST PUSH1 0x1 PUSH1 0x1 PUSH1 0xA0 SHL SUB DUP4 AND PUSH1 0x0 SWAP1 DUP2 MSTORE PUSH1 0x2 PUSH1 0x20 MSTORE PUSH1 0x40 SWAP1 KECCAK256 DUP1 SLOAD PUSH1 0xFF AND ISZERO PUSH2 0xBAB JUMPI DUP4 PUSH1 0x40 MLOAD PUSH4 0x122A5E77 PUSH1 0xE2 SHL DUP2 MSTORE PUSH1 0x4 ADD PUSH2 0x45F SWAP2 SWAP1 PUSH2 0x2074 JUMP JUMPDEST PUSH1 0x3 SLOAD DUP2 SLOAD PUSH1 0xFF AND PUSH3 0xFFFFFF SWAP2 SWAP1 SWAP2 AND PUSH2 0x100 MUL PUSH1 0x1 PUSH1 0x1 PUSH1 0x60 SHL SUB AND OR PUSH1 0x1 PUSH1 0x60 SHL PUSH1 0x1 PUSH1 0x1 PUSH1 0xA0 SHL SUB DUP7 AND SWAP1 DUP2 MUL SWAP2 SWAP1 SWAP2 OR DUP3 SSTORE PUSH1 0x40 DUP1 MLOAD PUSH4 0xDFE1681 PUSH1 0xE0 SHL DUP2 MSTORE SWAP1 MLOAD PUSH4 0xDFE1681 SWAP2 PUSH1 0x4 DUP1 DUP3 ADD SWAP3 PUSH1 0x20 SWAP3 SWAP1 SWAP2 SWAP1 DUP3 SWAP1 SUB ADD DUP2 DUP7 DUP1 EXTCODESIZE ISZERO DUP1 ISZERO PUSH2 0xC17 JUMPI PUSH1 0x0 DUP1 REVERT JUMPDEST POP GAS STATICCALL ISZERO DUP1 ISZERO PUSH2 0xC2B JUMPI RETURNDATASIZE PUSH1 0x0 DUP1 RETURNDATACOPY RETURNDATASIZE PUSH1 0x0 REVERT JUMPDEST POP POP POP POP PUSH1 0x40 MLOAD RETURNDATASIZE PUSH1 0x1F NOT PUSH1 0x1F DUP3 ADD AND DUP3 ADD DUP1 PUSH1 0x40 MSTORE POP DUP2 ADD SWAP1 PUSH2 0xC4F SWAP2 SWAP1 PUSH2 0x1F00 JUMP JUMPDEST DUP2 PUSH1 0x1 ADD PUSH1 0x0 PUSH2 0x100 EXP DUP2 SLOAD DUP2 PUSH1 0x1 PUSH1 0x1 PUSH1 0xA0 SHL SUB MUL NOT AND SWAP1 DUP4 PUSH1 0x1 PUSH1 0x1 PUSH1 0xA0 SHL SUB AND MUL OR SWAP1 SSTORE POP DUP4 PUSH1 0x1 PUSH1 0x1 PUSH1 0xA0 SHL SUB AND PUSH4 0xD21220A7 PUSH1 0x40 MLOAD DUP2 PUSH4 0xFFFFFFFF AND PUSH1 0xE0 SHL DUP2 MSTORE PUSH1 0x4 ADD PUSH1 0x20 PUSH1 0x40 MLOAD DUP1 DUP4 SUB DUP2 DUP7 DUP1 EXTCODESIZE ISZERO DUP1 ISZERO PUSH2 0xCB0 JUMPI PUSH1 0x0 DUP1 REVERT JUMPDEST POP GAS STATICCALL ISZERO DUP1 ISZERO PUSH2 0xCC4 JUMPI RETURNDATASIZE PUSH1 0x0 DUP1 RETURNDATACOPY RETURNDATASIZE PUSH1 0x0 REVERT JUMPDEST POP POP POP POP PUSH1 0x40 MLOAD RETURNDATASIZE PUSH1 0x1F NOT PUSH1 0x1F DUP3 ADD AND DUP3 ADD DUP1 PUSH1 0x40 MSTORE POP DUP2 ADD SWAP1 PUSH2 0xCE8 SWAP2 SWAP1 PUSH2 0x1F00 JUMP JUMPDEST PUSH1 0x2 DUP3 ADD DUP1 SLOAD PUSH1 0x1 PUSH1 0x1 PUSH1 0xA0 SHL SUB NOT AND PUSH1 0x1 PUSH1 0x1 PUSH1 0xA0 SHL SUB SWAP3 DUP4 AND OR SWAP1 SSTORE PUSH1 0x1 DUP3 ADD SLOAD PUSH2 0xD15 SWAP2 AND PUSH2 0x12E0 JUMP JUMPDEST POP PUSH1 0x2 DUP2 ADD SLOAD PUSH2 0xD2D SWAP1 PUSH1 0x1 PUSH1 0x1 PUSH1 0xA0 SHL SUB AND PUSH2 0x12E0 JUMP JUMPDEST POP PUSH1 0x3 DUP2 ADD DUP1 SLOAD PUSH1 0x1 PUSH1 0x1 PUSH1 0xA0 SHL SUB DUP1 DUP7 AND PUSH1 0x1 PUSH1 0x1 PUSH1 0xA0 SHL SUB NOT SWAP3 DUP4 AND OR SWAP1 SWAP3 SSTORE PUSH1 0x4 DUP4 ADD DUP1 SLOAD SWAP3 DUP6 AND SWAP3 SWAP1 SWAP2 AND SWAP2 SWAP1 SWAP2 OR SWAP1 SSTORE PUSH2 0xD6B DUP4 PUSH2 0x12E0 JUMP JUMPDEST POP PUSH2 0xD75 DUP3 PUSH2 0x12E0 JUMP JUMPDEST POP PUSH1 0x3 DUP1 SLOAD PUSH1 0x1 DUP1 DUP3 ADD DUP4 SSTORE PUSH1 0x0 SWAP3 SWAP1 SWAP3 MSTORE PUSH32 0xC2575A0E9E593C00F959F8C92F12DB2869C3395A3B0502D05E2516446F71F85B ADD DUP1 SLOAD PUSH1 0x1 PUSH1 0x1 PUSH1 0xA0 SHL SUB NOT AND PUSH1 0x1 PUSH1 0x1 PUSH1 0xA0 SHL SUB DUP8 DUP2 AND SWAP2 DUP3 OR SWAP1 SWAP3 SSTORE DUP4 SLOAD PUSH1 0xFF NOT AND DUP4 OR DUP1 DUP6 SSTORE PUSH1 0x40 DUP1 MLOAD SWAP5 DUP6 MSTORE PUSH2 0x100 SWAP1 SWAP2 DIV PUSH1 0x1 PUSH1 0x1 PUSH1 0x58 SHL SUB AND PUSH1 0x20 DUP6 ADD MSTORE DUP4 ADD MSTORE DUP5 DUP2 AND PUSH1 0x60 DUP4 ADD MSTORE DUP4 AND PUSH1 0x80 DUP3 ADD MSTORE PUSH32 0xA9C1A243C663BEA93D8B6C5D7850083FD601A6719A17F6E8EB16E89860E25855 SWAP1 PUSH1 0xA0 ADD PUSH1 0x40 MLOAD DUP1 SWAP2 SUB SWAP1 LOG1 POP POP PUSH1 0x0 DUP1 SLOAD PUSH1 0xFF NOT AND PUSH1 0x1 OR SWAP1 SSTORE POP POP JUMP JUMPDEST PUSH1 0x0 SLOAD PUSH1 0xFF AND PUSH2 0xE61 JUMPI PUSH1 0x40 MLOAD PUSH4 0x6FDA65D PUSH1 0xE3 SHL DUP2 MSTORE PUSH1 0x4 ADD PUSH1 0x40 MLOAD DUP1 SWAP2 SUB SWAP1 REVERT JUMPDEST PUSH1 0x0 DUP1 SLOAD PUSH1 0xFF NOT AND SWAP1 SSTORE PUSH2 0xE73 PUSH2 0x12A8 JUMP JUMPDEST PUSH1 0x5 SLOAD PUSH1 0x1 PUSH1 0x1 PUSH1 0xA0 SHL SUB AND PUSH2 0xEA9 JUMPI PUSH1 0x5 SLOAD PUSH1 0x40 MLOAD PUSH4 0xB9648817 PUSH1 0xE0 SHL DUP2 MSTORE PUSH2 0x45F SWAP2 PUSH1 0x1 PUSH1 0x1 PUSH1 0xA0 SHL SUB AND SWAP1 PUSH1 0x4 ADD PUSH2 0x2074 JUMP JUMPDEST PUSH1 0x4 DUP1 SLOAD PUSH1 0x5 DUP1 SLOAD PUSH1 0x1 PUSH1 0x1 PUSH1 0xA0 SHL SUB DUP1 DUP3 AND PUSH1 0x1 PUSH1 0x1 PUSH1 0xA0 SHL SUB NOT DUP1 DUP7 AND DUP3 OR SWAP1 SWAP7 SSTORE SWAP5 SWAP1 SWAP2 AND SWAP1 SWAP2 SSTORE PUSH1 0x40 MLOAD SWAP2 AND SWAP2 PUSH32 0x5D79527E1742E3CB9A668B777100775A1648A5A8ADEA9C578D164DD2D0908AAC SWAP2 PUSH2 0xF07 SWAP2 DUP5 SWAP2 PUSH2 0x2088 JUMP JUMPDEST PUSH1 0x40 MLOAD DUP1 SWAP2 SUB SWAP1 LOG1 POP PUSH1 0x0 DUP1 SLOAD PUSH1 0xFF NOT AND PUSH1 0x1 OR SWAP1 SSTORE JUMP JUMPDEST PUSH1 0x0 SLOAD PUSH1 0xFF AND PUSH2 0xF42 JUMPI PUSH1 0x40 MLOAD PUSH4 0x6FDA65D PUSH1 0xE3 SHL DUP2 MSTORE PUSH1 0x4 ADD PUSH1 0x40 MLOAD DUP1 SWAP2 SUB SWAP1 REVERT JUMPDEST PUSH1 0x0 DUP1 SLOAD PUSH1 0xFF NOT AND SWAP1 SSTORE PUSH2 0xF54 PUSH2 0x12A8 JUMP JUMPDEST PUSH1 0x5 SLOAD PUSH1 0x1 PUSH1 0x1 PUSH1 0xA0 SHL SUB DUP3 DUP2 AND SWAP2 AND EQ ISZERO PUSH2 0xF85 JUMPI DUP1 PUSH1 0x40 MLOAD PUSH4 0x18C0EFA9 PUSH1 0xE1 SHL DUP2 MSTORE PUSH1 0x4 ADD PUSH2 0x45F SWAP2 SWAP1 PUSH2 0x2074 JUMP JUMPDEST PUSH1 0x5 DUP1 SLOAD PUSH1 0x1 PUSH1 0x1 PUSH1 0xA0 SHL SUB NOT AND PUSH1 0x1 PUSH1 0x1 PUSH1 0xA0 SHL SUB DUP4 DUP2 AND SWAP2 SWAP1 SWAP2 OR SWAP1 SWAP2 SSTORE PUSH1 0x4 SLOAD PUSH1 0x40 MLOAD PUSH32 0xDDC205EECBCB9FD6100D787269A63285115C1E35297B5CD128AA171376B7622 SWAP3 PUSH2 0xF07 SWAP3 AND SWAP1 DUP5 SWAP1 PUSH2 0x2088 JUMP JUMPDEST PUSH1 0x0 DUP1 PUSH2 0xFE6 DUP6 PUSH2 0x13D7 JUMP JUMPDEST SWAP1 POP PUSH1 0x0 PUSH2 0xFF3 DUP6 PUSH2 0x13D7 JUMP JUMPDEST SWAP1 POP PUSH1 0x0 PUSH2 0x1001 DUP4 DUP4 PUSH2 0x223A JUMP JUMPDEST SWAP1 POP PUSH1 0x0 DUP6 PUSH2 0x1014 PUSH4 0x1E13380 DUP5 PUSH2 0x221B JUMP JUMPDEST PUSH2 0x101E SWAP2 SWAP1 PUSH2 0x210D JUMP JUMPDEST SWAP1 POP PUSH1 0x0 PUSH8 0xDE0B6B3A7640000 PUSH2 0x1034 DUP4 PUSH2 0x1417 JUMP JUMPDEST PUSH2 0x103E SWAP2 SWAP1 PUSH2 0x223A JUMP JUMPDEST SWAP6 POP POP POP POP POP POP JUMPDEST SWAP4 SWAP3 POP POP POP JUMP JUMPDEST PUSH1 0x0 DUP1 PUSH32 0x0 PUSH1 0x1 PUSH1 0x1 PUSH1 0xA0 SHL SUB AND PUSH4 0xFEAF968C PUSH1 0x40 MLOAD DUP2 PUSH4 0xFFFFFFFF AND PUSH1 0xE0 SHL DUP2 MSTORE PUSH1 0x4 ADD PUSH1 0xA0 PUSH1 0x40 MLOAD DUP1 DUP4 SUB DUP2 DUP7 DUP1 EXTCODESIZE ISZERO DUP1 ISZERO PUSH2 0x10A9 JUMPI PUSH1 0x0 DUP1 REVERT JUMPDEST POP GAS STATICCALL ISZERO DUP1 ISZERO PUSH2 0x10BD JUMPI RETURNDATASIZE PUSH1 0x0 DUP1 RETURNDATACOPY RETURNDATASIZE PUSH1 0x0 REVERT JUMPDEST POP POP POP POP PUSH1 0x40 MLOAD RETURNDATASIZE PUSH1 0x1F NOT PUSH1 0x1F DUP3 ADD AND DUP3 ADD DUP1 PUSH1 0x40 MSTORE POP DUP2 ADD SWAP1 PUSH2 0x10E1 SWAP2 SWAP1 PUSH2 0x2004 JUMP JUMPDEST POP SWAP2 SWAP6 SWAP5 POP POP POP POP POP JUMP JUMPDEST PUSH1 0x3 DUP2 DUP2 SLOAD DUP2 LT PUSH2 0x10FC JUMPI PUSH1 0x0 DUP1 REVERT JUMPDEST PUSH1 0x0 SWAP2 DUP3 MSTORE PUSH1 0x20 SWAP1 SWAP2 KECCAK256 ADD SLOAD PUSH1 0x1 PUSH1 0x1 PUSH1 0xA0 SHL SUB AND SWAP1 POP DUP2 JUMP JUMPDEST PUSH1 0x1 PUSH1 0x1 PUSH1 0xA0 SHL SUB DUP3 AND PUSH1 0x0 SWAP1 DUP2 MSTORE PUSH1 0x1 PUSH1 0x20 MSTORE PUSH1 0x40 DUP2 KECCAK256 SLOAD DUP1 PUSH1 0x1 EQ ISZERO PUSH2 0x113E JUMPI DUP3 PUSH2 0x1148 JUMP JUMPDEST PUSH2 0x1148 DUP2 DUP5 PUSH2 0x221B JUMP JUMPDEST SWAP5 SWAP4 POP POP POP POP JUMP JUMPDEST PUSH1 0x0 DUP3 PUSH2 0x115F JUMPI POP PUSH1 0x0 PUSH2 0x11B1 JUMP JUMPDEST DUP3 DUP3 MUL DUP3 DUP5 DUP3 DUP2 PUSH2 0x1180 JUMPI PUSH4 0x4E487B71 PUSH1 0xE0 SHL PUSH1 0x0 MSTORE PUSH1 0x12 PUSH1 0x4 MSTORE PUSH1 0x24 PUSH1 0x0 REVERT JUMPDEST DIV EQ PUSH2 0x11A8 JUMPI PUSH1 0x40 MLOAD PUSH3 0xC3EFDF PUSH1 0xE0 SHL DUP2 MSTORE PUSH1 0x4 DUP2 ADD DUP6 SWAP1 MSTORE PUSH1 0x24 DUP2 ADD DUP5 SWAP1 MSTORE PUSH1 0x44 ADD PUSH2 0x45F JUMP JUMPDEST PUSH2 0x1148 DUP2 PUSH2 0x146D JUMP JUMPDEST SWAP3 SWAP2 POP POP JUMP JUMPDEST PUSH1 0x0 DUP1 DUP1 PUSH1 0x0 NOT DUP6 DUP8 MULMOD DUP6 DUP8 MUL SWAP3 POP DUP3 DUP2 LT DUP4 DUP3 SUB SUB SWAP2 POP POP DUP1 PUSH1 0x0 EQ ISZERO PUSH2 0x1200 JUMPI DUP4 DUP3 DUP2 PUSH2 0x11F6 JUMPI PUSH4 0x4E487B71 PUSH1 0xE0 SHL PUSH1 0x0 MSTORE PUSH1 0x12 PUSH1 0x4 MSTORE PUSH1 0x24 PUSH1 0x0 REVERT JUMPDEST DIV SWAP3 POP POP POP PUSH2 0x1046 JUMP JUMPDEST DUP4 DUP2 LT PUSH2 0x122A JUMPI PUSH1 0x40 MLOAD PUSH4 0x1DCF3063 PUSH1 0xE2 SHL DUP2 MSTORE PUSH1 0x4 DUP2 ADD DUP3 SWAP1 MSTORE PUSH1 0x24 DUP2 ADD DUP6 SWAP1 MSTORE PUSH1 0x44 ADD PUSH2 0x45F JUMP JUMPDEST PUSH1 0x0 DUP5 DUP7 DUP9 MULMOD PUSH1 0x2 PUSH1 0x1 DUP8 NOT DUP2 ADD DUP9 AND SWAP8 DUP9 SWAP1 DIV PUSH1 0x3 DUP2 MUL DUP4 XOR DUP1 DUP3 MUL DUP5 SUB MUL DUP1 DUP3 MUL DUP5 SUB MUL DUP1 DUP3 MUL DUP5 SUB MUL DUP1 DUP3 MUL DUP5 SUB MUL DUP1 DUP3 MUL DUP5 SUB MUL SWAP1 DUP2 MUL SWAP1 SWAP3 SUB SWAP1 SWAP2 MUL PUSH1 0x0 DUP9 SWAP1 SUB DUP9 SWAP1 DIV SWAP1 SWAP2 ADD DUP6 DUP4 GT SWAP1 SWAP5 SUB SWAP4 SWAP1 SWAP4 MUL SWAP4 SUB SWAP5 SWAP1 SWAP5 DIV SWAP2 SWAP1 SWAP2 OR MUL SWAP5 SWAP4 POP POP POP POP JUMP JUMPDEST PUSH1 0x0 PUSH2 0x1046 DUP4 PUSH8 0xDE0B6B3A7640000 DUP5 PUSH2 0x11B7 JUMP JUMPDEST PUSH1 0x4 SLOAD PUSH1 0x1 PUSH1 0x1 PUSH1 0xA0 SHL SUB AND CALLER PUSH1 0x1 PUSH1 0x1 PUSH1 0xA0 SHL SUB AND EQ PUSH2 0x12DE JUMPI CALLER PUSH1 0x40 MLOAD PUSH4 0x4BFE64F1 PUSH1 0xE1 SHL DUP2 MSTORE PUSH1 0x4 ADD PUSH2 0x45F SWAP2 SWAP1 PUSH2 0x2074 JUMP JUMPDEST JUMP JUMPDEST PUSH1 0x0 DUP1 DUP3 PUSH1 0x1 PUSH1 0x1 PUSH1 0xA0 SHL SUB AND PUSH4 0x313CE567 PUSH1 0x40 MLOAD DUP2 PUSH4 0xFFFFFFFF AND PUSH1 0xE0 SHL DUP2 MSTORE PUSH1 0x4 ADD PUSH1 0x20 PUSH1 0x40 MLOAD DUP1 DUP4 SUB DUP2 DUP7 DUP1 EXTCODESIZE ISZERO DUP1 ISZERO PUSH2 0x131C JUMPI PUSH1 0x0 DUP1 REVERT JUMPDEST POP GAS STATICCALL ISZERO DUP1 ISZERO PUSH2 0x1330 JUMPI RETURNDATASIZE PUSH1 0x0 DUP1 RETURNDATACOPY RETURNDATASIZE PUSH1 0x0 REVERT JUMPDEST POP POP POP POP PUSH1 0x40 MLOAD RETURNDATASIZE PUSH1 0x1F NOT PUSH1 0x1F DUP3 ADD AND DUP3 ADD DUP1 PUSH1 0x40 MSTORE POP DUP2 ADD SWAP1 PUSH2 0x1354 SWAP2 SWAP1 PUSH2 0x2053 JUMP JUMPDEST PUSH1 0xFF AND SWAP1 POP DUP1 PUSH2 0x1379 JUMPI DUP3 PUSH1 0x40 MLOAD PUSH4 0xFE3C0129 PUSH1 0xE0 SHL DUP2 MSTORE PUSH1 0x4 ADD PUSH2 0x45F SWAP2 SWAP1 PUSH2 0x2074 JUMP JUMPDEST PUSH1 0x12 DUP2 GT ISZERO PUSH2 0x13AD JUMPI PUSH1 0x40 MLOAD PUSH4 0x96434C7F PUSH1 0xE0 SHL DUP2 MSTORE PUSH1 0x1 PUSH1 0x1 PUSH1 0xA0 SHL SUB DUP5 AND PUSH1 0x4 DUP3 ADD MSTORE PUSH1 0x24 DUP2 ADD DUP3 SWAP1 MSTORE PUSH1 0x44 ADD PUSH2 0x45F JUMP JUMPDEST PUSH1 0x1 PUSH1 0x1 PUSH1 0xA0 SHL SUB SWAP1 SWAP3 AND PUSH1 0x0 SWAP1 DUP2 MSTORE PUSH1 0x1 PUSH1 0x20 MSTORE PUSH1 0x40 SWAP1 KECCAK256 PUSH1 0x12 SWAP3 SWAP1 SWAP3 SUB PUSH1 0xA EXP SWAP2 DUP3 SWAP1 SSTORE POP SWAP1 JUMP JUMPDEST PUSH1 0x0 PUSH8 0x14057B7EF767814F PUSH8 0xDE0B6B3A7640000 PUSH2 0x13F4 DUP5 PUSH2 0x1648 JUMP JUMPDEST MUL DUP2 PUSH2 0x1410 JUMPI PUSH4 0x4E487B71 PUSH1 0xE0 SHL PUSH1 0x0 MSTORE PUSH1 0x12 PUSH1 0x4 MSTORE PUSH1 0x24 PUSH1 0x0 REVERT JUMPDEST DIV SWAP3 SWAP2 POP POP JUMP JUMPDEST PUSH1 0x0 PUSH9 0x736EA4425C11AC631 DUP3 LT PUSH2 0x1445 JUMPI PUSH1 0x40 MLOAD PUSH4 0x62BB40D PUSH1 0xE3 SHL DUP2 MSTORE PUSH1 0x4 DUP2 ADD DUP4 SWAP1 MSTORE PUSH1 0x24 ADD PUSH2 0x45F JUMP JUMPDEST PUSH8 0x14057B7EF767814F DUP3 MUL PUSH2 0x1046 PUSH8 0xDE0B6B3A7640000 PUSH8 0x6F05B59D3B20000 DUP4 ADD DIV PUSH2 0x16F8 JUMP JUMPDEST PUSH1 0x0 DUP2 PUSH2 0x147C JUMPI POP PUSH1 0x0 SWAP2 SWAP1 POP JUMP JUMPDEST POP PUSH1 0x1 DUP2 PUSH1 0x1 PUSH1 0x80 SHL DUP2 LT PUSH2 0x1496 JUMPI PUSH1 0x40 SWAP2 SWAP1 SWAP2 SHL SWAP1 PUSH1 0x80 SHR JUMPDEST PUSH1 0x1 PUSH1 0x40 SHL DUP2 LT PUSH2 0x14AC JUMPI PUSH1 0x20 SWAP2 SWAP1 SWAP2 SHL SWAP1 PUSH1 0x40 SHR JUMPDEST PUSH1 0x1 PUSH1 0x20 SHL DUP2 LT PUSH2 0x14C2 JUMPI PUSH1 0x10 SWAP2 SWAP1 SWAP2 SHL SWAP1 PUSH1 0x20 SHR JUMPDEST PUSH3 0x10000 DUP2 LT PUSH2 0x14D7 JUMPI PUSH1 0x8 SWAP2 SWAP1 SWAP2 SHL SWAP1 PUSH1 0x10 SHR JUMPDEST PUSH2 0x100 DUP2 LT PUSH2 0x14EB JUMPI PUSH1 0x4 SWAP2 SWAP1 SWAP2 SHL SWAP1 PUSH1 0x8 SHR JUMPDEST PUSH1 0x10 DUP2 LT PUSH2 0x14FE JUMPI PUSH1 0x2 SWAP2 SWAP1 SWAP2 SHL SWAP1 PUSH1 0x4 SHR JUMPDEST PUSH1 0x8 DUP2 LT PUSH2 0x150E JUMPI PUSH1 0x1 DUP3 SWAP1 SHL SWAP2 POP JUMPDEST PUSH1 0x1 DUP3 DUP5 DUP2 PUSH2 0x152D JUMPI PUSH4 0x4E487B71 PUSH1 0xE0 SHL PUSH1 0x0 MSTORE PUSH1 0x12 PUSH1 0x4 MSTORE PUSH1 0x24 PUSH1 0x0 REVERT JUMPDEST DIV DUP4 ADD SWAP1 SHR SWAP2 POP PUSH1 0x1 DUP3 DUP5 DUP2 PUSH2 0x1553 JUMPI PUSH4 0x4E487B71 PUSH1 0xE0 SHL PUSH1 0x0 MSTORE PUSH1 0x12 PUSH1 0x4 MSTORE PUSH1 0x24 PUSH1 0x0 REVERT JUMPDEST DIV DUP4 ADD SWAP1 SHR SWAP2 POP PUSH1 0x1 DUP3 DUP5 DUP2 PUSH2 0x1579 JUMPI PUSH4 0x4E487B71 PUSH1 0xE0 SHL PUSH1 0x0 MSTORE PUSH1 0x12 PUSH1 0x4 MSTORE PUSH1 0x24 PUSH1 0x0 REVERT JUMPDEST DIV DUP4 ADD SWAP1 SHR SWAP2 POP PUSH1 0x1 DUP3 DUP5 DUP2 PUSH2 0x159F JUMPI PUSH4 0x4E487B71 PUSH1 0xE0 SHL PUSH1 0x0 MSTORE PUSH1 0x12 PUSH1 0x4 MSTORE PUSH1 0x24 PUSH1 0x0 REVERT JUMPDEST DIV DUP4 ADD SWAP1 SHR SWAP2 POP PUSH1 0x1 DUP3 DUP5 DUP2 PUSH2 0x15C5 JUMPI PUSH4 0x4E487B71 PUSH1 0xE0 SHL PUSH1 0x0 MSTORE PUSH1 0x12 PUSH1 0x4 MSTORE PUSH1 0x24 PUSH1 0x0 REVERT JUMPDEST DIV DUP4 ADD SWAP1 SHR SWAP2 POP PUSH1 0x1 DUP3 DUP5 DUP2 PUSH2 0x15EB JUMPI PUSH4 0x4E487B71 PUSH1 0xE0 SHL PUSH1 0x0 MSTORE PUSH1 0x12 PUSH1 0x4 MSTORE PUSH1 0x24 PUSH1 0x0 REVERT JUMPDEST DIV DUP4 ADD SWAP1 SHR SWAP2 POP PUSH1 0x1 DUP3 DUP5 DUP2 PUSH2 0x1611 JUMPI PUSH4 0x4E487B71 PUSH1 0xE0 SHL PUSH1 0x0 MSTORE PUSH1 0x12 PUSH1 0x4 MSTORE PUSH1 0x24 PUSH1 0x0 REVERT JUMPDEST DIV DUP4 ADD SWAP1 SHR SWAP2 POP PUSH1 0x0 DUP3 DUP5 DUP2 PUSH2 0x1637 JUMPI PUSH4 0x4E487B71 PUSH1 0xE0 SHL PUSH1 0x0 MSTORE PUSH1 0x12 PUSH1 0x4 MSTORE PUSH1 0x24 PUSH1 0x0 REVERT JUMPDEST DIV SWAP1 POP DUP1 DUP4 LT ISZERO PUSH2 0x1046 JUMPI DUP3 PUSH2 0x1148 JUMP JUMPDEST PUSH1 0x0 PUSH8 0xDE0B6B3A7640000 DUP3 LT ISZERO PUSH2 0x1676 JUMPI PUSH1 0x40 MLOAD PUSH4 0x36214137 PUSH1 0xE2 SHL DUP2 MSTORE PUSH1 0x4 DUP2 ADD DUP4 SWAP1 MSTORE PUSH1 0x24 ADD PUSH2 0x45F JUMP JUMPDEST PUSH1 0x0 PUSH2 0x168B PUSH8 0xDE0B6B3A7640000 DUP5 DIV PUSH2 0x173E JUMP JUMPDEST PUSH8 0xDE0B6B3A7640000 DUP1 DUP3 MUL SWAP4 POP SWAP1 SWAP2 POP DUP4 DUP3 SHR SWAP1 DUP2 EQ ISZERO PUSH2 0x16AE JUMPI POP POP SWAP2 SWAP1 POP JUMP JUMPDEST PUSH8 0x6F05B59D3B20000 JUMPDEST DUP1 ISZERO PUSH2 0x16F0 JUMPI PUSH8 0xDE0B6B3A7640000 DUP3 DUP1 MUL DIV SWAP2 POP PUSH8 0x1BC16D674EC80000 DUP3 LT PUSH2 0x16E8 JUMPI SWAP3 DUP4 ADD SWAP3 PUSH1 0x1 SWAP2 SWAP1 SWAP2 SHR SWAP1 JUMPDEST PUSH1 0x1 SHR PUSH2 0x16B8 JUMP JUMPDEST POP POP POP SWAP2 SWAP1 POP JUMP JUMPDEST PUSH1 0x0 PUSH9 0xA688906BD8B000000 DUP3 LT PUSH2 0x1726 JUMPI PUSH1 0x40 MLOAD PUSH4 0x4A4F26F1 PUSH1 0xE0 SHL DUP2 MSTORE PUSH1 0x4 DUP2 ADD DUP4 SWAP1 MSTORE PUSH1 0x24 ADD PUSH2 0x45F JUMP JUMPDEST PUSH8 0xDE0B6B3A7640000 PUSH1 0x40 DUP4 SWAP1 SHL DIV PUSH2 0x1046 DUP2 PUSH2 0x1824 JUMP JUMPDEST PUSH1 0x0 PUSH1 0x1 PUSH1 0x80 SHL DUP3 LT PUSH2 0x175E JUMPI PUSH1 0x80 SWAP2 DUP3 SHR SWAP2 PUSH2 0x175B SWAP1 DUP3 PUSH2 0x20F5 JUMP JUMPDEST SWAP1 POP JUMPDEST PUSH1 0x1 PUSH1 0x40 SHL DUP3 LT PUSH2 0x177C JUMPI PUSH1 0x40 SWAP2 DUP3 SHR SWAP2 PUSH2 0x1779 SWAP1 DUP3 PUSH2 0x20F5 JUMP JUMPDEST SWAP1 POP JUMPDEST PUSH1 0x1 PUSH1 0x20 SHL DUP3 LT PUSH2 0x179A JUMPI PUSH1 0x20 SWAP2 DUP3 SHR SWAP2 PUSH2 0x1797 SWAP1 DUP3 PUSH2 0x20F5 JUMP JUMPDEST SWAP1 POP JUMPDEST PUSH3 0x10000 DUP3 LT PUSH2 0x17B7 JUMPI PUSH1 0x10 SWAP2 DUP3 SHR SWAP2 PUSH2 0x17B4 SWAP1 DUP3 PUSH2 0x20F5 JUMP JUMPDEST SWAP1 POP JUMPDEST PUSH2 0x100 DUP3 LT PUSH2 0x17D3 JUMPI PUSH1 0x8 SWAP2 DUP3 SHR SWAP2 PUSH2 0x17D0 SWAP1 DUP3 PUSH2 0x20F5 JUMP JUMPDEST SWAP1 POP JUMPDEST PUSH1 0x10 DUP3 LT PUSH2 0x17EE JUMPI PUSH1 0x4 SWAP2 DUP3 SHR SWAP2 PUSH2 0x17EB SWAP1 DUP3 PUSH2 0x20F5 JUMP JUMPDEST SWAP1 POP JUMPDEST PUSH1 0x4 DUP3 LT PUSH2 0x1809 JUMPI PUSH1 0x2 SWAP2 DUP3 SHR SWAP2 PUSH2 0x1806 SWAP1 DUP3 PUSH2 0x20F5 JUMP JUMPDEST SWAP1 POP JUMPDEST PUSH1 0x2 DUP3 LT PUSH2 0x181F JUMPI PUSH2 0x181C PUSH1 0x1 DUP3 PUSH2 0x20F5 JUMP JUMPDEST SWAP1 POP JUMPDEST SWAP2 SWAP1 POP JUMP JUMPDEST PUSH1 0x1 PUSH1 0xBF SHL PUSH1 0x1 PUSH1 0x3F SHL DUP3 AND ISZERO PUSH2 0x1844 JUMPI PUSH9 0x16A09E667F3BCC909 MUL PUSH1 0x40 SHR JUMPDEST PUSH1 0x1 PUSH1 0x3E SHL DUP3 AND ISZERO PUSH2 0x185F JUMPI PUSH9 0x1306FE0A31B7152DF MUL PUSH1 0x40 SHR JUMPDEST PUSH1 0x1 PUSH1 0x3D SHL DUP3 AND ISZERO PUSH2 0x187A JUMPI PUSH9 0x1172B83C7D517ADCE MUL PUSH1 0x40 SHR JUMPDEST PUSH1 0x1 PUSH1 0x3C SHL DUP3 AND ISZERO PUSH2 0x1895 JUMPI PUSH9 0x10B5586CF9890F62A MUL PUSH1 0x40 SHR JUMPDEST PUSH1 0x1 PUSH1 0x3B SHL DUP3 AND ISZERO PUSH2 0x18B0 JUMPI PUSH9 0x1059B0D31585743AE MUL PUSH1 0x40 SHR JUMPDEST PUSH1 0x1 PUSH1 0x3A SHL DUP3 AND ISZERO PUSH2 0x18CB JUMPI PUSH9 0x102C9A3E778060EE7 MUL PUSH1 0x40 SHR JUMPDEST PUSH1 0x1 PUSH1 0x39 SHL DUP3 AND ISZERO PUSH2 0x18E6 JUMPI PUSH9 0x10163DA9FB33356D8 MUL PUSH1 0x40 SHR JUMPDEST PUSH1 0x1 PUSH1 0x38 SHL DUP3 AND ISZERO PUSH2 0x1901 JUMPI PUSH9 0x100B1AFA5ABCBED61 MUL PUSH1 0x40 SHR JUMPDEST PUSH1 0x1 PUSH1 0x37 SHL DUP3 AND ISZERO PUSH2 0x191C JUMPI PUSH9 0x10058C86DA1C09EA2 MUL PUSH1 0x40 SHR JUMPDEST PUSH1 0x1 PUSH1 0x36 SHL DUP3 AND ISZERO PUSH2 0x1937 JUMPI PUSH9 0x1002C605E2E8CEC50 MUL PUSH1 0x40 SHR JUMPDEST PUSH1 0x1 PUSH1 0x35 SHL DUP3 AND ISZERO PUSH2 0x1952 JUMPI PUSH9 0x100162F3904051FA1 MUL PUSH1 0x40 SHR JUMPDEST PUSH1 0x1 PUSH1 0x34 SHL DUP3 AND ISZERO PUSH2 0x196D JUMPI PUSH9 0x1000B175EFFDC76BA MUL PUSH1 0x40 SHR JUMPDEST PUSH1 0x1 PUSH1 0x33 SHL DUP3 AND ISZERO PUSH2 0x1988 JUMPI PUSH9 0x100058BA01FB9F96D MUL PUSH1 0x40 SHR JUMPDEST PUSH1 0x1 PUSH1 0x32 SHL DUP3 AND ISZERO PUSH2 0x19A3 JUMPI PUSH9 0x10002C5CC37DA9492 MUL PUSH1 0x40 SHR JUMPDEST PUSH1 0x1 PUSH1 0x31 SHL DUP3 AND ISZERO PUSH2 0x19BE JUMPI PUSH9 0x1000162E525EE0547 MUL PUSH1 0x40 SHR JUMPDEST PUSH1 0x1 PUSH1 0x30 SHL DUP3 AND ISZERO PUSH2 0x19D9 JUMPI PUSH9 0x10000B17255775C04 MUL PUSH1 0x40 SHR JUMPDEST PUSH1 0x1 PUSH1 0x2F SHL DUP3 AND ISZERO PUSH2 0x19F4 JUMPI PUSH9 0x1000058B91B5BC9AE MUL PUSH1 0x40 SHR JUMPDEST PUSH1 0x1 PUSH1 0x2E SHL DUP3 AND ISZERO PUSH2 0x1A0F JUMPI PUSH9 0x100002C5C89D5EC6D MUL PUSH1 0x40 SHR JUMPDEST PUSH1 0x1 PUSH1 0x2D SHL DUP3 AND ISZERO PUSH2 0x1A2A JUMPI PUSH9 0x10000162E43F4F831 MUL PUSH1 0x40 SHR JUMPDEST PUSH1 0x1 PUSH1 0x2C SHL DUP3 AND ISZERO PUSH2 0x1A45 JUMPI PUSH9 0x100000B1721BCFC9A MUL PUSH1 0x40 SHR JUMPDEST PUSH1 0x1 PUSH1 0x2B SHL DUP3 AND ISZERO PUSH2 0x1A60 JUMPI PUSH9 0x10000058B90CF1E6E MUL PUSH1 0x40 SHR JUMPDEST PUSH1 0x1 PUSH1 0x2A SHL DUP3 AND ISZERO PUSH2 0x1A7B JUMPI PUSH9 0x1000002C5C863B73F MUL PUSH1 0x40 SHR JUMPDEST PUSH1 0x1 PUSH1 0x29 SHL DUP3 AND ISZERO PUSH2 0x1A96 JUMPI PUSH9 0x100000162E430E5A2 MUL PUSH1 0x40 SHR JUMPDEST PUSH1 0x1 PUSH1 0x28 SHL DUP3 AND ISZERO PUSH2 0x1AB1 JUMPI PUSH9 0x1000000B172183551 MUL PUSH1 0x40 SHR JUMPDEST PUSH1 0x1 PUSH1 0x27 SHL DUP3 AND ISZERO PUSH2 0x1ACC JUMPI PUSH9 0x100000058B90C0B49 MUL PUSH1 0x40 SHR JUMPDEST PUSH1 0x1 PUSH1 0x26 SHL DUP3 AND ISZERO PUSH2 0x1AE7 JUMPI PUSH9 0x10000002C5C8601CC MUL PUSH1 0x40 SHR JUMPDEST PUSH1 0x1 PUSH1 0x25 SHL DUP3 AND ISZERO PUSH2 0x1B02 JUMPI PUSH9 0x1000000162E42FFF0 MUL PUSH1 0x40 SHR JUMPDEST PUSH1 0x1 PUSH1 0x24 SHL DUP3 AND ISZERO PUSH2 0x1B1D JUMPI PUSH9 0x10000000B17217FBB MUL PUSH1 0x40 SHR JUMPDEST PUSH1 0x1 PUSH1 0x23 SHL DUP3 AND ISZERO PUSH2 0x1B38 JUMPI PUSH9 0x1000000058B90BFCE MUL PUSH1 0x40 SHR JUMPDEST PUSH1 0x1 PUSH1 0x22 SHL DUP3 AND ISZERO PUSH2 0x1B53 JUMPI PUSH9 0x100000002C5C85FE3 MUL PUSH1 0x40 SHR JUMPDEST PUSH1 0x1 PUSH1 0x21 SHL DUP3 AND ISZERO PUSH2 0x1B6E JUMPI PUSH9 0x10000000162E42FF1 MUL PUSH1 0x40 SHR JUMPDEST PUSH1 0x1 PUSH1 0x20 SHL DUP3 AND ISZERO PUSH2 0x1B89 JUMPI PUSH9 0x100000000B17217F8 MUL PUSH1 0x40 SHR JUMPDEST PUSH4 0x80000000 DUP3 AND ISZERO PUSH2 0x1BA4 JUMPI PUSH9 0x10000000058B90BFC MUL PUSH1 0x40 SHR JUMPDEST PUSH4 0x40000000 DUP3 AND ISZERO PUSH2 0x1BBF JUMPI PUSH9 0x1000000002C5C85FE MUL PUSH1 0x40 SHR JUMPDEST PUSH4 0x20000000 DUP3 AND ISZERO PUSH2 0x1BDA JUMPI PUSH9 0x100000000162E42FF MUL PUSH1 0x40 SHR JUMPDEST PUSH4 0x10000000 DUP3 AND ISZERO PUSH2 0x1BF5 JUMPI PUSH9 0x1000000000B17217F MUL PUSH1 0x40 SHR JUMPDEST PUSH4 0x8000000 DUP3 AND ISZERO PUSH2 0x1C10 JUMPI PUSH9 0x100000000058B90C0 MUL PUSH1 0x40 SHR JUMPDEST PUSH4 0x4000000 DUP3 AND ISZERO PUSH2 0x1C2B JUMPI PUSH9 0x10000000002C5C860 MUL PUSH1 0x40 SHR JUMPDEST PUSH4 0x2000000 DUP3 AND ISZERO PUSH2 0x1C46 JUMPI PUSH9 0x1000000000162E430 MUL PUSH1 0x40 SHR JUMPDEST PUSH4 0x1000000 DUP3 AND ISZERO PUSH2 0x1C61 JUMPI PUSH9 0x10000000000B17218 MUL PUSH1 0x40 SHR JUMPDEST PUSH3 0x800000 DUP3 AND ISZERO PUSH2 0x1C7B JUMPI PUSH9 0x1000000000058B90C MUL PUSH1 0x40 SHR JUMPDEST PUSH3 0x400000 DUP3 AND ISZERO PUSH2 0x1C95 JUMPI PUSH9 0x100000000002C5C86 MUL PUSH1 0x40 SHR JUMPDEST PUSH3 0x200000 DUP3 AND ISZERO PUSH2 0x1CAF JUMPI PUSH9 0x10000000000162E43 MUL PUSH1 0x40 SHR JUMPDEST PUSH3 0x100000 DUP3 AND ISZERO PUSH2 0x1CC9 JUMPI PUSH9 0x100000000000B1721 MUL PUSH1 0x40 SHR JUMPDEST PUSH3 0x80000 DUP3 AND ISZERO PUSH2 0x1CE3 JUMPI PUSH9 0x10000000000058B91 MUL PUSH1 0x40 SHR JUMPDEST PUSH3 0x40000 DUP3 AND ISZERO PUSH2 0x1CFD JUMPI PUSH9 0x1000000000002C5C8 MUL PUSH1 0x40 SHR JUMPDEST PUSH3 0x20000 DUP3 AND ISZERO PUSH2 0x1D17 JUMPI PUSH9 0x100000000000162E4 MUL PUSH1 0x40 SHR JUMPDEST PUSH3 0x10000 DUP3 AND ISZERO PUSH2 0x1D30 JUMPI PUSH2 0xB172 PUSH1 0x1 PUSH1 0x40 SHL ADD MUL PUSH1 0x40 SHR JUMPDEST PUSH2 0x8000 DUP3 AND ISZERO PUSH2 0x1D48 JUMPI PUSH2 0x58B9 PUSH1 0x1 PUSH1 0x40 SHL ADD MUL PUSH1 0x40 SHR JUMPDEST PUSH2 0x4000 DUP3 AND ISZERO PUSH2 0x1D60 JUMPI PUSH2 0x2C5D PUSH1 0x1 PUSH1 0x40 SHL ADD MUL PUSH1 0x40 SHR JUMPDEST PUSH2 0x2000 DUP3 AND ISZERO PUSH2 0x1D78 JUMPI PUSH2 0x162E PUSH1 0x1 PUSH1 0x40 SHL ADD MUL PUSH1 0x40 SHR JUMPDEST PUSH2 0x1000 DUP3 AND ISZERO PUSH2 0x1D90 JUMPI PUSH2 0xB17 PUSH1 0x1 PUSH1 0x40 SHL ADD MUL PUSH1 0x40 SHR JUMPDEST PUSH2 0x800 DUP3 AND ISZERO PUSH2 0x1DA8 JUMPI PUSH2 0x58C PUSH1 0x1 PUSH1 0x40 SHL ADD MUL PUSH1 0x40 SHR JUMPDEST PUSH2 0x400 DUP3 AND ISZERO PUSH2 0x1DC0 JUMPI PUSH2 0x2C6 PUSH1 0x1 PUSH1 0x40 SHL ADD MUL PUSH1 0x40 SHR JUMPDEST PUSH2 0x200 DUP3 AND ISZERO PUSH2 0x1DD8 JUMPI PUSH2 0x163 PUSH1 0x1 PUSH1 0x40 SHL ADD MUL PUSH1 0x40 SHR JUMPDEST PUSH2 0x100 DUP3 AND ISZERO PUSH2 0x1DEF JUMPI PUSH1 0xB1 PUSH1 0x1 PUSH1 0x40 SHL ADD MUL PUSH1 0x40 SHR JUMPDEST PUSH1 0x80 DUP3 AND ISZERO PUSH2 0x1E05 JUMPI PUSH1 0x59 PUSH1 0x1 PUSH1 0x40 SHL ADD MUL PUSH1 0x40 SHR JUMPDEST PUSH1 0x40 DUP3 AND ISZERO PUSH2 0x1E1B JUMPI PUSH1 0x2C PUSH1 0x1 PUSH1 0x40 SHL ADD MUL PUSH1 0x40 SHR JUMPDEST PUSH1 0x20 DUP3 AND ISZERO PUSH2 0x1E31 JUMPI PUSH1 0x16 PUSH1 0x1 PUSH1 0x40 SHL ADD MUL PUSH1 0x40 SHR JUMPDEST PUSH1 0x10 DUP3 AND ISZERO PUSH2 0x1E47 JUMPI PUSH1 0xB PUSH1 0x1 PUSH1 0x40 SHL ADD MUL PUSH1 0x40 SHR JUMPDEST PUSH1 0x8 DUP3 AND ISZERO PUSH2 0x1E5D JUMPI PUSH1 0x6 PUSH1 0x1 PUSH1 0x40 SHL ADD MUL PUSH1 0x40 SHR JUMPDEST PUSH1 0x4 DUP3 AND ISZERO PUSH2 0x1E73 JUMPI PUSH1 0x3 PUSH1 0x1 PUSH1 0x40 SHL ADD MUL PUSH1 0x40 SHR JUMPDEST PUSH1 0x2 DUP3 AND ISZERO PUSH2 0x1E89 JUMPI PUSH1 0x1 PUSH1 0x1 PUSH1 0x40 SHL ADD MUL PUSH1 0x40 SHR JUMPDEST PUSH1 0x1 DUP3 AND ISZERO PUSH2 0x1E9F JUMPI PUSH1 0x1 PUSH1 0x1 PUSH1 0x40 SHL ADD MUL PUSH1 0x40 SHR JUMPDEST PUSH8 0xDE0B6B3A7640000 MUL PUSH1 0x40 SWAP2 SWAP1 SWAP2 SHR PUSH1 0xBF SUB SHR SWAP1 JUMP JUMPDEST DUP1 MLOAD PUSH1 0x1 PUSH1 0x1 PUSH1 0x70 SHL SUB DUP2 AND DUP2 EQ PUSH2 0x181F JUMPI PUSH1 0x0 DUP1 REVERT JUMPDEST DUP1 MLOAD PUSH1 0x1 PUSH1 0x1 PUSH1 0x50 SHL SUB DUP2 AND DUP2 EQ PUSH2 0x181F JUMPI PUSH1 0x0 DUP1 REVERT JUMPDEST PUSH1 0x0 PUSH1 0x20 DUP3 DUP5 SUB SLT ISZERO PUSH2 0x1EF5 JUMPI DUP1 DUP2 REVERT JUMPDEST DUP2 CALLDATALOAD PUSH2 0x1046 DUP2 PUSH2 0x228A JUMP JUMPDEST PUSH1 0x0 PUSH1 0x20 DUP3 DUP5 SUB SLT ISZERO PUSH2 0x1F11 JUMPI DUP1 DUP2 REVERT JUMPDEST DUP2 MLOAD PUSH2 0x1046 DUP2 PUSH2 0x228A JUMP JUMPDEST PUSH1 0x0 DUP1 PUSH1 0x0 PUSH1 0x60 DUP5 DUP7 SUB SLT ISZERO PUSH2 0x1F30 JUMPI DUP2 DUP3 REVERT JUMPDEST DUP4 CALLDATALOAD PUSH2 0x1F3B DUP2 PUSH2 0x228A JUMP JUMPDEST SWAP3 POP PUSH1 0x20 DUP5 ADD CALLDATALOAD PUSH2 0x1F4B DUP2 PUSH2 0x228A JUMP JUMPDEST SWAP2 POP PUSH1 0x40 DUP5 ADD CALLDATALOAD PUSH2 0x1F5B DUP2 PUSH2 0x228A JUMP JUMPDEST DUP1 SWAP2 POP POP SWAP3 POP SWAP3 POP SWAP3 JUMP JUMPDEST PUSH1 0x0 DUP1 PUSH1 0x0 PUSH1 0x60 DUP5 DUP7 SUB SLT ISZERO PUSH2 0x1F7A JUMPI DUP3 DUP4 REVERT JUMPDEST PUSH2 0x1F83 DUP5 PUSH2 0x1EB6 JUMP JUMPDEST SWAP3 POP PUSH2 0x1F91 PUSH1 0x20 DUP6 ADD PUSH2 0x1EB6 JUMP JUMPDEST SWAP2 POP PUSH1 0x40 DUP5 ADD MLOAD PUSH4 0xFFFFFFFF DUP2 AND DUP2 EQ PUSH2 0x1F5B JUMPI DUP2 DUP3 REVERT JUMPDEST PUSH1 0x0 PUSH1 0x20 DUP3 DUP5 SUB SLT ISZERO PUSH2 0x1FBA JUMPI DUP1 DUP2 REVERT JUMPDEST POP CALLDATALOAD SWAP2 SWAP1 POP JUMP JUMPDEST PUSH1 0x0 PUSH1 0x20 DUP3 DUP5 SUB SLT ISZERO PUSH2 0x1FD2 JUMPI DUP1 DUP2 REVERT JUMPDEST POP MLOAD SWAP2 SWAP1 POP JUMP JUMPDEST PUSH1 0x0 DUP1 PUSH1 0x0 PUSH1 0x60 DUP5 DUP7 SUB SLT ISZERO PUSH2 0x1FED JUMPI DUP3 DUP4 REVERT JUMPDEST POP POP DUP2 CALLDATALOAD SWAP4 PUSH1 0x20 DUP4 ADD CALLDATALOAD SWAP4 POP PUSH1 0x40 SWAP1 SWAP3 ADD CALLDATALOAD SWAP2 SWAP1 POP JUMP JUMPDEST PUSH1 0x0 DUP1 PUSH1 0x0 DUP1 PUSH1 0x0 PUSH1 0xA0 DUP7 DUP9 SUB SLT ISZERO PUSH2 0x201B JUMPI DUP1 DUP2 REVERT JUMPDEST PUSH2 0x2024 DUP7 PUSH2 0x1ECD JUMP JUMPDEST SWAP5 POP PUSH1 0x20 DUP7 ADD MLOAD SWAP4 POP PUSH1 0x40 DUP7 ADD MLOAD SWAP3 POP PUSH1 0x60 DUP7 ADD MLOAD SWAP2 POP PUSH2 0x2047 PUSH1 0x80 DUP8 ADD PUSH2 0x1ECD JUMP JUMPDEST SWAP1 POP SWAP3 SWAP6 POP SWAP3 SWAP6 SWAP1 SWAP4 POP JUMP JUMPDEST PUSH1 0x0 PUSH1 0x20 DUP3 DUP5 SUB SLT ISZERO PUSH2 0x2064 JUMPI DUP1 DUP2 REVERT JUMPDEST DUP2 MLOAD PUSH1 0xFF DUP2 AND DUP2 EQ PUSH2 0x1046 JUMPI DUP2 DUP3 REVERT JUMPDEST PUSH1 0x1 PUSH1 0x1 PUSH1 0xA0 SHL SUB SWAP2 SWAP1 SWAP2 AND DUP2 MSTORE PUSH1 0x20 ADD SWAP1 JUMP JUMPDEST PUSH1 0x1 PUSH1 0x1 PUSH1 0xA0 SHL SUB SWAP3 DUP4 AND DUP2 MSTORE SWAP2 AND PUSH1 0x20 DUP3 ADD MSTORE PUSH1 0x40 ADD SWAP1 JUMP JUMPDEST PUSH1 0x0 PUSH1 0x20 DUP1 DUP4 MSTORE DUP4 MLOAD DUP1 DUP3 DUP6 ADD MSTORE DUP3 JUMPDEST DUP2 DUP2 LT ISZERO PUSH2 0x20CE JUMPI DUP6 DUP2 ADD DUP4 ADD MLOAD DUP6 DUP3 ADD PUSH1 0x40 ADD MSTORE DUP3 ADD PUSH2 0x20B2 JUMP JUMPDEST DUP2 DUP2 GT ISZERO PUSH2 0x20DF JUMPI DUP4 PUSH1 0x40 DUP4 DUP8 ADD ADD MSTORE JUMPDEST POP PUSH1 0x1F ADD PUSH1 0x1F NOT AND SWAP3 SWAP1 SWAP3 ADD PUSH1 0x40 ADD SWAP4 SWAP3 POP POP POP JUMP JUMPDEST PUSH1 0x0 DUP3 NOT DUP3 GT ISZERO PUSH2 0x2108 JUMPI PUSH2 0x2108 PUSH2 0x2274 JUMP JUMPDEST POP ADD SWAP1 JUMP JUMPDEST PUSH1 0x0 DUP3 PUSH2 0x2128 JUMPI PUSH4 0x4E487B71 PUSH1 0xE0 SHL DUP2 MSTORE PUSH1 0x12 PUSH1 0x4 MSTORE PUSH1 0x24 DUP2 REVERT JUMPDEST POP DIV SWAP1 JUMP JUMPDEST PUSH1 0x1 DUP2 DUP2 JUMPDEST DUP1 DUP6 GT ISZERO PUSH2 0x2168 JUMPI DUP2 PUSH1 0x0 NOT DIV DUP3 GT ISZERO PUSH2 0x214E JUMPI PUSH2 0x214E PUSH2 0x2274 JUMP JUMPDEST DUP1 DUP6 AND ISZERO PUSH2 0x215B JUMPI SWAP2 DUP2 MUL SWAP2 JUMPDEST SWAP4 DUP5 SHR SWAP4 SWAP1 DUP1 MUL SWAP1 PUSH2 0x2132 JUMP JUMPDEST POP SWAP3 POP SWAP3 SWAP1 POP JUMP JUMPDEST PUSH1 0x0 PUSH2 0x1046 PUSH1 0xFF DUP5 AND DUP4 PUSH1 0x0 DUP3 PUSH2 0x2189 JUMPI POP PUSH1 0x1 PUSH2 0x11B1 JUMP JUMPDEST DUP2 PUSH2 0x2196 JUMPI POP PUSH1 0x0 PUSH2 0x11B1 JUMP JUMPDEST DUP2 PUSH1 0x1 DUP2 EQ PUSH2 0x21AC JUMPI PUSH1 0x2 DUP2 EQ PUSH2 0x21B6 JUMPI PUSH2 0x21D2 JUMP JUMPDEST PUSH1 0x1 SWAP2 POP POP PUSH2 0x11B1 JUMP JUMPDEST PUSH1 0xFF DUP5 GT ISZERO PUSH2 0x21C7 JUMPI PUSH2 0x21C7 PUSH2 0x2274 JUMP JUMPDEST POP POP PUSH1 0x1 DUP3 SHL PUSH2 0x11B1 JUMP JUMPDEST POP PUSH1 0x20 DUP4 LT PUSH2 0x133 DUP4 LT AND PUSH1 0x4E DUP5 LT PUSH1 0xB DUP5 LT AND OR ISZERO PUSH2 0x21F5 JUMPI POP DUP2 DUP2 EXP PUSH2 0x11B1 JUMP JUMPDEST PUSH2 0x21FF DUP4 DUP4 PUSH2 0x212D JUMP JUMPDEST DUP1 PUSH1 0x0 NOT DIV DUP3 GT ISZERO PUSH2 0x2213 JUMPI PUSH2 0x2213 PUSH2 0x2274 JUMP JUMPDEST MUL SWAP4 SWAP3 POP POP POP JUMP JUMPDEST PUSH1 0x0 DUP2 PUSH1 0x0 NOT DIV DUP4 GT DUP3 ISZERO ISZERO AND ISZERO PUSH2 0x2235 JUMPI PUSH2 0x2235 PUSH2 0x2274 JUMP JUMPDEST POP MUL SWAP1 JUMP JUMPDEST PUSH1 0x0 DUP3 DUP3 LT ISZERO PUSH2 0x224C JUMPI PUSH2 0x224C PUSH2 0x2274 JUMP JUMPDEST POP SUB SWAP1 JUMP JUMPDEST PUSH1 0x0 PUSH1 0xFF DUP3 AND PUSH1 0xFF DUP5 AND DUP1 DUP3 LT ISZERO PUSH2 0x226B JUMPI PUSH2 0x226B PUSH2 0x2274 JUMP JUMPDEST SWAP1 SUB SWAP4 SWAP3 POP POP POP JUMP JUMPDEST PUSH4 0x4E487B71 PUSH1 0xE0 SHL PUSH1 0x0 MSTORE PUSH1 0x11 PUSH1 0x4 MSTORE PUSH1 0x24 PUSH1 0x0 REVERT JUMPDEST PUSH1 0x1 PUSH1 0x1 PUSH1 0xA0 SHL SUB DUP2 AND DUP2 EQ PUSH2 0x229F JUMPI PUSH1 0x0 DUP1 REVERT JUMPDEST POP JUMP INVALID NUMBER PUSH26 0x676E75732D4E6562756C613A20436861696E6C696E6B204C5020 0x4F PUSH19 0x61636C65A264697066735822122073496CC466 0xC3 EXTCODEHASH SWAP9 SGT 0x48 0xAC MULMOD 0xA8 DIV EXP DUP16 0xF9 0xEE 0xD7 STOP PUSH14 0xACE03ADC08081DD506CF7E64736F PUSH13 0x63430008040033000000000000 "},"methodIdentifiers":{"SECONDS_PER_YEAR()":"e6a69ab8","admin()":"f851a440","allNebulas(uint256)":"d02c70e8","assetPricesUsd(address)":"193d1da9","decimals()":"313ce567","denominationAggregator()":"8eb6f8f0","denominationToken()":"f6b9fdfb","denominationTokenPrice()":"cadbcc21","getAnnualizedLogApr(uint256,uint256,uint256)":"8fd1c213","getNebula(address)":"f0ac40c4","initializeNebula(address,address,address)":"51fcba9d","lpTokenPriceUsd(address)":"17e5a1a1","name()":"06fdde03","nebulaSize()":"ba3941e7","pendingAdmin()":"26782247","setOracleAdmin()":"62bbb6e0","setOraclePendingAdmin(address)":"65c9b257","symbol()":"95d89b41","version()":"54fd4d50"}}}}}