{
  "_format": "hh-sol-artifact-1",
  "contractName": "CygnusNebula",
  "sourceName": "contracts/cygnus-oracle/CygnusNebula.sol",
  "abi": [
    {
      "inputs": [
        {
          "internalType": "contract IERC20",
          "name": "denomination",
          "type": "address"
        },
        {
          "internalType": "contract AggregatorV3Interface",
          "name": "denominationPrice",
          "type": "address"
        },
        {
          "internalType": "address",
          "name": "_nebulaRegistry",
          "type": "address"
        }
      ],
      "stateMutability": "nonpayable",
      "type": "constructor"
    },
    {
      "inputs": [],
      "name": "CygnusNebulaOracle__AlreadyInContext",
      "type": "error"
    },
    {
      "inputs": [
        {
          "internalType": "address",
          "name": "sender",
          "type": "address"
        }
      ],
      "name": "CygnusNebulaOracle__MsgSenderNotRegistry",
      "type": "error"
    },
    {
      "inputs": [
        {
          "internalType": "address",
          "name": "lpTokenPair",
          "type": "address"
        }
      ],
      "name": "CygnusNebulaOracle__PairAlreadyInitialized",
      "type": "error"
    },
    {
      "inputs": [
        {
          "internalType": "address",
          "name": "lpTokenPair",
          "type": "address"
        }
      ],
      "name": "CygnusNebulaOracle__PairNotInitialized",
      "type": "error"
    },
    {
      "inputs": [
        {
          "internalType": "uint256",
          "name": "x",
          "type": "uint256"
        }
      ],
      "name": "PRBMathUD60x18__Exp2InputTooBig",
      "type": "error"
    },
    {
      "inputs": [
        {
          "internalType": "uint256",
          "name": "x",
          "type": "uint256"
        }
      ],
      "name": "PRBMathUD60x18__ExpInputTooBig",
      "type": "error"
    },
    {
      "inputs": [
        {
          "internalType": "uint256",
          "name": "x",
          "type": "uint256"
        },
        {
          "internalType": "uint256",
          "name": "y",
          "type": "uint256"
        }
      ],
      "name": "PRBMathUD60x18__GmOverflow",
      "type": "error"
    },
    {
      "inputs": [
        {
          "internalType": "uint256",
          "name": "x",
          "type": "uint256"
        }
      ],
      "name": "PRBMathUD60x18__LogInputTooSmall",
      "type": "error"
    },
    {
      "inputs": [
        {
          "internalType": "uint256",
          "name": "prod1",
          "type": "uint256"
        },
        {
          "internalType": "uint256",
          "name": "denominator",
          "type": "uint256"
        }
      ],
      "name": "PRBMath__MulDivOverflow",
      "type": "error"
    },
    {
      "anonymous": false,
      "inputs": [
        {
          "indexed": false,
          "internalType": "bool",
          "name": "initialized",
          "type": "bool"
        },
        {
          "indexed": false,
          "internalType": "uint88",
          "name": "oracleId",
          "type": "uint88"
        },
        {
          "indexed": false,
          "internalType": "address",
          "name": "lpTokenPair",
          "type": "address"
        },
        {
          "indexed": false,
          "internalType": "contract IERC20[]",
          "name": "poolTokens",
          "type": "address[]"
        },
        {
          "indexed": false,
          "internalType": "uint256[]",
          "name": "poolTokensDecimals",
          "type": "uint256[]"
        },
        {
          "indexed": false,
          "internalType": "contract AggregatorV3Interface[]",
          "name": "priceFeeds",
          "type": "address[]"
        },
        {
          "indexed": false,
          "internalType": "uint256[]",
          "name": "priceFeedsDecimals",
          "type": "uint256[]"
        }
      ],
      "name": "InitializeNebulaOracle",
      "type": "event"
    },
    {
      "anonymous": false,
      "inputs": [
        {
          "indexed": false,
          "internalType": "address",
          "name": "oracleOldAdmin",
          "type": "address"
        },
        {
          "indexed": false,
          "internalType": "address",
          "name": "oracleNewAdmin",
          "type": "address"
        }
      ],
      "name": "NewOracleAdmin",
      "type": "event"
    },
    {
      "anonymous": false,
      "inputs": [
        {
          "indexed": false,
          "internalType": "address",
          "name": "oracleCurrentAdmin",
          "type": "address"
        },
        {
          "indexed": false,
          "internalType": "address",
          "name": "oraclePendingAdmin",
          "type": "address"
        }
      ],
      "name": "NewOraclePendingAdmin",
      "type": "event"
    },
    {
      "inputs": [],
      "name": "AGGREGATOR_DECIMALS",
      "outputs": [
        {
          "internalType": "uint256",
          "name": "",
          "type": "uint256"
        }
      ],
      "stateMutability": "view",
      "type": "function"
    },
    {
      "inputs": [],
      "name": "AGGREGATOR_SCALAR",
      "outputs": [
        {
          "internalType": "uint256",
          "name": "",
          "type": "uint256"
        }
      ],
      "stateMutability": "view",
      "type": "function"
    },
    {
      "inputs": [],
      "name": "S",
      "outputs": [
        {
          "internalType": "bytes4",
          "name": "",
          "type": "bytes4"
        }
      ],
      "stateMutability": "view",
      "type": "function"
    },
    {
      "inputs": [],
      "name": "SECONDS_PER_YEAR",
      "outputs": [
        {
          "internalType": "uint256",
          "name": "",
          "type": "uint256"
        }
      ],
      "stateMutability": "view",
      "type": "function"
    },
    {
      "inputs": [
        {
          "internalType": "uint256",
          "name": "",
          "type": "uint256"
        }
      ],
      "name": "allNebulas",
      "outputs": [
        {
          "internalType": "address",
          "name": "",
          "type": "address"
        }
      ],
      "stateMutability": "view",
      "type": "function"
    },
    {
      "inputs": [
        {
          "internalType": "address",
          "name": "lpTokenPair",
          "type": "address"
        }
      ],
      "name": "assetPricesUsd",
      "outputs": [
        {
          "internalType": "uint256[]",
          "name": "",
          "type": "uint256[]"
        }
      ],
      "stateMutability": "view",
      "type": "function"
    },
    {
      "inputs": [],
      "name": "decimals",
      "outputs": [
        {
          "internalType": "uint8",
          "name": "",
          "type": "uint8"
        }
      ],
      "stateMutability": "view",
      "type": "function"
    },
    {
      "inputs": [],
      "name": "denominationAggregator",
      "outputs": [
        {
          "internalType": "contract AggregatorV3Interface",
          "name": "",
          "type": "address"
        }
      ],
      "stateMutability": "view",
      "type": "function"
    },
    {
      "inputs": [],
      "name": "denominationToken",
      "outputs": [
        {
          "internalType": "contract IERC20",
          "name": "",
          "type": "address"
        }
      ],
      "stateMutability": "view",
      "type": "function"
    },
    {
      "inputs": [],
      "name": "denominationTokenPrice",
      "outputs": [
        {
          "internalType": "uint256",
          "name": "",
          "type": "uint256"
        }
      ],
      "stateMutability": "view",
      "type": "function"
    },
    {
      "inputs": [
        {
          "internalType": "uint256",
          "name": "exchangeRateLast",
          "type": "uint256"
        },
        {
          "internalType": "uint256",
          "name": "exchangeRateCurrent",
          "type": "uint256"
        },
        {
          "internalType": "uint256",
          "name": "timeElapsed",
          "type": "uint256"
        }
      ],
      "name": "getAnnualizedBaseRate",
      "outputs": [
        {
          "internalType": "uint256",
          "name": "",
          "type": "uint256"
        }
      ],
      "stateMutability": "pure",
      "type": "function"
    },
    {
      "inputs": [
        {
          "internalType": "address",
          "name": "lpTokenPair",
          "type": "address"
        }
      ],
      "name": "getNebulaOracle",
      "outputs": [
        {
          "components": [
            {
              "internalType": "bool",
              "name": "initialized",
              "type": "bool"
            },
            {
              "internalType": "uint88",
              "name": "oracleId",
              "type": "uint88"
            },
            {
              "internalType": "string",
              "name": "name",
              "type": "string"
            },
            {
              "internalType": "address",
              "name": "underlying",
              "type": "address"
            },
            {
              "internalType": "contract IERC20[]",
              "name": "poolTokens",
              "type": "address[]"
            },
            {
              "internalType": "uint256[]",
              "name": "poolTokensDecimals",
              "type": "uint256[]"
            },
            {
              "internalType": "contract AggregatorV3Interface[]",
              "name": "priceFeeds",
              "type": "address[]"
            },
            {
              "internalType": "uint256[]",
              "name": "priceFeedsDecimals",
              "type": "uint256[]"
            }
          ],
          "internalType": "struct ICygnusNebula.NebulaOracle",
          "name": "",
          "type": "tuple"
        }
      ],
      "stateMutability": "view",
      "type": "function"
    },
    {
      "inputs": [
        {
          "internalType": "address",
          "name": "lpTokenPair",
          "type": "address"
        },
        {
          "internalType": "contract AggregatorV3Interface[]",
          "name": "aggregators",
          "type": "address[]"
        }
      ],
      "name": "initializeNebulaOracle",
      "outputs": [],
      "stateMutability": "nonpayable",
      "type": "function"
    },
    {
      "inputs": [
        {
          "internalType": "address",
          "name": "lpTokenPair",
          "type": "address"
        }
      ],
      "name": "lpTokenPriceUsd",
      "outputs": [
        {
          "internalType": "uint256",
          "name": "lpTokenPrice",
          "type": "uint256"
        }
      ],
      "stateMutability": "view",
      "type": "function"
    },
    {
      "inputs": [],
      "name": "name",
      "outputs": [
        {
          "internalType": "string",
          "name": "",
          "type": "string"
        }
      ],
      "stateMutability": "view",
      "type": "function"
    },
    {
      "inputs": [],
      "name": "nebulaRegistry",
      "outputs": [
        {
          "internalType": "address",
          "name": "",
          "type": "address"
        }
      ],
      "stateMutability": "view",
      "type": "function"
    },
    {
      "inputs": [],
      "name": "nebulaSize",
      "outputs": [
        {
          "internalType": "uint88",
          "name": "",
          "type": "uint88"
        }
      ],
      "stateMutability": "view",
      "type": "function"
    },
    {
      "inputs": [],
      "name": "version",
      "outputs": [
        {
          "internalType": "string",
          "name": "",
          "type": "string"
        }
      ],
      "stateMutability": "view",
      "type": "function"
    }
  ],
  "bytecode": "0x6101008060405234620001535760608162002dab803803809162000024828562000158565b833981010312620001535780516001600160a01b03808216808303620001535760208401519382851685036200015357604001519182168203620001535760049260209260e0526080526040519283809263313ce56760e01b82525afa9081156200014757600091620000fe575b5060a05260c052604051612c1890816200019382396080518161012d015260a051818181610d75015281816113fd015281816114d201526117ec015260c051818181610d4d01528181610ebe0152818161149101526117c3015260e0518181816101de01526102b00152f35b6020813d82116200013e575b81620001196020938362000158565b810103126200013a57519060ff821682036200013757503862000092565b80fd5b5080fd5b3d91506200010a565b6040513d6000823e3d90fd5b600080fd5b601f909101601f19168101906001600160401b038211908210176200017c57604052565b634e487b7160e01b600052604160045260246000fdfe6080604052600436101561001257600080fd5b60003560e01c806306fdde03146122ee578063131ad74e146118fa57806317e5a1a1146115a2578063193d1da914611421578063313ce567146113c55780633ef096d3146110005780634be1c79614610fa757806354fd4d5014610f1c5780638a790cf214610ee25780638eb6f8f014610e735780639ff631dd14610e35578063ba3941e714610dec578063cadbcc2114610d19578063d02c70e814610cab578063d9be853114610202578063e13d88ac14610193578063e6a69ab8146101565763f6b9fdfb146100e257600080fd5b346101515760007ffffffffffffffffffffffffffffffffffffffffffffffffffffffffffffffffc36011261015157602060405173ffffffffffffffffffffffffffffffffffffffff7f0000000000000000000000000000000000000000000000000000000000000000168152f35b600080fd5b346101515760007ffffffffffffffffffffffffffffffffffffffffffffffffffffffffffffffffc3601126101515760206040516301e133808152f35b346101515760007ffffffffffffffffffffffffffffffffffffffffffffffffffffffffffffffffc36011261015157602060405173ffffffffffffffffffffffffffffffffffffffff7f0000000000000000000000000000000000000000000000000000000000000000168152f35b346101515760407ffffffffffffffffffffffffffffffffffffffffffffffffffffffffffffffffc3601126101515760043573ffffffffffffffffffffffffffffffffffffffff811681036101515767ffffffffffffffff60243511610151573660236024350112156101515767ffffffffffffffff60243560040135116101515736602480356004013560051b81350101116101515773ffffffffffffffffffffffffffffffffffffffff7f0000000000000000000000000000000000000000000000000000000000000000163303610c7b5773ffffffffffffffffffffffffffffffffffffffff8116600052600060205260406000209081549160ff8316610c345761031560243560040135612690565b610322604051918261239b565b600460243501358082527fffffffffffffffffffffffffffffffffffffffffffffffffffffffffffffffe09061035790612690565b0136602083013761036d602435600401356126a8565b9161037d602435600401356126a8565b946040517f0dfe168100000000000000000000000000000000000000000000000000000000815260208160048173ffffffffffffffffffffffffffffffffffffffff8a165afa8015610a955773ffffffffffffffffffffffffffffffffffffffff91600091610c15575b50166103f4600085612724565b526040517fd21220a700000000000000000000000000000000000000000000000000000000815260208160048173ffffffffffffffffffffffffffffffffffffffff8a165afa8015610a955773ffffffffffffffffffffffffffffffffffffffff91600091610be6575b501661046b600185612724565b5260005b602435600401358110610aa157507fffffffffffffffffffffffffffffffffffffffff0000000000000000000000ff6bffffffffffffffffffffff0060015460081b1691161781556040517f06fdde0300000000000000000000000000000000000000000000000000000000815260008160048173ffffffffffffffffffffffffffffffffffffffff89165afa908115610a9557600091610a1b575b5080519067ffffffffffffffff821161086857819061052d6001850154612541565b601f81116109db575b50602090601f831160011461090f57600092610904575b50507fffffffffffffffffffffffffffffffffffffffffffffffffffffffffffffffff8260011b9260031b1c19161760018201555b6002810173ffffffffffffffffffffffffffffffffffffffff85167fffffffffffffffffffffffff0000000000000000000000000000000000000000825416179055815167ffffffffffffffff81116108685768010000000000000000811161086857600382016105f8828254818455836127b5565b6020840190600052602060002060005b8381106108da5750505050825167ffffffffffffffff8111610868576801000000000000000081116108685760048201610647828254818455836127b5565b6020850190600052602060002060005b8381106108c657505050506801000000000000000060243560040135116108685760058101805460046024350135808355610694929091906127b5565b602480350192836005830160005260206000209060005b6024356004013581106108ab57505050855167ffffffffffffffff81116108685768010000000000000000811161086857600683016106ef828254818455836127b5565b6020880190600052602060002060005b838110610897575050505060017fffffffffffffffffffffffffffffffffffffffffffffffffffffffffffffff00835416178255600154680100000000000000008110156108685760209373ffffffffffffffffffffffffffffffffffffffff6affffffffffffffffffffff6107d595826107858660016107c7980160015560016124fa565b8c829392549160031b83811b93849216901b169119161790555460081c16976040519860018a52878a015216604088015260e0606088015260e08701906124b0565b90858203608087015261247c565b83810360a0850152602435600401358152019060005b602435600401358110610832577f558b57994e63dd3105e23dd47f60a4074d50167448cd407bc457b8a29e3dab0d848061082d868983820360c085015261247c565b0390a1005b909182359073ffffffffffffffffffffffffffffffffffffffff82168092036101515760208160019382935201930191016107eb565b7f4e487b7100000000000000000000000000000000000000000000000000000000600052604160045260246000fd5b6001906020845194019381840155016106ff565b60019060206108b98461277d565b93019281850155016106ab565b600190602084519401938184015501610657565b600190602073ffffffffffffffffffffffffffffffffffffffff8551169401938184015501610608565b01519050878061054d565b9250600184016000526020600020906000935b7fffffffffffffffffffffffffffffffffffffffffffffffffffffffffffffffe0841685106109c05760019450837fffffffffffffffffffffffffffffffffffffffffffffffffffffffffffffffe0811610610989575b505050811b016001820155610582565b01517fffffffffffffffffffffffffffffffffffffffffffffffffffffffffffffffff60f88460031b161c19169055878080610979565b81810151835560209485019460019093019290910190610922565b610a0b90600186016000526020600020601f850160051c81019160208610610a11575b601f0160051c019061279e565b88610536565b90915081906109fe565b90503d806000833e610a2d818361239b565b8101906020818303126101515780519067ffffffffffffffff8211610151570181601f82011215610151578051610a63816123dc565b92610a71604051948561239b565b8184526020828401011161015157610a8f9160208085019101612416565b8661050b565b6040513d6000823e3d90fd5b80602073ffffffffffffffffffffffffffffffffffffffff610ac560049488612724565b5116604051938480927f313ce5670000000000000000000000000000000000000000000000000000000082525afa918215610a955760049260ff91600091610bc7575b5016610b148288612724565b52602073ffffffffffffffffffffffffffffffffffffffff610b3e60248460051b8135010161277d565b16604051938480927f313ce5670000000000000000000000000000000000000000000000000000000082525afa918215610a9557610b939260ff91600091610b98575b5016610b8d828a612724565b526126f7565b61046f565b610bba915060203d602011610bc0575b610bb2818361239b565b810190612764565b8a610b81565b503d610ba8565b610be0915060203d602011610bc057610bb2818361239b565b8a610b08565b610c08915060203d602011610c0e575b610c00818361239b565b810190612738565b8861045e565b503d610bf6565b610c2e915060203d602011610c0e57610c00818361239b565b886103e7565b60248273ffffffffffffffffffffffffffffffffffffffff604051917f48a979dc000000000000000000000000000000000000000000000000000000008352166004820152fd5b60246040517f47a51a28000000000000000000000000000000000000000000000000000000008152336004820152fd5b346101515760207ffffffffffffffffffffffffffffffffffffffffffffffffffffffffffffffffc360112610151576004356001548110156101515773ffffffffffffffffffffffffffffffffffffffff610d0960209260016124fa565b9190546040519260031b1c168152f35b346101515760007ffffffffffffffffffffffffffffffffffffffffffffffffffffffffffffffffc36011261015157610d717f0000000000000000000000000000000000000000000000000000000000000000612642565b60ff7f00000000000000000000000000000000000000000000000000000000000000001660120360ff8111610dbd57602091610daf610db592612631565b906125f8565b604051908152f35b7f4e487b7100000000000000000000000000000000000000000000000000000000600052601160045260246000fd5b346101515760007ffffffffffffffffffffffffffffffffffffffffffffffffffffffffffffffffc3601126101515760206affffffffffffffffffffff60015416604051908152f35b346101515760007ffffffffffffffffffffffffffffffffffffffffffffffffffffffffffffffffc3601126101515760206040516402540be4008152f35b346101515760007ffffffffffffffffffffffffffffffffffffffffffffffffffffffffffffffffc36011261015157602060405173ffffffffffffffffffffffffffffffffffffffff7f0000000000000000000000000000000000000000000000000000000000000000168152f35b346101515760007ffffffffffffffffffffffffffffffffffffffffffffffffffffffffffffffffc36011261015157602060405160088152f35b346101515760007ffffffffffffffffffffffffffffffffffffffffffffffffffffffffffffffffc36011261015157610fa3610f5860056123dc565b610f65604051918261239b565b600581527f312e302e300000000000000000000000000000000000000000000000000000006020820152604051918291602083526020830190612439565b0390f35b346101515760007ffffffffffffffffffffffffffffffffffffffffffffffffffffffffffffffffc3601126101515760206040517f6a627842000000000000000000000000000000000000000000000000000000008152f35b346101515760207ffffffffffffffffffffffffffffffffffffffffffffffffffffffffffffffffc3601126101515760043573ffffffffffffffffffffffffffffffffffffffff811680910361015157606060e06040516110636101008261239b565b60008152600060208201528260408201526000838201528260808201528260a08201528260c0820152015260005260006020526040600020604051906110ab6101008361239b565b6affffffffffffffffffffff815460ff81161515845260081c16602083015260018101604051908160008254926110e184612541565b8084529360018116908115611385575060011461133e575b506111069250038261239b565b604083015273ffffffffffffffffffffffffffffffffffffffff6002820154166060830152600381016040518082602082945493848152019060005260206000209260005b81811061130f5750506111609250038261239b565b608083015261117160048201612594565b60a08301526005810160405190816020825491828152019160005260206000209060005b8181106112e357866111bb600688886111b0818a038261239b565b60c085015201612594565b60e0820152604051602081528151151560208201526affffffffffffffffffffff602083015116604082015261120260408301516101006060840152610120830190612439565b73ffffffffffffffffffffffffffffffffffffffff606084015116608083015261127361125f6080850151927fffffffffffffffffffffffffffffffffffffffffffffffffffffffffffffffe093848683030160a08701526124b0565b60a0850151838583030160c086015261247c565b9260c081015193828482030160e08501526020808651928381520195019060005b8181106112b7578580610fa3898860e0890151908483030161010085015261247c565b825173ffffffffffffffffffffffffffffffffffffffff16875260209687019690920191600101611294565b825473ffffffffffffffffffffffffffffffffffffffff16845260209093019260019283019201611195565b845473ffffffffffffffffffffffffffffffffffffffff1683526001948501948694506020909301920161114b565b90506000929192526020600020906000915b81831061136957505090602061110692820101866110f9565b6020919350806001915483858801015201910190918392611350565b602093506111069592507fffffffffffffffffffffffffffffffffffffffffffffffffffffffffffffff0091501682840152151560051b820101866110f9565b346101515760007ffffffffffffffffffffffffffffffffffffffffffffffffffffffffffffffffc36011261015157602060405160ff7f0000000000000000000000000000000000000000000000000000000000000000168152f35b346101515760207ffffffffffffffffffffffffffffffffffffffffffffffffffffffffffffffffc3601126101515760043573ffffffffffffffffffffffffffffffffffffffff8082168092036101515781600052600060205260406000209160ff8354161561157157506114b57f0000000000000000000000000000000000000000000000000000000000000000612642565b60039283810154916114c6836126a8565b936005600093019560ff7f0000000000000000000000000000000000000000000000000000000000000000166012039660ff8811945b8681106115195760405160208082528190610fa39082018b61247c565b80611535856115298994866124fa565b905490871b1c16612642565b91610dbd5761156261156c92670de0b6b3a764000061155c6115568e612631565b8a6125e5565b916127d8565b610b8d828b612724565b6114fc565b602490604051907ffb642b4d0000000000000000000000000000000000000000000000000000000082526004820152fd5b34610151576020807ffffffffffffffffffffffffffffffffffffffffffffffffffffffffffffffffc3601126101515773ffffffffffffffffffffffffffffffffffffffff600435818116908181036101515760008091604051868101907f6a6278420000000000000000000000000000000000000000000000000000000082528360248201526024815261163860448261239b565b5191612710fa503d156118f3573d61164f816123dc565b9061165d604051928361239b565b81523d60008583013e5b516118c957806000526000835260406000209060ff82541615611571576116b360058301936116a060016116ad836116a060008a6124fa565b90549060031b1c16612642565b966124fa565b91604051907f0902f1ac000000000000000000000000000000000000000000000000000000008252606082600481865afa938415610a95578692600090600096611868575b5061173e60016117526117589594610daf9461174a600461172d819d9e6dffffffffffffffffffffffffffff809516906125e5565b980197610daf61173e60008b6124fa565b90549060031b1c612682565b9b16906125e5565b936124fa565b91604051938480927f18160ddd0000000000000000000000000000000000000000000000000000000082525afa918215610a9557600092611837575b5061179f91926128b5565b90671bc16d674ec800009180830292830403610dbd576117be916125f8565b6117e77f0000000000000000000000000000000000000000000000000000000000000000612642565b9060ff7f0000000000000000000000000000000000000000000000000000000000000000166012039160ff8311610dbd5761155c670de0b6b3a764000091611831610db595612631565b906125e5565b91508382813d8311611861575b61184e818361239b565b810103126101515761179f915191611794565b503d611844565b9295505091506060813d82116118c1575b816118866060938361239b565b810103126101515761189781612667565b9360406118a5888401612667565b92015163ffffffff81160361015157909386929061173e6116f8565b3d9150611879565b60046040517f47a08e96000000000000000000000000000000000000000000000000000000008152fd5b6060611667565b346101515760607ffffffffffffffffffffffffffffffffffffffffffffffffffffffffffffffffc36011261015157670de0b6b3a76400006714057b7ef767814f8082611948600435612a65565b020491602492828261195a8635612a65565b0204818103918183116122c0576301e1338080840293840414911417156122925761198890604435906125f8565b91680736ea4425c11ac631831015612262576706f05b59d3b2000090829302010490680a688906bd8b00000082101561223357809160401b0490778000000000000000000000000000000000000000000000006780000000000000008316612214575b6740000000000000008316612201575b67200000000000000083166121ee575b67100000000000000083166121db575b67080000000000000083166121c8575b67040000000000000083166121b5575b67020000000000000083166121a2575b670100000000000000831661218f575b6680000000000000831661217c575b66400000000000008316612169575b66200000000000008316612156575b66100000000000008316612143575b66080000000000008316612130575b6604000000000000831661211d575b6602000000000000831661210a575b660100000000000083166120f7575b6580000000000083166120e4575b6540000000000083166120d1575b6520000000000083166120be575b6510000000000083166120ab575b650800000000008316612098575b650400000000008316612085575b650200000000008316612072575b65010000000000831661205f575b648000000000831661204c575b6440000000008316612039575b6420000000008316612026575b6410000000008316612013575b6408000000008316612000575b6404000000008316611fed575b6402000000008316611fda575b6401000000008316611fc7575b63800000008316611fb4575b63400000008316611fa1575b63200000008316611f8e575b63100000008316611f7b575b63080000008316611f68575b63040000008316611f55575b63020000008316611f42575b63010000008316611f2f575b628000008316611f1c575b624000008316611f09575b622000008316611ef6575b621000008316611ee3575b620800008316611ed0575b620400008316611ebd575b620200008316611eaa575b620100008316611e97575b6180008316611e84575b6140008316611e71575b6120008316611e5e575b6110008316611e4b575b6108008316611e38575b6104008316611e25575b6102008316611e12575b6101008316611dff575b60808316611dec575b60408316611dd9575b60208316611dc6575b60108316611db3575b60088316611da0575b60048316611d8d575b60028316611d7a575b60018316611d67575b029060401c60bf031c7ffffffffffffffffffffffffffffffffffffffffffffffffff21f494c589c00008101908111611d3957602090604051908152f35b507f4e487b710000000000000000000000000000000000000000000000000000000060005260116004526000fd5b680100000000000000010260401c611cfb565b680100000000000000010260401c611cf2565b680100000000000000030260401c611ce9565b680100000000000000060260401c611ce0565b6801000000000000000b0260401c611cd7565b680100000000000000160260401c611cce565b6801000000000000002c0260401c611cc5565b680100000000000000590260401c611cbc565b680100000000000000b10260401c611cb3565b680100000000000001630260401c611ca9565b680100000000000002c60260401c611c9f565b6801000000000000058c0260401c611c95565b68010000000000000b170260401c611c8b565b6801000000000000162e0260401c611c81565b68010000000000002c5d0260401c611c77565b680100000000000058b90260401c611c6d565b6801000000000000b1720260401c611c63565b680100000000000162e40260401c611c58565b6801000000000002c5c80260401c611c4d565b68010000000000058b910260401c611c42565b680100000000000b17210260401c611c37565b68010000000000162e430260401c611c2c565b680100000000002c5c860260401c611c21565b6801000000000058b90c0260401c611c16565b68010000000000b172180260401c611c0b565b6801000000000162e4300260401c611bff565b68010000000002c5c8600260401c611bf3565b680100000000058b90c00260401c611be7565b6801000000000b17217f0260401c611bdb565b680100000000162e42ff0260401c611bcf565b6801000000002c5c85fe0260401c611bc3565b68010000000058b90bfc0260401c611bb7565b680100000000b17217f80260401c611bab565b68010000000162e42ff10260401c611b9e565b680100000002c5c85fe30260401c611b91565b6801000000058b90bfce0260401c611b84565b68010000000b17217fbb0260401c611b77565b6801000000162e42fff00260401c611b6a565b68010000002c5c8601cc0260401c611b5d565b680100000058b90c0b490260401c611b50565b6801000000b1721835510260401c611b43565b680100000162e430e5a20260401c611b35565b6801000002c5c863b73f0260401c611b27565b68010000058b90cf1e6e0260401c611b19565b680100000b1721bcfc9a0260401c611b0b565b68010000162e43f4f8310260401c611afd565b680100002c5c89d5ec6d0260401c611aef565b6801000058b91b5bc9ae0260401c611ae1565b68010000b17255775c040260401c611ad3565b6801000162e525ee05470260401c611ac4565b68010002c5cc37da94920260401c611ab5565b680100058ba01fb9f96d0260401c611aa6565b6801000b175effdc76ba0260401c611a97565b680100162f3904051fa10260401c611a88565b6801002c605e2e8cec500260401c611a79565b68010058c86da1c09ea20260401c611a6a565b680100b1afa5abcbed610260401c611a5b565b68010163da9fb33356d80260401c611a4b565b680102c9a3e778060ee70260401c611a3b565b6801059b0d31585743ae0260401c611a2b565b68010b5586cf9890f62a0260401c611a1b565b6801172b83c7d517adce0260401c611a0b565b6801306fe0a31b7152df0260401c6119fb565b5077b504f333f9de6484800000000000000000000000000000006119eb565b50604051907f4a4f26f10000000000000000000000000000000000000000000000000000000082526004820152fd5b5050604051907f315da0680000000000000000000000000000000000000000000000000000000082526004820152fd5b837f4e487b710000000000000000000000000000000000000000000000000000000060005260116004526000fd5b857f4e487b710000000000000000000000000000000000000000000000000000000060005260116004526000fd5b346101515760007ffffffffffffffffffffffffffffffffffffffffffffffffffffffffffffffffc36011261015157610fa361232a60296123dc565b612337604051918261239b565b602981527f4379676e75732d4e6562756c613a20436f6e7374616e742d50726f647563742060208201527f4c50204f7261636c6500000000000000000000000000000000000000000000006040820152604051918291602083526020830190612439565b90601f7fffffffffffffffffffffffffffffffffffffffffffffffffffffffffffffffe0910116810190811067ffffffffffffffff82111761086857604052565b67ffffffffffffffff811161086857601f017fffffffffffffffffffffffffffffffffffffffffffffffffffffffffffffffe01660200190565b60005b8381106124295750506000910152565b8181015183820152602001612419565b907fffffffffffffffffffffffffffffffffffffffffffffffffffffffffffffffe0601f60209361247581518092818752878088019101612416565b0116010190565b90815180825260208080930193019160005b82811061249c575050505090565b83518552938101939281019260010161248e565b90815180825260208080930193019160005b8281106124d0575050505090565b835173ffffffffffffffffffffffffffffffffffffffff16855293810193928101926001016124c2565b80548210156125125760005260206000200190600090565b7f4e487b7100000000000000000000000000000000000000000000000000000000600052603260045260246000fd5b90600182811c9216801561258a575b602083101461255b57565b7f4e487b7100000000000000000000000000000000000000000000000000000000600052602260045260246000fd5b91607f1691612550565b9060405191828154918282526020928383019160005283600020936000905b8282106125cb575050506125c99250038361239b565b565b8554845260019586019588955093810193909101906125b3565b81810292918115918404141715610dbd57565b8115612602570490565b7f4e487b7100000000000000000000000000000000000000000000000000000000600052601260045260246000fd5b60ff16604d8111610dbd57600a0a90565b604060006004601c6402540be4009463feaf968c84525afa601f3d1116602051020290565b51906dffffffffffffffffffffffffffff8216820361015157565b604d8111610dbd57600a0a90565b67ffffffffffffffff81116108685760051b60200190565b906126b282612690565b6126bf604051918261239b565b8281527fffffffffffffffffffffffffffffffffffffffffffffffffffffffffffffffe06126ed8294612690565b0190602036910137565b7fffffffffffffffffffffffffffffffffffffffffffffffffffffffffffffffff8114610dbd5760010190565b80518210156125125760209160051b010190565b90816020910312610151575173ffffffffffffffffffffffffffffffffffffffff811681036101515790565b90816020910312610151575160ff811681036101515790565b3573ffffffffffffffffffffffffffffffffffffffff811681036101515790565b8181106127a9575050565b6000815560010161279e565b918181106127c257505050565b6125c9926000526020600020918201910161279e565b90917fffffffffffffffffffffffffffffffffffffffffffffffffffffffffffffffff83830992808302928380861095039480860395146128a5578285101561286e57908291096001821901821680920460028082600302188083028203028083028203028083028203028083028203028083028203028092029003029360018380600003040190848311900302920304170290565b60448584604051917f773cc18c00000000000000000000000000000000000000000000000000000000835260048301526024820152fd5b5050906128b292506125f8565b90565b80156129105781810291806128ca83856125f8565b036128da5750506128b290612917565b60449250604051917ec3efdf00000000000000000000000000000000000000000000000000000000835260048301526024820152fd5b5050600090565b8015612a5f57806001700100000000000000000000000000000000831015612a49575b600882680100000000000000006129f1941015612a3c575b640100000000811015612a2f575b62010000811015612a23575b610100811015612a17575b6010811015612a0a575b1015612a02575b61299281846125f8565b0160011c6129a081846125f8565b0160011c6129ae81846125f8565b0160011c6129bc81846125f8565b0160011c6129ca81846125f8565b0160011c6129d881846125f8565b0160011c6129e681846125f8565b0160011c80926125f8565b908181106129fd575090565b905090565b60011b612988565b60041c9160021b91612981565b811c9160041b91612977565b60101c91811b9161296c565b60201c9160101b91612960565b60401c9160201b91612952565b5050608081901c6801000000000000000061293a565b50600090565b90670de0b6b3a7640000808310612bda57600092818104700100000000000000000000000000000000811015612bcf575b68010000000000000000811015612bba575b640100000000811015612ba5575b62010000811015612b90575b610100811015612b7b575b6010811015612b66575b6004811015612b51575b60021115612b3f575b818402931c90808214612b3b576706f05b59d3b2000091825b612b0c57505050565b808291020491671bc16d674ec80000831015612b2d575b60011c9182612b03565b809294019360011c91612b23565b5050565b9260018101809111610dbd5792612aea565b60021c9360028101809111610dbd5793612ae1565b60041c9360048101809111610dbd5793612ad7565b60081c9360088101809111610dbd5793612acd565b60101c9360108101809111610dbd5793612ac2565b60201c9360208101809111610dbd5793612ab6565b60401c9360408101809111610dbd5793612aa8565b60809450841c612a96565b602483604051907fd88504dc0000000000000000000000000000000000000000000000000000000082526004820152fdfea164736f6c6343000811000a",
  "linkReferences": {},
  "deployedLinkReferences": {}
}