{
  "_format": "hh-sol-artifact-1",
  "contractName": "CygnusNebulaOracle",
  "sourceName": "contracts/cygnus-oracle/CygnusNebulaOracle.sol",
  "abi": [
    {
      "inputs": [
        {
          "internalType": "contract IERC20",
          "name": "denomination",
          "type": "address"
        },
        {
          "internalType": "contract AggregatorV3Interface",
          "name": "denominationPrice",
          "type": "address"
        }
      ],
      "stateMutability": "nonpayable",
      "type": "constructor"
    },
    {
      "inputs": [
        {
          "internalType": "address",
          "name": "pendingAdmin",
          "type": "address"
        }
      ],
      "name": "CygnusNebulaOracle__AdminCantBeZero",
      "type": "error"
    },
    {
      "inputs": [
        {
          "internalType": "address",
          "name": "msgSender",
          "type": "address"
        }
      ],
      "name": "CygnusNebulaOracle__MsgSenderNotAdmin",
      "type": "error"
    },
    {
      "inputs": [
        {
          "internalType": "contract IDexPair",
          "name": "lpTokenPair",
          "type": "address"
        }
      ],
      "name": "CygnusNebulaOracle__NebulaRecordAlreadyInitialized",
      "type": "error"
    },
    {
      "inputs": [
        {
          "internalType": "contract IDexPair",
          "name": "lpTokenPair",
          "type": "address"
        }
      ],
      "name": "CygnusNebulaOracle__NebulaRecordNotInitialized",
      "type": "error"
    },
    {
      "inputs": [
        {
          "internalType": "address",
          "name": "lpTokenPair",
          "type": "address"
        }
      ],
      "name": "CygnusNebulaOracle__PairAlreadyInitialized",
      "type": "error"
    },
    {
      "inputs": [
        {
          "internalType": "address",
          "name": "lpTokenPair",
          "type": "address"
        }
      ],
      "name": "CygnusNebulaOracle__PairNotInitialized",
      "type": "error"
    },
    {
      "inputs": [
        {
          "internalType": "address",
          "name": "pendingAdmin",
          "type": "address"
        }
      ],
      "name": "CygnusNebulaOracle__PendingAdminAlreadySet",
      "type": "error"
    },
    {
      "inputs": [
        {
          "internalType": "contract IERC20",
          "name": "token",
          "type": "address"
        },
        {
          "internalType": "uint256",
          "name": "decimals",
          "type": "uint256"
        }
      ],
      "name": "IERC20Normalizer__TokenDecimalsGreaterThan18",
      "type": "error"
    },
    {
      "inputs": [
        {
          "internalType": "contract IERC20",
          "name": "token",
          "type": "address"
        }
      ],
      "name": "IERC20Normalizer__TokenDecimalsZero",
      "type": "error"
    },
    {
      "inputs": [
        {
          "internalType": "uint256",
          "name": "x",
          "type": "uint256"
        }
      ],
      "name": "PRBMathUD60x18__Exp2InputTooBig",
      "type": "error"
    },
    {
      "inputs": [
        {
          "internalType": "uint256",
          "name": "x",
          "type": "uint256"
        }
      ],
      "name": "PRBMathUD60x18__ExpInputTooBig",
      "type": "error"
    },
    {
      "inputs": [
        {
          "internalType": "uint256",
          "name": "x",
          "type": "uint256"
        },
        {
          "internalType": "uint256",
          "name": "y",
          "type": "uint256"
        }
      ],
      "name": "PRBMathUD60x18__GmOverflow",
      "type": "error"
    },
    {
      "inputs": [
        {
          "internalType": "uint256",
          "name": "x",
          "type": "uint256"
        }
      ],
      "name": "PRBMathUD60x18__LogInputTooSmall",
      "type": "error"
    },
    {
      "inputs": [
        {
          "internalType": "uint256",
          "name": "prod1",
          "type": "uint256"
        },
        {
          "internalType": "uint256",
          "name": "denominator",
          "type": "uint256"
        }
      ],
      "name": "PRBMath__MulDivOverflow",
      "type": "error"
    },
    {
      "inputs": [],
      "name": "ReentrantCall",
      "type": "error"
    },
    {
      "anonymous": false,
      "inputs": [
        {
          "indexed": false,
          "internalType": "bool",
          "name": "initialized",
          "type": "bool"
        },
        {
          "indexed": false,
          "internalType": "uint88",
          "name": "oracleId",
          "type": "uint88"
        },
        {
          "indexed": false,
          "internalType": "address",
          "name": "lpTokenPair",
          "type": "address"
        },
        {
          "indexed": false,
          "internalType": "contract AggregatorV3Interface",
          "name": "priceFeedA",
          "type": "address"
        },
        {
          "indexed": false,
          "internalType": "contract AggregatorV3Interface",
          "name": "priceFeedB",
          "type": "address"
        }
      ],
      "name": "InitializeCygnusNebula",
      "type": "event"
    },
    {
      "anonymous": false,
      "inputs": [
        {
          "indexed": false,
          "internalType": "address",
          "name": "oracleOldAdmin",
          "type": "address"
        },
        {
          "indexed": false,
          "internalType": "address",
          "name": "oracleNewAdmin",
          "type": "address"
        }
      ],
      "name": "NewOracleAdmin",
      "type": "event"
    },
    {
      "anonymous": false,
      "inputs": [
        {
          "indexed": false,
          "internalType": "address",
          "name": "oracleCurrentAdmin",
          "type": "address"
        },
        {
          "indexed": false,
          "internalType": "address",
          "name": "oraclePendingAdmin",
          "type": "address"
        }
      ],
      "name": "NewOraclePendingAdmin",
      "type": "event"
    },
    {
      "inputs": [],
      "name": "SECONDS_PER_YEAR",
      "outputs": [
        {
          "internalType": "uint256",
          "name": "",
          "type": "uint256"
        }
      ],
      "stateMutability": "view",
      "type": "function"
    },
    {
      "inputs": [],
      "name": "admin",
      "outputs": [
        {
          "internalType": "address",
          "name": "",
          "type": "address"
        }
      ],
      "stateMutability": "view",
      "type": "function"
    },
    {
      "inputs": [
        {
          "internalType": "uint256",
          "name": "",
          "type": "uint256"
        }
      ],
      "name": "allNebulas",
      "outputs": [
        {
          "internalType": "address",
          "name": "",
          "type": "address"
        }
      ],
      "stateMutability": "view",
      "type": "function"
    },
    {
      "inputs": [
        {
          "internalType": "address",
          "name": "lpTokenPair",
          "type": "address"
        }
      ],
      "name": "assetPricesUsd",
      "outputs": [
        {
          "internalType": "uint256",
          "name": "tokenPriceA",
          "type": "uint256"
        },
        {
          "internalType": "uint256",
          "name": "tokenPriceB",
          "type": "uint256"
        }
      ],
      "stateMutability": "view",
      "type": "function"
    },
    {
      "inputs": [],
      "name": "decimals",
      "outputs": [
        {
          "internalType": "uint8",
          "name": "",
          "type": "uint8"
        }
      ],
      "stateMutability": "view",
      "type": "function"
    },
    {
      "inputs": [],
      "name": "denominationAggregator",
      "outputs": [
        {
          "internalType": "contract AggregatorV3Interface",
          "name": "",
          "type": "address"
        }
      ],
      "stateMutability": "view",
      "type": "function"
    },
    {
      "inputs": [],
      "name": "denominationToken",
      "outputs": [
        {
          "internalType": "contract IERC20",
          "name": "",
          "type": "address"
        }
      ],
      "stateMutability": "view",
      "type": "function"
    },
    {
      "inputs": [],
      "name": "denominationTokenPrice",
      "outputs": [
        {
          "internalType": "uint256",
          "name": "",
          "type": "uint256"
        }
      ],
      "stateMutability": "view",
      "type": "function"
    },
    {
      "inputs": [
        {
          "internalType": "uint256",
          "name": "exchangeRateLast",
          "type": "uint256"
        },
        {
          "internalType": "uint256",
          "name": "exchangeRateNow",
          "type": "uint256"
        },
        {
          "internalType": "uint256",
          "name": "timeElapsed",
          "type": "uint256"
        }
      ],
      "name": "getAnnualizedLogApr",
      "outputs": [
        {
          "internalType": "uint256",
          "name": "",
          "type": "uint256"
        }
      ],
      "stateMutability": "pure",
      "type": "function"
    },
    {
      "inputs": [
        {
          "internalType": "address",
          "name": "",
          "type": "address"
        }
      ],
      "name": "getNebula",
      "outputs": [
        {
          "internalType": "bool",
          "name": "initialized",
          "type": "bool"
        },
        {
          "internalType": "uint88",
          "name": "oracleId",
          "type": "uint88"
        },
        {
          "internalType": "address",
          "name": "underlying",
          "type": "address"
        },
        {
          "internalType": "contract IERC20",
          "name": "token0",
          "type": "address"
        },
        {
          "internalType": "contract IERC20",
          "name": "token1",
          "type": "address"
        },
        {
          "internalType": "contract AggregatorV3Interface",
          "name": "priceFeedA",
          "type": "address"
        },
        {
          "internalType": "contract AggregatorV3Interface",
          "name": "priceFeedB",
          "type": "address"
        }
      ],
      "stateMutability": "view",
      "type": "function"
    },
    {
      "inputs": [
        {
          "internalType": "address",
          "name": "lpTokenPair",
          "type": "address"
        },
        {
          "internalType": "contract AggregatorV3Interface",
          "name": "aggregatorA",
          "type": "address"
        },
        {
          "internalType": "contract AggregatorV3Interface",
          "name": "aggregatorB",
          "type": "address"
        }
      ],
      "name": "initializeNebula",
      "outputs": [],
      "stateMutability": "nonpayable",
      "type": "function"
    },
    {
      "inputs": [
        {
          "internalType": "address",
          "name": "lpTokenPair",
          "type": "address"
        }
      ],
      "name": "lpTokenPriceUsd",
      "outputs": [
        {
          "internalType": "uint256",
          "name": "lpTokenPrice",
          "type": "uint256"
        }
      ],
      "stateMutability": "view",
      "type": "function"
    },
    {
      "inputs": [],
      "name": "name",
      "outputs": [
        {
          "internalType": "string",
          "name": "",
          "type": "string"
        }
      ],
      "stateMutability": "view",
      "type": "function"
    },
    {
      "inputs": [],
      "name": "nebulaSize",
      "outputs": [
        {
          "internalType": "uint24",
          "name": "",
          "type": "uint24"
        }
      ],
      "stateMutability": "view",
      "type": "function"
    },
    {
      "inputs": [],
      "name": "pendingAdmin",
      "outputs": [
        {
          "internalType": "address",
          "name": "",
          "type": "address"
        }
      ],
      "stateMutability": "view",
      "type": "function"
    },
    {
      "inputs": [],
      "name": "setOracleAdmin",
      "outputs": [],
      "stateMutability": "nonpayable",
      "type": "function"
    },
    {
      "inputs": [
        {
          "internalType": "address",
          "name": "newPendingAdmin",
          "type": "address"
        }
      ],
      "name": "setOraclePendingAdmin",
      "outputs": [],
      "stateMutability": "nonpayable",
      "type": "function"
    },
    {
      "inputs": [],
      "name": "symbol",
      "outputs": [
        {
          "internalType": "string",
          "name": "",
          "type": "string"
        }
      ],
      "stateMutability": "view",
      "type": "function"
    },
    {
      "inputs": [],
      "name": "version",
      "outputs": [
        {
          "internalType": "string",
          "name": "",
          "type": "string"
        }
      ],
      "stateMutability": "view",
      "type": "function"
    }
  ],
  "bytecode": "0x60e06040523480156200001157600080fd5b506040516200263038038062002630833981016040819052620000349162000244565b6000805460ff19166001179055620000493390565b600480546001600160a01b0319166001600160a01b03928316178155606084901b6001600160601b0319166080526040805163313ce56760e01b815290519285169263313ce56792828101926020929190829003018186803b158015620000af57600080fd5b505afa158015620000c4573d6000803e3d6000fd5b505050506040513d601f19601f82011682018060405250810190620000ea919062000282565b60f81b7fff000000000000000000000000000000000000000000000000000000000000001660a052606081901b6001600160601b03191660c0526200012f8162000138565b505050620002c5565b600080826001600160a01b031663313ce5676040518163ffffffff1660e01b815260040160206040518083038186803b1580156200017557600080fd5b505afa1580156200018a573d6000803e3d6000fd5b505050506040513d601f19601f82011682018060405250810190620001b0919062000282565b60ff16905080620001e45760405163fe3c012960e01b81526001600160a01b03841660048201526024015b60405180910390fd5b60128111156200021a576040516396434c7f60e01b81526001600160a01b038416600482015260248101829052604401620001db565b6001600160a01b039092166000908152600160205260409020601292909203600a0a918290555090565b6000806040838503121562000257578182fd5b82516200026481620002ac565b60208401519092506200027781620002ac565b809150509250929050565b60006020828403121562000294578081fd5b815160ff81168114620002a5578182fd5b9392505050565b6001600160a01b0381168114620002c257600080fd5b50565b60805160601c60a05160f81c60c05160601c6122fa620003366000396000818161020f015281816106bc01528181610758015281816109ae01528181610a6e0152611052015260008181610182015281816107ac01528181610a9a0152610ae60152600061036801526122fa6000f3fe608060405234801561001057600080fd5b50600436106100f15760003560e01c806306fdde03146100f657806317e5a1a114610114578063193d1da914610135578063267822471461015d578063313ce5671461017d57806351fcba9d146101b657806354fd4d50146101cb57806362bbb6e0146101ef57806365c9b257146101f75780638eb6f8f01461020a5780638fd1c2131461023157806395d89b4114610244578063ba3941e71461026c578063cadbcc2114610283578063d02c70e81461028b578063e6a69ab81461029e578063f0ac40c4146102a9578063f6b9fdfb14610363578063f851a4401461038a575b600080fd5b6100fe61039d565b60405161010b91906120a2565b60405180910390f35b610127610122366004611ee4565b6103b9565b60405190815260200161010b565b610148610143366004611ee4565b610807565b6040805192835260208301919091520161010b565b600554610170906001600160a01b031681565b60405161010b9190612074565b6101a47f000000000000000000000000000000000000000000000000000000000000000081565b60405160ff909116815260200161010b565b6101c96101c4366004611f1c565b610b39565b005b6100fe604051806040016040528060058152602001640312e302e360dc1b81525081565b6101c9610e3e565b6101c9610205366004611ee4565b610f1f565b6101707f000000000000000000000000000000000000000000000000000000000000000081565b61012761023f366004611fd9565b610fda565b6100fe604051806040016040528060098152602001684379674e6562756c6160b81b81525081565b60035460405162ffffff909116815260200161010b565b61012761104d565b610170610299366004611fa9565b6110ec565b6101276301e1338081565b6103146102b7366004611ee4565b60026020819052600091825260409091208054600182015492820154600383015460049093015460ff8316946001600160581b03610100850416946001600160a01b03600160601b90950485169491821693821692908216911687565b6040805197151588526001600160581b0390961660208801526001600160a01b0394851695870195909552918316606086015282166080850152811660a08401521660c082015260e00161010b565b6101707f000000000000000000000000000000000000000000000000000000000000000081565b600454610170906001600160a01b031681565b6040518060600160405280602281526020016122a36022913981565b6001600160a01b038082166000908152600260208181526040808420815160e081018352815460ff811615158083526001600160581b0361010083041695830195909552600160601b900487169281019290925260018101548616606083015292830154851660808201526003830154851660a082015260049092015490931660c08201529091610468578260405163fb642b4d60e01b815260040161045f9190612074565b60405180910390fd5b600080846001600160a01b0316630902f1ac6040518163ffffffff1660e01b815260040160606040518083038186803b1580156104a457600080fd5b505afa1580156104b8573d6000803e3d6000fd5b505050506040513d601f19601f820116820180604052508101906104dc9190611f66565b50915091506000856001600160a01b03166318160ddd6040518163ffffffff1660e01b815260040160206040518083038186803b15801561051c57600080fd5b505afa158015610530573d6000803e3d6000fd5b505050506040513d601f19601f820116820180604052508101906105549190611fc1565b9050600061056f8560600151856001600160701b0316611116565b9050600061058a8660800151856001600160701b0316611116565b905060006105988383611150565b905060008760a001516001600160a01b031663feaf968c6040518163ffffffff1660e01b815260040160a06040518083038186803b1580156105d957600080fd5b505afa1580156105ed573d6000803e3d6000fd5b505050506040513d601f19601f820116820180604052508101906106119190612004565b50505091505060008860c001516001600160a01b031663feaf968c6040518163ffffffff1660e01b815260040160a06040518083038186803b15801561065657600080fd5b505afa15801561066a573d6000803e3d6000fd5b505050506040513d601f19601f8201168201806040525081019061068e9190612004565b50505091505060006106a48a60a0015184611116565b905060006106b68b60c0015184611116565b905060007f00000000000000000000000000000000000000000000000000000000000000006001600160a01b031663feaf968c6040518163ffffffff1660e01b815260040160a06040518083038186803b15801561071357600080fd5b505afa158015610727573d6000803e3d6000fd5b505050506040513d601f19601f8201168201806040525081019061074b9190612004565b505050915050600061077d7f000000000000000000000000000000000000000000000000000000000000000083611116565b9050600061078b8585611150565b9050600061079a89838e6111b7565b6107a590600261221b565b90506107d27f00000000000000000000000000000000000000000000000000000000000000006012612251565b6107dd90600a612170565b6107e78285611293565b6107f1919061210d565b9f50505050505050505050505050505050919050565b6001600160a01b038082166000908152600260208181526040808420815160e081018352815460ff811615158083526001600160581b0361010083041695830195909552600160601b900487169281019290925260018101548616606083015292830154851660808201526003830154851660a082015260049092015490931660c082015290918291906108b0578360405163fb642b4d60e01b815260040161045f9190612074565b60008160a001516001600160a01b031663feaf968c6040518163ffffffff1660e01b815260040160a06040518083038186803b1580156108ef57600080fd5b505afa158015610903573d6000803e3d6000fd5b505050506040513d601f19601f820116820180604052508101906109279190612004565b50505091505060008260c001516001600160a01b031663feaf968c6040518163ffffffff1660e01b815260040160a06040518083038186803b15801561096c57600080fd5b505afa158015610980573d6000803e3d6000fd5b505050506040513d601f19601f820116820180604052508101906109a49190612004565b50505091505060007f00000000000000000000000000000000000000000000000000000000000000006001600160a01b031663feaf968c6040518163ffffffff1660e01b815260040160a06040518083038186803b158015610a0557600080fd5b505afa158015610a19573d6000803e3d6000fd5b505050506040513d601f19601f82011682018060405250810190610a3d9190612004565b5050509150506000610a538560a0015185611116565b90506000610a658660c0015185611116565b90506000610a937f000000000000000000000000000000000000000000000000000000000000000085611116565b9050610ac07f00000000000000000000000000000000000000000000000000000000000000006012612251565b610acb90600a612170565b610ad58483611293565b610adf919061210d565b9850610b0c7f00000000000000000000000000000000000000000000000000000000000000006012612251565b610b1790600a612170565b610b218383611293565b610b2b919061210d565b975050505050505050915091565b60005460ff16610b5c576040516306fda65d60e31b815260040160405180910390fd5b6000805460ff19169055610b6e6112a8565b6001600160a01b0383166000908152600260205260409020805460ff1615610bab578360405163122a5e7760e21b815260040161045f9190612074565b600354815460ff1662ffffff91909116610100026001600160601b031617600160601b6001600160a01b03861690810291909117825560408051630dfe168160e01b81529051630dfe168191600480820192602092909190829003018186803b158015610c1757600080fd5b505afa158015610c2b573d6000803e3d6000fd5b505050506040513d601f19601f82011682018060405250810190610c4f9190611f00565b8160010160006101000a8154816001600160a01b0302191690836001600160a01b03160217905550836001600160a01b031663d21220a76040518163ffffffff1660e01b815260040160206040518083038186803b158015610cb057600080fd5b505afa158015610cc4573d6000803e3d6000fd5b505050506040513d601f19601f82011682018060405250810190610ce89190611f00565b6002820180546001600160a01b0319166001600160a01b039283161790556001820154610d1591166112e0565b506002810154610d2d906001600160a01b03166112e0565b506003810180546001600160a01b038086166001600160a01b03199283161790925560048301805492851692909116919091179055610d6b836112e0565b50610d75826112e0565b5060038054600180820183556000929092527fc2575a0e9e593c00f959f8c92f12db2869c3395a3b0502d05e2516446f71f85b0180546001600160a01b0319166001600160a01b03878116918217909255835460ff19168317808555604080519485526101009091046001600160581b031660208501528301528481166060830152831660808201527fa9c1a243c663bea93d8b6c5d7850083fd601a6719a17f6e8eb16e89860e258559060a00160405180910390a150506000805460ff191660011790555050565b60005460ff16610e61576040516306fda65d60e31b815260040160405180910390fd5b6000805460ff19169055610e736112a8565b6005546001600160a01b0316610ea95760055460405163b964881760e01b815261045f916001600160a01b031690600401612074565b60048054600580546001600160a01b038082166001600160a01b03198086168217909655949091169091556040519116917f5d79527e1742e3cb9a668b777100775a1648a5a8adea9c578d164dd2d0908aac91610f07918491612088565b60405180910390a1506000805460ff19166001179055565b60005460ff16610f42576040516306fda65d60e31b815260040160405180910390fd5b6000805460ff19169055610f546112a8565b6005546001600160a01b0382811691161415610f8557806040516318c0efa960e11b815260040161045f9190612074565b600580546001600160a01b0319166001600160a01b03838116919091179091556004546040517f0ddc205eecbcb9fd6100d787269a63285115c1e35297b5cd128aa171376b762292610f079216908490612088565b600080610fe6856113d7565b90506000610ff3856113d7565b90506000611001838361223a565b90506000856110146301e133808461221b565b61101e919061210d565b90506000670de0b6b3a764000061103483611417565b61103e919061223a565b955050505050505b9392505050565b6000807f00000000000000000000000000000000000000000000000000000000000000006001600160a01b031663feaf968c6040518163ffffffff1660e01b815260040160a06040518083038186803b1580156110a957600080fd5b505afa1580156110bd573d6000803e3d6000fd5b505050506040513d601f19601f820116820180604052508101906110e19190612004565b509195945050505050565b600381815481106110fc57600080fd5b6000918252602090912001546001600160a01b0316905081565b6001600160a01b038216600090815260016020526040812054806001141561113e5782611148565b611148818461221b565b949350505050565b60008261115f575060006111b1565b8282028284828161118057634e487b7160e01b600052601260045260246000fd5b04146111a85760405162c3efdf60e01b8152600481018590526024810184905260440161045f565b6111488161146d565b92915050565b600080806000198587098587029250828110838203039150508060001415611200578382816111f657634e487b7160e01b600052601260045260246000fd5b0492505050611046565b83811061122a57604051631dcf306360e21b8152600481018290526024810185905260440161045f565b60008486880960026001871981018816978890046003810283188082028403028082028403028082028403028082028403028082028403029081029092039091026000889003889004909101858311909403939093029303949094049190911702949350505050565b600061104683670de0b6b3a7640000846111b7565b6004546001600160a01b0316336001600160a01b0316146112de5733604051634bfe64f160e11b815260040161045f9190612074565b565b600080826001600160a01b031663313ce5676040518163ffffffff1660e01b815260040160206040518083038186803b15801561131c57600080fd5b505afa158015611330573d6000803e3d6000fd5b505050506040513d601f19601f820116820180604052508101906113549190612053565b60ff16905080611379578260405163fe3c012960e01b815260040161045f9190612074565b60128111156113ad576040516396434c7f60e01b81526001600160a01b03841660048201526024810182905260440161045f565b6001600160a01b039092166000908152600160205260409020601292909203600a0a918290555090565b60006714057b7ef767814f670de0b6b3a76400006113f484611648565b028161141057634e487b7160e01b600052601260045260246000fd5b0492915050565b6000680736ea4425c11ac63182106114455760405163062bb40d60e31b81526004810183905260240161045f565b6714057b7ef767814f8202611046670de0b6b3a76400006706f05b59d3b200008301046116f8565b60008161147c57506000919050565b50600181600160801b81106114965760409190911b9060801c5b600160401b81106114ac5760209190911b9060401c5b600160201b81106114c25760109190911b9060201c5b6201000081106114d75760089190911b9060101c5b61010081106114eb5760049190911b9060081c5b601081106114fe5760029190911b9060041c5b6008811061150e57600182901b91505b600182848161152d57634e487b7160e01b600052601260045260246000fd5b048301901c9150600182848161155357634e487b7160e01b600052601260045260246000fd5b048301901c9150600182848161157957634e487b7160e01b600052601260045260246000fd5b048301901c9150600182848161159f57634e487b7160e01b600052601260045260246000fd5b048301901c915060018284816115c557634e487b7160e01b600052601260045260246000fd5b048301901c915060018284816115eb57634e487b7160e01b600052601260045260246000fd5b048301901c9150600182848161161157634e487b7160e01b600052601260045260246000fd5b048301901c9150600082848161163757634e487b7160e01b600052601260045260246000fd5b049050808310156110465782611148565b6000670de0b6b3a764000082101561167657604051633621413760e21b81526004810183905260240161045f565b600061168b670de0b6b3a7640000840461173e565b670de0b6b3a7640000808202935090915083821c908114156116ae575050919050565b6706f05b59d3b200005b80156116f057670de0b6b3a7640000828002049150671bc16d674ec8000082106116e8579283019260019190911c905b60011c6116b8565b505050919050565b6000680a688906bd8b000000821061172657604051634a4f26f160e01b81526004810183905260240161045f565b670de0b6b3a7640000604083901b0461104681611824565b6000600160801b821061175e57608091821c9161175b90826120f5565b90505b600160401b821061177c57604091821c9161177990826120f5565b90505b600160201b821061179a57602091821c9161179790826120f5565b90505b6201000082106117b757601091821c916117b490826120f5565b90505b61010082106117d357600891821c916117d090826120f5565b90505b601082106117ee57600491821c916117eb90826120f5565b90505b6004821061180957600291821c9161180690826120f5565b90505b6002821061181f5761181c6001826120f5565b90505b919050565b600160bf1b6001603f1b8216156118445768016a09e667f3bcc9090260401c5b6001603e1b82161561185f576801306fe0a31b7152df0260401c5b6001603d1b82161561187a576801172b83c7d517adce0260401c5b6001603c1b8216156118955768010b5586cf9890f62a0260401c5b6001603b1b8216156118b0576801059b0d31585743ae0260401c5b6001603a1b8216156118cb57680102c9a3e778060ee70260401c5b600160391b8216156118e65768010163da9fb33356d80260401c5b600160381b82161561190157680100b1afa5abcbed610260401c5b600160371b82161561191c5768010058c86da1c09ea20260401c5b600160361b821615611937576801002c605e2e8cec500260401c5b600160351b82161561195257680100162f3904051fa10260401c5b600160341b82161561196d576801000b175effdc76ba0260401c5b600160331b82161561198857680100058ba01fb9f96d0260401c5b600160321b8216156119a35768010002c5cc37da94920260401c5b600160311b8216156119be576801000162e525ee05470260401c5b600160301b8216156119d95768010000b17255775c040260401c5b6001602f1b8216156119f4576801000058b91b5bc9ae0260401c5b6001602e1b821615611a0f57680100002c5c89d5ec6d0260401c5b6001602d1b821615611a2a5768010000162e43f4f8310260401c5b6001602c1b821615611a4557680100000b1721bcfc9a0260401c5b6001602b1b821615611a605768010000058b90cf1e6e0260401c5b6001602a1b821615611a7b576801000002c5c863b73f0260401c5b600160291b821615611a9657680100000162e430e5a20260401c5b600160281b821615611ab1576801000000b1721835510260401c5b600160271b821615611acc57680100000058b90c0b490260401c5b600160261b821615611ae75768010000002c5c8601cc0260401c5b600160251b821615611b02576801000000162e42fff00260401c5b600160241b821615611b1d5768010000000b17217fbb0260401c5b600160231b821615611b38576801000000058b90bfce0260401c5b600160221b821615611b5357680100000002c5c85fe30260401c5b600160211b821615611b6e5768010000000162e42ff10260401c5b600160201b821615611b8957680100000000b17217f80260401c5b6380000000821615611ba45768010000000058b90bfc0260401c5b6340000000821615611bbf576801000000002c5c85fe0260401c5b6320000000821615611bda57680100000000162e42ff0260401c5b6310000000821615611bf5576801000000000b17217f0260401c5b6308000000821615611c1057680100000000058b90c00260401c5b6304000000821615611c2b5768010000000002c5c8600260401c5b6302000000821615611c46576801000000000162e4300260401c5b6301000000821615611c615768010000000000b172180260401c5b62800000821615611c7b576801000000000058b90c0260401c5b62400000821615611c9557680100000000002c5c860260401c5b62200000821615611caf5768010000000000162e430260401c5b62100000821615611cc957680100000000000b17210260401c5b62080000821615611ce35768010000000000058b910260401c5b62040000821615611cfd576801000000000002c5c80260401c5b62020000821615611d1757680100000000000162e40260401c5b62010000821615611d305761b172600160401b010260401c5b618000821615611d48576158b9600160401b010260401c5b614000821615611d6057612c5d600160401b010260401c5b612000821615611d785761162e600160401b010260401c5b611000821615611d9057610b17600160401b010260401c5b610800821615611da85761058c600160401b010260401c5b610400821615611dc0576102c6600160401b010260401c5b610200821615611dd857610163600160401b010260401c5b610100821615611def5760b1600160401b010260401c5b6080821615611e05576059600160401b010260401c5b6040821615611e1b57602c600160401b010260401c5b6020821615611e31576016600160401b010260401c5b6010821615611e4757600b600160401b010260401c5b6008821615611e5d576006600160401b010260401c5b6004821615611e73576003600160401b010260401c5b6002821615611e89576001600160401b010260401c5b6001821615611e9f576001600160401b010260401c5b670de0b6b3a76400000260409190911c60bf031c90565b80516001600160701b038116811461181f57600080fd5b80516001600160501b038116811461181f57600080fd5b600060208284031215611ef5578081fd5b81356110468161228a565b600060208284031215611f11578081fd5b81516110468161228a565b600080600060608486031215611f30578182fd5b8335611f3b8161228a565b92506020840135611f4b8161228a565b91506040840135611f5b8161228a565b809150509250925092565b600080600060608486031215611f7a578283fd5b611f8384611eb6565b9250611f9160208501611eb6565b9150604084015163ffffffff81168114611f5b578182fd5b600060208284031215611fba578081fd5b5035919050565b600060208284031215611fd2578081fd5b5051919050565b600080600060608486031215611fed578283fd5b505081359360208301359350604090920135919050565b600080600080600060a0868803121561201b578081fd5b61202486611ecd565b945060208601519350604086015192506060860151915061204760808701611ecd565b90509295509295909350565b600060208284031215612064578081fd5b815160ff81168114611046578182fd5b6001600160a01b0391909116815260200190565b6001600160a01b0392831681529116602082015260400190565b6000602080835283518082850152825b818110156120ce578581018301518582016040015282016120b2565b818111156120df5783604083870101525b50601f01601f1916929092016040019392505050565b6000821982111561210857612108612274565b500190565b60008261212857634e487b7160e01b81526012600452602481fd5b500490565b600181815b8085111561216857816000190482111561214e5761214e612274565b8085161561215b57918102915b93841c9390800290612132565b509250929050565b600061104660ff841683600082612189575060016111b1565b81612196575060006111b1565b81600181146121ac57600281146121b6576121d2565b60019150506111b1565b60ff8411156121c7576121c7612274565b50506001821b6111b1565b5060208310610133831016604e8410600b84101617156121f5575081810a6111b1565b6121ff838361212d565b806000190482111561221357612213612274565b029392505050565b600081600019048311821515161561223557612235612274565b500290565b60008282101561224c5761224c612274565b500390565b600060ff821660ff84168082101561226b5761226b612274565b90039392505050565b634e487b7160e01b600052601160045260246000fd5b6001600160a01b038116811461229f57600080fd5b5056fe4379676e75732d4e6562756c613a20436861696e6c696e6b204c50204f7261636c65a264697066735822122073496cc466c33f981348ac09a8040a8ff9eed7006dace03adc08081dd506cf7e64736f6c63430008040033",
  "linkReferences": {},
  "deployedLinkReferences": {}
}