{
  "_format": "hh-sol-artifact-1",
  "contractName": "CygnusNebulaOracle",
  "sourceName": "contracts/cygnus-oracle/CygnusNebulaOracle.sol",
  "abi": [
    {
      "inputs": [
        {
          "internalType": "contract IERC20",
          "name": "denomination",
          "type": "address"
        },
        {
          "internalType": "contract AggregatorV3Interface",
          "name": "denominationPrice",
          "type": "address"
        }
      ],
      "stateMutability": "nonpayable",
      "type": "constructor"
    },
    {
      "inputs": [
        {
          "internalType": "address",
          "name": "pendingAdmin",
          "type": "address"
        }
      ],
      "name": "CygnusNebulaOracle__AdminCantBeZero",
      "type": "error"
    },
    {
      "inputs": [
        {
          "internalType": "address",
          "name": "msgSender",
          "type": "address"
        }
      ],
      "name": "CygnusNebulaOracle__MsgSenderNotAdmin",
      "type": "error"
    },
    {
      "inputs": [
        {
          "internalType": "contract IDexPair",
          "name": "lpTokenPair",
          "type": "address"
        }
      ],
      "name": "CygnusNebulaOracle__NebulaRecordAlreadyInitialized",
      "type": "error"
    },
    {
      "inputs": [
        {
          "internalType": "contract IDexPair",
          "name": "lpTokenPair",
          "type": "address"
        }
      ],
      "name": "CygnusNebulaOracle__NebulaRecordNotInitialized",
      "type": "error"
    },
    {
      "inputs": [
        {
          "internalType": "address",
          "name": "lpTokenPair",
          "type": "address"
        }
      ],
      "name": "CygnusNebulaOracle__PairAlreadyInitialized",
      "type": "error"
    },
    {
      "inputs": [
        {
          "internalType": "address",
          "name": "lpTokenPair",
          "type": "address"
        }
      ],
      "name": "CygnusNebulaOracle__PairNotInitialized",
      "type": "error"
    },
    {
      "inputs": [
        {
          "internalType": "address",
          "name": "pendingAdmin",
          "type": "address"
        }
      ],
      "name": "CygnusNebulaOracle__PendingAdminAlreadySet",
      "type": "error"
    },
    {
      "inputs": [
        {
          "internalType": "contract IERC20",
          "name": "token",
          "type": "address"
        },
        {
          "internalType": "uint256",
          "name": "decimals",
          "type": "uint256"
        }
      ],
      "name": "IERC20Normalizer__TokenDecimalsGreaterThan18",
      "type": "error"
    },
    {
      "inputs": [
        {
          "internalType": "contract IERC20",
          "name": "token",
          "type": "address"
        }
      ],
      "name": "IERC20Normalizer__TokenDecimalsZero",
      "type": "error"
    },
    {
      "inputs": [
        {
          "internalType": "uint256",
          "name": "x",
          "type": "uint256"
        }
      ],
      "name": "PRBMathUD60x18__Exp2InputTooBig",
      "type": "error"
    },
    {
      "inputs": [
        {
          "internalType": "uint256",
          "name": "x",
          "type": "uint256"
        }
      ],
      "name": "PRBMathUD60x18__ExpInputTooBig",
      "type": "error"
    },
    {
      "inputs": [
        {
          "internalType": "uint256",
          "name": "x",
          "type": "uint256"
        },
        {
          "internalType": "uint256",
          "name": "y",
          "type": "uint256"
        }
      ],
      "name": "PRBMathUD60x18__GmOverflow",
      "type": "error"
    },
    {
      "inputs": [
        {
          "internalType": "uint256",
          "name": "x",
          "type": "uint256"
        }
      ],
      "name": "PRBMathUD60x18__LogInputTooSmall",
      "type": "error"
    },
    {
      "inputs": [
        {
          "internalType": "uint256",
          "name": "prod1",
          "type": "uint256"
        },
        {
          "internalType": "uint256",
          "name": "denominator",
          "type": "uint256"
        }
      ],
      "name": "PRBMath__MulDivOverflow",
      "type": "error"
    },
    {
      "inputs": [],
      "name": "ReentrantCall",
      "type": "error"
    },
    {
      "anonymous": false,
      "inputs": [
        {
          "indexed": false,
          "internalType": "bool",
          "name": "initialized",
          "type": "bool"
        },
        {
          "indexed": false,
          "internalType": "uint88",
          "name": "oracleId",
          "type": "uint88"
        },
        {
          "indexed": false,
          "internalType": "address",
          "name": "lpTokenPair",
          "type": "address"
        },
        {
          "indexed": false,
          "internalType": "contract IERC20[]",
          "name": "poolTokens",
          "type": "address[]"
        },
        {
          "indexed": false,
          "internalType": "contract AggregatorV3Interface[]",
          "name": "priceFeeds",
          "type": "address[]"
        }
      ],
      "name": "InitializeCygnusNebula",
      "type": "event"
    },
    {
      "anonymous": false,
      "inputs": [
        {
          "indexed": false,
          "internalType": "address",
          "name": "oracleOldAdmin",
          "type": "address"
        },
        {
          "indexed": false,
          "internalType": "address",
          "name": "oracleNewAdmin",
          "type": "address"
        }
      ],
      "name": "NewOracleAdmin",
      "type": "event"
    },
    {
      "anonymous": false,
      "inputs": [
        {
          "indexed": false,
          "internalType": "address",
          "name": "oracleCurrentAdmin",
          "type": "address"
        },
        {
          "indexed": false,
          "internalType": "address",
          "name": "oraclePendingAdmin",
          "type": "address"
        }
      ],
      "name": "NewOraclePendingAdmin",
      "type": "event"
    },
    {
      "inputs": [],
      "name": "SECONDS_PER_YEAR",
      "outputs": [
        {
          "internalType": "uint256",
          "name": "",
          "type": "uint256"
        }
      ],
      "stateMutability": "view",
      "type": "function"
    },
    {
      "inputs": [],
      "name": "admin",
      "outputs": [
        {
          "internalType": "address",
          "name": "",
          "type": "address"
        }
      ],
      "stateMutability": "view",
      "type": "function"
    },
    {
      "inputs": [
        {
          "internalType": "uint256",
          "name": "",
          "type": "uint256"
        }
      ],
      "name": "allNebulas",
      "outputs": [
        {
          "internalType": "address",
          "name": "",
          "type": "address"
        }
      ],
      "stateMutability": "view",
      "type": "function"
    },
    {
      "inputs": [
        {
          "internalType": "address",
          "name": "lpTokenPair",
          "type": "address"
        }
      ],
      "name": "assetPricesUsd",
      "outputs": [
        {
          "internalType": "uint256",
          "name": "tokenPriceA",
          "type": "uint256"
        },
        {
          "internalType": "uint256",
          "name": "tokenPriceB",
          "type": "uint256"
        }
      ],
      "stateMutability": "view",
      "type": "function"
    },
    {
      "inputs": [],
      "name": "decimals",
      "outputs": [
        {
          "internalType": "uint8",
          "name": "",
          "type": "uint8"
        }
      ],
      "stateMutability": "view",
      "type": "function"
    },
    {
      "inputs": [],
      "name": "denominationAggregator",
      "outputs": [
        {
          "internalType": "contract AggregatorV3Interface",
          "name": "",
          "type": "address"
        }
      ],
      "stateMutability": "view",
      "type": "function"
    },
    {
      "inputs": [],
      "name": "denominationToken",
      "outputs": [
        {
          "internalType": "contract IERC20",
          "name": "",
          "type": "address"
        }
      ],
      "stateMutability": "view",
      "type": "function"
    },
    {
      "inputs": [],
      "name": "denominationTokenPrice",
      "outputs": [
        {
          "internalType": "uint256",
          "name": "",
          "type": "uint256"
        }
      ],
      "stateMutability": "view",
      "type": "function"
    },
    {
      "inputs": [
        {
          "internalType": "uint256",
          "name": "exchangeRateLast",
          "type": "uint256"
        },
        {
          "internalType": "uint256",
          "name": "exchangeRateCurrent",
          "type": "uint256"
        },
        {
          "internalType": "uint256",
          "name": "timeElapsed",
          "type": "uint256"
        }
      ],
      "name": "getAnnualizedBaseRate",
      "outputs": [
        {
          "internalType": "uint256",
          "name": "",
          "type": "uint256"
        }
      ],
      "stateMutability": "pure",
      "type": "function"
    },
    {
      "inputs": [
        {
          "internalType": "address",
          "name": "lpTokenPair",
          "type": "address"
        }
      ],
      "name": "getNebula",
      "outputs": [
        {
          "components": [
            {
              "internalType": "bool",
              "name": "initialized",
              "type": "bool"
            },
            {
              "internalType": "uint88",
              "name": "oracleId",
              "type": "uint88"
            },
            {
              "internalType": "address",
              "name": "underlying",
              "type": "address"
            },
            {
              "internalType": "bytes32",
              "name": "poolId",
              "type": "bytes32"
            },
            {
              "internalType": "contract IERC20[]",
              "name": "poolTokens",
              "type": "address[]"
            },
            {
              "internalType": "contract AggregatorV3Interface[]",
              "name": "priceFeeds",
              "type": "address[]"
            }
          ],
          "internalType": "struct ICygnusNebulaOracle.CygnusNebula",
          "name": "",
          "type": "tuple"
        }
      ],
      "stateMutability": "view",
      "type": "function"
    },
    {
      "inputs": [
        {
          "internalType": "address",
          "name": "lpTokenPair",
          "type": "address"
        },
        {
          "internalType": "contract AggregatorV3Interface[]",
          "name": "aggregators",
          "type": "address[]"
        }
      ],
      "name": "initializeNebula",
      "outputs": [],
      "stateMutability": "nonpayable",
      "type": "function"
    },
    {
      "inputs": [
        {
          "internalType": "address",
          "name": "lpTokenPair",
          "type": "address"
        }
      ],
      "name": "lpTokenPriceUsd",
      "outputs": [
        {
          "internalType": "uint256",
          "name": "lpTokenPrice",
          "type": "uint256"
        }
      ],
      "stateMutability": "view",
      "type": "function"
    },
    {
      "inputs": [],
      "name": "name",
      "outputs": [
        {
          "internalType": "string",
          "name": "",
          "type": "string"
        }
      ],
      "stateMutability": "view",
      "type": "function"
    },
    {
      "inputs": [],
      "name": "nebulaSize",
      "outputs": [
        {
          "internalType": "uint24",
          "name": "",
          "type": "uint24"
        }
      ],
      "stateMutability": "view",
      "type": "function"
    },
    {
      "inputs": [],
      "name": "pendingAdmin",
      "outputs": [
        {
          "internalType": "address",
          "name": "",
          "type": "address"
        }
      ],
      "stateMutability": "view",
      "type": "function"
    },
    {
      "inputs": [],
      "name": "setOracleAdmin",
      "outputs": [],
      "stateMutability": "nonpayable",
      "type": "function"
    },
    {
      "inputs": [
        {
          "internalType": "address",
          "name": "newPendingAdmin",
          "type": "address"
        }
      ],
      "name": "setOraclePendingAdmin",
      "outputs": [],
      "stateMutability": "nonpayable",
      "type": "function"
    },
    {
      "inputs": [],
      "name": "symbol",
      "outputs": [
        {
          "internalType": "string",
          "name": "",
          "type": "string"
        }
      ],
      "stateMutability": "view",
      "type": "function"
    },
    {
      "inputs": [],
      "name": "version",
      "outputs": [
        {
          "internalType": "string",
          "name": "",
          "type": "string"
        }
      ],
      "stateMutability": "view",
      "type": "function"
    }
  ],
  "bytecode": "0x60e06040523480156200001157600080fd5b5060405162002cf538038062002cf5833981016040819052620000349162000244565b6000805460ff19166001179055620000493390565b600480546001600160a01b0319166001600160a01b03928316178155606084901b6001600160601b0319166080526040805163313ce56760e01b815290519285169263313ce56792828101926020929190829003018186803b158015620000af57600080fd5b505afa158015620000c4573d6000803e3d6000fd5b505050506040513d601f19601f82011682018060405250810190620000ea919062000282565b60f81b7fff000000000000000000000000000000000000000000000000000000000000001660a052606081901b6001600160601b03191660c0526200012f8162000138565b505050620002c5565b600080826001600160a01b031663313ce5676040518163ffffffff1660e01b815260040160206040518083038186803b1580156200017557600080fd5b505afa1580156200018a573d6000803e3d6000fd5b505050506040513d601f19601f82011682018060405250810190620001b0919062000282565b60ff16905080620001e45760405163fe3c012960e01b81526001600160a01b03841660048201526024015b60405180910390fd5b60128111156200021a576040516396434c7f60e01b81526001600160a01b038416600482015260248101829052604401620001db565b6001600160a01b039092166000908152600160205260409020601292909203600a0a918290555090565b6000806040838503121562000257578182fd5b82516200026481620002ac565b60208401519092506200027781620002ac565b809150509250929050565b60006020828403121562000294578081fd5b815160ff81168114620002a5578182fd5b9392505050565b6001600160a01b0381168114620002c257600080fd5b50565b60805160601c60a05160f81c60c05160601c6129bf6200033660003960008181610222015281816107980152818161083401528181610c3a01528181610cd6015261133b015260008181610195015281816108ef01528181610d020152610d4e015260006102ce01526129bf6000f3fe608060405234801561001057600080fd5b50600436106100f15760003560e01c806306fdde03146100f6578063131ad74e1461011457806317e5a1a114610135578063193d1da9146101485780632678224714610170578063313ce5671461019057806354fd4d50146101c957806357a4ad7c146101ed57806362bbb6e01461020257806365c9b2571461020a5780638eb6f8f01461021d57806395d89b4114610244578063ba3941e71461026c578063cadbcc2114610283578063d02c70e81461028b578063e6a69ab81461029e578063f0ac40c4146102a9578063f6b9fdfb146102c9578063f851a440146102f0575b600080fd5b6100fe610303565b60405161010b91906126b4565b60405180910390f35b610127610122366004612527565b61031f565b60405190815260200161010b565b6101276101433660046123ef565b610392565b61015b6101563660046123ef565b61094a565b6040805192835260208301919091520161010b565b600554610183906001600160a01b031681565b60405161010b9190612605565b6101b77f000000000000000000000000000000000000000000000000000000000000000081565b60405160ff909116815260200161010b565b6100fe604051806040016040528060058152602001640312e302e360dc1b81525081565b6102006101fb366004612427565b610da1565b005b61020061119a565b6102006102183660046123ef565b61127b565b6101837f000000000000000000000000000000000000000000000000000000000000000081565b6100fe604051806040016040528060098152602001684379674e6562756c6160b81b81525081565b60035460405162ffffff909116815260200161010b565b610127611336565b6101836102993660046124f7565b6113d5565b6101276301e1338081565b6102bc6102b73660046123ef565b6113ff565b60405161010b9190612707565b6101837f000000000000000000000000000000000000000000000000000000000000000081565b600454610183906001600160a01b031681565b6040518060600160405280602981526020016129616029913981565b60008061032b85611554565b9050600061033885611554565b9050600061034683836128f8565b90506000856103596301e13380846128d9565b61036391906127cb565b90506000670de0b6b3a764000061037983611594565b61038391906128f8565b955050505050505b9392505050565b6001600160a01b038082166000908152600260208181526040808420815160c081018352815460ff8116151582526001600160581b0361010082041682860152600160601b90049096168683015260018101546060870152928301805482518185028101850190935280835294958695909493608086019392919083018282801561044657602002820191906000526020600020905b81546001600160a01b03168152600190910190602001808311610428575b50505050508152602001600382018054806020026020016040519081016040528092919081815260200182805480156104a857602002820191906000526020600020905b81546001600160a01b0316815260019091019060200180831161048a575b505050505081525050905080600001516104e0578260405163fb642b4d60e01b81526004016104d79190612605565b60405180910390fd5b600080846001600160a01b0316630902f1ac6040518163ffffffff1660e01b815260040160606040518083038186803b15801561051c57600080fd5b505afa158015610530573d6000803e3d6000fd5b505050506040513d601f19601f8201168201806040525081019061055491906124a9565b5091509150600061059a846080015160008151811061058357634e487b7160e01b600052603260045260246000fd5b6020026020010151846001600160701b03166115ea565b905060006105c6856080015160018151811061058357634e487b7160e01b600052603260045260246000fd5b905060006105d48383611624565b905060008660a001516000815181106105fd57634e487b7160e01b600052603260045260246000fd5b60200260200101516001600160a01b031663feaf968c6040518163ffffffff1660e01b815260040160a06040518083038186803b15801561063d57600080fd5b505afa158015610651573d6000803e3d6000fd5b505050506040513d601f19601f820116820180604052508101906106759190612552565b50505091505060008760a001516001815181106106a257634e487b7160e01b600052603260045260246000fd5b60200260200101516001600160a01b031663feaf968c6040518163ffffffff1660e01b815260040160a06040518083038186803b1580156106e257600080fd5b505afa1580156106f6573d6000803e3d6000fd5b505050506040513d601f19601f8201168201806040525081019061071a9190612552565b50505091505060006107588960a0015160008151811061074a57634e487b7160e01b600052603260045260246000fd5b6020026020010151846115ea565b905060006107848a60a0015160018151811061074a57634e487b7160e01b600052603260045260246000fd5b905060006107928383611624565b905060007f00000000000000000000000000000000000000000000000000000000000000006001600160a01b031663feaf968c6040518163ffffffff1660e01b815260040160a06040518083038186803b1580156107ef57600080fd5b505afa158015610803573d6000803e3d6000fd5b505050506040513d601f19601f820116820180604052508101906108279190612552565b50505091505060006108597f0000000000000000000000000000000000000000000000000000000000000000836115ea565b905060008f6001600160a01b03166318160ddd6040518163ffffffff1660e01b815260040160206040518083038186803b15801561089657600080fd5b505afa1580156108aa573d6000803e3d6000fd5b505050506040513d601f19601f820116820180604052508101906108ce919061250f565b905060006108dd8a868461168b565b6108e89060026128d9565b90506109157f0000000000000000000000000000000000000000000000000000000000000000601261290f565b61092090600a61282e565b61092a8285611767565b61093491906127cb565b9f50505050505050505050505050505050919050565b6001600160a01b038082166000908152600260208181526040808420815160c081018352815460ff8116151582526001600160581b0361010082041682860152600160601b9004909616868301526001810154606087015292830180548251818502810185019093528083529495869586959194919360808601939092909190830182828015610a0357602002820191906000526020600020905b81546001600160a01b031681526001909101906020018083116109e5575b5050505050815260200160038201805480602002602001604051908101604052809291908181526020018280548015610a6557602002820191906000526020600020905b81546001600160a01b03168152600190910190602001808311610a47575b50505050508152505090508060000151610a94578360405163fb642b4d60e01b81526004016104d79190612605565b60008160a00151600081518110610abb57634e487b7160e01b600052603260045260246000fd5b60200260200101516001600160a01b031663feaf968c6040518163ffffffff1660e01b815260040160a06040518083038186803b158015610afb57600080fd5b505afa158015610b0f573d6000803e3d6000fd5b505050506040513d601f19601f82011682018060405250810190610b339190612552565b50505091505060008260a00151600181518110610b6057634e487b7160e01b600052603260045260246000fd5b60200260200101516001600160a01b031663feaf968c6040518163ffffffff1660e01b815260040160a06040518083038186803b158015610ba057600080fd5b505afa158015610bb4573d6000803e3d6000fd5b505050506040513d601f19601f82011682018060405250810190610bd89190612552565b5050509150506000610c088460a0015160008151811061074a57634e487b7160e01b600052603260045260246000fd5b90506000610c348560a0015160018151811061074a57634e487b7160e01b600052603260045260246000fd5b905060007f00000000000000000000000000000000000000000000000000000000000000006001600160a01b031663feaf968c6040518163ffffffff1660e01b815260040160a06040518083038186803b158015610c9157600080fd5b505afa158015610ca5573d6000803e3d6000fd5b505050506040513d601f19601f82011682018060405250810190610cc99190612552565b5050509150506000610cfb7f0000000000000000000000000000000000000000000000000000000000000000836115ea565b9050610d287f0000000000000000000000000000000000000000000000000000000000000000601261290f565b610d3390600a61282e565b610d3d8583611767565b610d4791906127cb565b9850610d747f0000000000000000000000000000000000000000000000000000000000000000601261290f565b610d7f90600a61282e565b610d898483611767565b610d9391906127cb565b975050505050505050915091565b60005460ff16610dc4576040516306fda65d60e31b815260040160405180910390fd5b6000805460ff19169055610dd661177c565b6001600160a01b0383166000908152600260205260409020805460ff1615610e13578360405163122a5e7760e21b81526004016104d79190612605565b6000826001600160401b03811115610e3b57634e487b7160e01b600052604160045260246000fd5b604051908082528060200260200182016040528015610e64578160200160208202803683370190505b509050846001600160a01b0316630dfe16816040518163ffffffff1660e01b815260040160206040518083038186803b158015610ea057600080fd5b505afa158015610eb4573d6000803e3d6000fd5b505050506040513d601f19601f82011682018060405250810190610ed8919061240b565b81600081518110610ef957634e487b7160e01b600052603260045260246000fd5b60200260200101906001600160a01b031690816001600160a01b031681525050846001600160a01b031663d21220a76040518163ffffffff1660e01b815260040160206040518083038186803b158015610f5257600080fd5b505afa158015610f66573d6000803e3d6000fd5b505050506040513d601f19601f82011682018060405250810190610f8a919061240b565b81600181518110610fab57634e487b7160e01b600052603260045260246000fd5b60200260200101906001600160a01b031690816001600160a01b031681525050610ffc81600081518110610fef57634e487b7160e01b600052603260045260246000fd5b60200260200101516117b4565b5061102181600181518110610fef57634e487b7160e01b600052603260045260246000fd5b506110608484600081811061104657634e487b7160e01b600052603260045260246000fd5b905060200201602081019061105b91906123ef565b6117b4565b506110858484600181811061104657634e487b7160e01b600052603260045260246000fd5b50600354825460ff1662ffffff91909116610100026001600160601b031617600160601b6001600160a01b0387160217825580516110cc90600284019060208401906122f4565b506110db600383018585612359565b508154600160ff19909116811783556003805480830182556000919091527fc2575a0e9e593c00f959f8c92f12db2869c3395a3b0502d05e2516446f71f85b0180546001600160a01b0319166001600160a01b03881617905582546040517fe00a64485416b34ffd91f01ad51593587fdbe28e70d8f67264b271dccbee764a9261117e9290916101009091046001600160581b031690899086908a908a90612633565b60405180910390a150506000805460ff19166001179055505050565b60005460ff166111bd576040516306fda65d60e31b815260040160405180910390fd5b6000805460ff191690556111cf61177c565b6005546001600160a01b03166112055760055460405163b964881760e01b81526104d7916001600160a01b031690600401612605565b60048054600580546001600160a01b038082166001600160a01b03198086168217909655949091169091556040519116917f5d79527e1742e3cb9a668b777100775a1648a5a8adea9c578d164dd2d0908aac91611263918491612619565b60405180910390a1506000805460ff19166001179055565b60005460ff1661129e576040516306fda65d60e31b815260040160405180910390fd5b6000805460ff191690556112b061177c565b6005546001600160a01b03828116911614156112e157806040516318c0efa960e11b81526004016104d79190612605565b600580546001600160a01b0319166001600160a01b03838116919091179091556004546040517f0ddc205eecbcb9fd6100d787269a63285115c1e35297b5cd128aa171376b7622926112639216908490612619565b6000807f00000000000000000000000000000000000000000000000000000000000000006001600160a01b031663feaf968c6040518163ffffffff1660e01b815260040160a06040518083038186803b15801561139257600080fd5b505afa1580156113a6573d6000803e3d6000fd5b505050506040513d601f19601f820116820180604052508101906113ca9190612552565b509195945050505050565b600381815481106113e557600080fd5b6000918252602090912001546001600160a01b0316905081565b6040805160c0810182526000808252602082018190529181018290526060808201929092526080810182905260a08101919091526001600160a01b03808316600090815260026020818152604092839020835160c081018552815460ff8116151582526001600160581b0361010082041682850152600160601b9004909516858501526001810154606086015291820180548451818402810184019095528085529293608086019390928301828280156114e257602002820191906000526020600020905b81546001600160a01b031681526001909101906020018083116114c4575b505050505081526020016003820180548060200260200160405190810160405280929190818152602001828054801561154457602002820191906000526020600020905b81546001600160a01b03168152600190910190602001808311611526575b5050505050815250509050919050565b60006714057b7ef767814f670de0b6b3a7640000611571846118ab565b028161158d57634e487b7160e01b600052601260045260246000fd5b0492915050565b6000680736ea4425c11ac63182106115c25760405163062bb40d60e31b8152600481018390526024016104d7565b6714057b7ef767814f820261038b670de0b6b3a76400006706f05b59d3b2000083010461195b565b6001600160a01b0382166000908152600160205260408120548060011415611612578261161c565b61161c81846128d9565b949350505050565b60008261163357506000611685565b8282028284828161165457634e487b7160e01b600052601260045260246000fd5b041461167c5760405162c3efdf60e01b815260048101859052602481018490526044016104d7565b61161c816119a1565b92915050565b6000808060001985870985870292508281108382030391505080600014156116d4578382816116ca57634e487b7160e01b600052601260045260246000fd5b049250505061038b565b8381106116fe57604051631dcf306360e21b815260048101829052602481018590526044016104d7565b60008486880960026001871981018816978890046003810283188082028403028082028403028082028403028082028403028082028403029081029092039091026000889003889004909101858311909403939093029303949094049190911702949350505050565b600061038b83670de0b6b3a76400008461168b565b6004546001600160a01b0316336001600160a01b0316146117b25733604051634bfe64f160e11b81526004016104d79190612605565b565b600080826001600160a01b031663313ce5676040518163ffffffff1660e01b815260040160206040518083038186803b1580156117f057600080fd5b505afa158015611804573d6000803e3d6000fd5b505050506040513d601f19601f8201168201806040525081019061182891906125a1565b60ff1690508061184d578260405163fe3c012960e01b81526004016104d79190612605565b6012811115611881576040516396434c7f60e01b81526001600160a01b0384166004820152602481018290526044016104d7565b6001600160a01b039092166000908152600160205260409020601292909203600a0a918290555090565b6000670de0b6b3a76400008210156118d957604051633621413760e21b8152600481018390526024016104d7565b60006118ee670de0b6b3a76400008404611b7c565b670de0b6b3a7640000808202935090915083821c90811415611911575050919050565b6706f05b59d3b200005b801561195357670de0b6b3a7640000828002049150671bc16d674ec80000821061194b579283019260019190911c905b60011c61191b565b505050919050565b6000680a688906bd8b000000821061198957604051634a4f26f160e01b8152600481018390526024016104d7565b670de0b6b3a7640000604083901b0461038b81611c62565b6000816119b057506000919050565b50600181600160801b81106119ca5760409190911b9060801c5b600160401b81106119e05760209190911b9060401c5b600160201b81106119f65760109190911b9060201c5b620100008110611a0b5760089190911b9060101c5b6101008110611a1f5760049190911b9060081c5b60108110611a325760029190911b9060041c5b60088110611a4257600182901b91505b6001828481611a6157634e487b7160e01b600052601260045260246000fd5b048301901c91506001828481611a8757634e487b7160e01b600052601260045260246000fd5b048301901c91506001828481611aad57634e487b7160e01b600052601260045260246000fd5b048301901c91506001828481611ad357634e487b7160e01b600052601260045260246000fd5b048301901c91506001828481611af957634e487b7160e01b600052601260045260246000fd5b048301901c91506001828481611b1f57634e487b7160e01b600052601260045260246000fd5b048301901c91506001828481611b4557634e487b7160e01b600052601260045260246000fd5b048301901c91506000828481611b6b57634e487b7160e01b600052601260045260246000fd5b0490508083101561038b578261161c565b6000600160801b8210611b9c57608091821c91611b9990826127b3565b90505b600160401b8210611bba57604091821c91611bb790826127b3565b90505b600160201b8210611bd857602091821c91611bd590826127b3565b90505b620100008210611bf557601091821c91611bf290826127b3565b90505b6101008210611c1157600891821c91611c0e90826127b3565b90505b60108210611c2c57600491821c91611c2990826127b3565b90505b60048210611c4757600291821c91611c4490826127b3565b90505b60028210611c5d57611c5a6001826127b3565b90505b919050565b600160bf1b6001603f1b821615611c825768016a09e667f3bcc9090260401c5b6001603e1b821615611c9d576801306fe0a31b7152df0260401c5b6001603d1b821615611cb8576801172b83c7d517adce0260401c5b6001603c1b821615611cd35768010b5586cf9890f62a0260401c5b6001603b1b821615611cee576801059b0d31585743ae0260401c5b6001603a1b821615611d0957680102c9a3e778060ee70260401c5b600160391b821615611d245768010163da9fb33356d80260401c5b600160381b821615611d3f57680100b1afa5abcbed610260401c5b600160371b821615611d5a5768010058c86da1c09ea20260401c5b600160361b821615611d75576801002c605e2e8cec500260401c5b600160351b821615611d9057680100162f3904051fa10260401c5b600160341b821615611dab576801000b175effdc76ba0260401c5b600160331b821615611dc657680100058ba01fb9f96d0260401c5b600160321b821615611de15768010002c5cc37da94920260401c5b600160311b821615611dfc576801000162e525ee05470260401c5b600160301b821615611e175768010000b17255775c040260401c5b6001602f1b821615611e32576801000058b91b5bc9ae0260401c5b6001602e1b821615611e4d57680100002c5c89d5ec6d0260401c5b6001602d1b821615611e685768010000162e43f4f8310260401c5b6001602c1b821615611e8357680100000b1721bcfc9a0260401c5b6001602b1b821615611e9e5768010000058b90cf1e6e0260401c5b6001602a1b821615611eb9576801000002c5c863b73f0260401c5b600160291b821615611ed457680100000162e430e5a20260401c5b600160281b821615611eef576801000000b1721835510260401c5b600160271b821615611f0a57680100000058b90c0b490260401c5b600160261b821615611f255768010000002c5c8601cc0260401c5b600160251b821615611f40576801000000162e42fff00260401c5b600160241b821615611f5b5768010000000b17217fbb0260401c5b600160231b821615611f76576801000000058b90bfce0260401c5b600160221b821615611f9157680100000002c5c85fe30260401c5b600160211b821615611fac5768010000000162e42ff10260401c5b600160201b821615611fc757680100000000b17217f80260401c5b6380000000821615611fe25768010000000058b90bfc0260401c5b6340000000821615611ffd576801000000002c5c85fe0260401c5b632000000082161561201857680100000000162e42ff0260401c5b6310000000821615612033576801000000000b17217f0260401c5b630800000082161561204e57680100000000058b90c00260401c5b63040000008216156120695768010000000002c5c8600260401c5b6302000000821615612084576801000000000162e4300260401c5b630100000082161561209f5768010000000000b172180260401c5b628000008216156120b9576801000000000058b90c0260401c5b624000008216156120d357680100000000002c5c860260401c5b622000008216156120ed5768010000000000162e430260401c5b6210000082161561210757680100000000000b17210260401c5b620800008216156121215768010000000000058b910260401c5b6204000082161561213b576801000000000002c5c80260401c5b6202000082161561215557680100000000000162e40260401c5b6201000082161561216e5761b172600160401b010260401c5b618000821615612186576158b9600160401b010260401c5b61400082161561219e57612c5d600160401b010260401c5b6120008216156121b65761162e600160401b010260401c5b6110008216156121ce57610b17600160401b010260401c5b6108008216156121e65761058c600160401b010260401c5b6104008216156121fe576102c6600160401b010260401c5b61020082161561221657610163600160401b010260401c5b61010082161561222d5760b1600160401b010260401c5b6080821615612243576059600160401b010260401c5b604082161561225957602c600160401b010260401c5b602082161561226f576016600160401b010260401c5b601082161561228557600b600160401b010260401c5b600882161561229b576006600160401b010260401c5b60048216156122b1576003600160401b010260401c5b60028216156122c7576001600160401b010260401c5b60018216156122dd576001600160401b010260401c5b670de0b6b3a76400000260409190911c60bf031c90565b828054828255906000526020600020908101928215612349579160200282015b8281111561234957825182546001600160a01b0319166001600160a01b03909116178255602090920191600190910190612314565b506123559291506123ac565b5090565b828054828255906000526020600020908101928215612349579160200282015b828111156123495781546001600160a01b0319166001600160a01b03843516178255602090920191600190910190612379565b5b8082111561235557600081556001016123ad565b80516001600160701b0381168114611c5d57600080fd5b80516001600160501b0381168114611c5d57600080fd5b600060208284031215612400578081fd5b813561038b81612948565b60006020828403121561241c578081fd5b815161038b81612948565b60008060006040848603121561243b578182fd5b833561244681612948565b925060208401356001600160401b0380821115612461578384fd5b818601915086601f830112612474578384fd5b813581811115612482578485fd5b8760208260051b8501011115612496578485fd5b6020830194508093505050509250925092565b6000806000606084860312156124bd578283fd5b6124c6846123c1565b92506124d4602085016123c1565b9150604084015163ffffffff811681146124ec578182fd5b809150509250925092565b600060208284031215612508578081fd5b5035919050565b600060208284031215612520578081fd5b5051919050565b60008060006060848603121561253b578283fd5b505081359360208301359350604090920135919050565b600080600080600060a08688031215612569578081fd5b612572866123d8565b9450602086015193506040860151925060608601519150612595608087016123d8565b90509295509295909350565b6000602082840312156125b2578081fd5b815160ff8116811461038b578182fd5b6000815180845260208085019450808401835b838110156125fa5781516001600160a01b0316875295820195908201906001016125d5565b509495945050505050565b6001600160a01b0391909116815260200190565b6001600160a01b0392831681529116602082015260400190565b86151581526000602060018060581b0388168184015260018060a01b03808816604085015260a0606085015261266c60a08501886125c2565b848103608086015285815286908301845b878110156126a457823561269081612948565b84168252918401919084019060010161267d565b509b9a5050505050505050505050565b6000602080835283518082850152825b818110156126e0578581018301518582016040015282016126c4565b818111156126f15783604083870101525b50601f01601f1916929092016040019392505050565b60006020808352835115158184015260018060581b038185015116604084015260018060a01b03604085015116606084015260608401516080840152608084015160c060a085015261275c60e08501826125c2565b60a0860151858203601f190160c08701528051808352908401925084918401905b808310156127a85783516001600160a01b03168252602082019150848401935060018301925061277d565b509695505050505050565b600082198211156127c6576127c6612932565b500190565b6000826127e657634e487b7160e01b81526012600452602481fd5b500490565b600181815b8085111561282657816000190482111561280c5761280c612932565b8085161561281957918102915b93841c93908002906127f0565b509250929050565b600061038b60ff84168360008261284757506001611685565b8161285457506000611685565b816001811461286a576002811461287457612890565b6001915050611685565b60ff84111561288557612885612932565b50506001821b611685565b5060208310610133831016604e8410600b84101617156128b3575081810a611685565b6128bd83836127eb565b80600019048211156128d1576128d1612932565b029392505050565b60008160001904831182151516156128f3576128f3612932565b500290565b60008282101561290a5761290a612932565b500390565b600060ff821660ff84168082101561292957612929612932565b90039392505050565b634e487b7160e01b600052601160045260246000fd5b6001600160a01b038116811461295d57600080fd5b5056fe4379676e75732d4e6562756c613a20436f6e7374616e742d50726f64756374204c50204f7261636c65a2646970667358221220b432c0b955dee6ce6ec5081481288e2afd46b9d180be8d6c970100c2d9aa55dd64736f6c63430008040033",
  "linkReferences": {},
  "deployedLinkReferences": {}
}