{
  "_format": "hh-sol-artifact-1",
  "contractName": "CygnusNebulaRegistry",
  "sourceName": "contracts/cygnus-oracle/CygnusNebulaRegistry.sol",
  "abi": [
    {
      "inputs": [],
      "stateMutability": "nonpayable",
      "type": "constructor"
    },
    {
      "inputs": [],
      "name": "CygnusNebulaRegistry__PriceCantBeZero",
      "type": "error"
    },
    {
      "inputs": [],
      "name": "CygnusNebula__AdminCantBeZero",
      "type": "error"
    },
    {
      "inputs": [],
      "name": "CygnusNebula__OracleAlreadyAdded",
      "type": "error"
    },
    {
      "inputs": [],
      "name": "CygnusNebula__PendingAdminAlreadySet",
      "type": "error"
    },
    {
      "inputs": [],
      "name": "CygnusNebula__SenderNotAdmin",
      "type": "error"
    },
    {
      "inputs": [],
      "name": "ReentrantCall",
      "type": "error"
    },
    {
      "anonymous": false,
      "inputs": [
        {
          "indexed": false,
          "internalType": "address",
          "name": "oldAdmin",
          "type": "address"
        },
        {
          "indexed": false,
          "internalType": "address",
          "name": "newAdmin",
          "type": "address"
        }
      ],
      "name": "NewNebulaAdmin",
      "type": "event"
    },
    {
      "anonymous": false,
      "inputs": [
        {
          "indexed": false,
          "internalType": "address",
          "name": "oracle",
          "type": "address"
        },
        {
          "indexed": false,
          "internalType": "uint256",
          "name": "oracleId",
          "type": "uint256"
        }
      ],
      "name": "NewNebulaOracle",
      "type": "event"
    },
    {
      "anonymous": false,
      "inputs": [
        {
          "indexed": false,
          "internalType": "address",
          "name": "oldPendingAdmin",
          "type": "address"
        },
        {
          "indexed": false,
          "internalType": "address",
          "name": "newPendingAdmin",
          "type": "address"
        }
      ],
      "name": "NewNebulaPendingAdmin",
      "type": "event"
    },
    {
      "inputs": [],
      "name": "admin",
      "outputs": [
        {
          "internalType": "address",
          "name": "",
          "type": "address"
        }
      ],
      "stateMutability": "view",
      "type": "function"
    },
    {
      "inputs": [
        {
          "internalType": "uint256",
          "name": "",
          "type": "uint256"
        }
      ],
      "name": "allNebulaOracles",
      "outputs": [
        {
          "internalType": "address",
          "name": "",
          "type": "address"
        }
      ],
      "stateMutability": "view",
      "type": "function"
    },
    {
      "inputs": [
        {
          "internalType": "uint256",
          "name": "",
          "type": "uint256"
        }
      ],
      "name": "allNebulas",
      "outputs": [
        {
          "internalType": "string",
          "name": "name",
          "type": "string"
        },
        {
          "internalType": "address",
          "name": "nebula",
          "type": "address"
        },
        {
          "internalType": "uint256",
          "name": "nebulaId",
          "type": "uint256"
        },
        {
          "internalType": "uint256",
          "name": "totalOracles",
          "type": "uint256"
        },
        {
          "internalType": "uint256",
          "name": "createdAt",
          "type": "uint256"
        }
      ],
      "stateMutability": "view",
      "type": "function"
    },
    {
      "inputs": [
        {
          "internalType": "address",
          "name": "_nebula",
          "type": "address"
        }
      ],
      "name": "createNebula",
      "outputs": [],
      "stateMutability": "nonpayable",
      "type": "function"
    },
    {
      "inputs": [
        {
          "internalType": "address",
          "name": "lpTokenPair",
          "type": "address"
        }
      ],
      "name": "getLPTokenNebula",
      "outputs": [
        {
          "components": [
            {
              "internalType": "string",
              "name": "name",
              "type": "string"
            },
            {
              "internalType": "address",
              "name": "nebula",
              "type": "address"
            },
            {
              "internalType": "uint256",
              "name": "nebulaId",
              "type": "uint256"
            },
            {
              "internalType": "uint256",
              "name": "totalOracles",
              "type": "uint256"
            },
            {
              "internalType": "uint256",
              "name": "createdAt",
              "type": "uint256"
            }
          ],
          "internalType": "struct ICygnusNebulaRegistry.CygnusNebula",
          "name": "",
          "type": "tuple"
        }
      ],
      "stateMutability": "view",
      "type": "function"
    },
    {
      "inputs": [
        {
          "internalType": "address",
          "name": "lpTokenPair",
          "type": "address"
        }
      ],
      "name": "getLPTokenNebulaAddress",
      "outputs": [
        {
          "internalType": "address",
          "name": "",
          "type": "address"
        }
      ],
      "stateMutability": "view",
      "type": "function"
    },
    {
      "inputs": [
        {
          "internalType": "address",
          "name": "lpTokenPair",
          "type": "address"
        }
      ],
      "name": "getLPTokenPriceUsd",
      "outputs": [
        {
          "internalType": "uint256",
          "name": "",
          "type": "uint256"
        }
      ],
      "stateMutability": "view",
      "type": "function"
    },
    {
      "inputs": [
        {
          "internalType": "address",
          "name": "_nebula",
          "type": "address"
        }
      ],
      "name": "getNebula",
      "outputs": [
        {
          "components": [
            {
              "internalType": "string",
              "name": "name",
              "type": "string"
            },
            {
              "internalType": "address",
              "name": "nebula",
              "type": "address"
            },
            {
              "internalType": "uint256",
              "name": "nebulaId",
              "type": "uint256"
            },
            {
              "internalType": "uint256",
              "name": "totalOracles",
              "type": "uint256"
            },
            {
              "internalType": "uint256",
              "name": "createdAt",
              "type": "uint256"
            }
          ],
          "internalType": "struct ICygnusNebulaRegistry.CygnusNebula",
          "name": "",
          "type": "tuple"
        }
      ],
      "stateMutability": "view",
      "type": "function"
    },
    {
      "inputs": [
        {
          "internalType": "address",
          "name": "lpTokenPair",
          "type": "address"
        }
      ],
      "name": "getNebulaOracle",
      "outputs": [
        {
          "components": [
            {
              "internalType": "bool",
              "name": "initialized",
              "type": "bool"
            },
            {
              "internalType": "uint88",
              "name": "oracleId",
              "type": "uint88"
            },
            {
              "internalType": "string",
              "name": "name",
              "type": "string"
            },
            {
              "internalType": "address",
              "name": "underlying",
              "type": "address"
            },
            {
              "internalType": "contract IERC20[]",
              "name": "poolTokens",
              "type": "address[]"
            },
            {
              "internalType": "uint256[]",
              "name": "poolTokensDecimals",
              "type": "uint256[]"
            },
            {
              "internalType": "contract AggregatorV3Interface[]",
              "name": "priceFeeds",
              "type": "address[]"
            },
            {
              "internalType": "uint256[]",
              "name": "priceFeedsDecimals",
              "type": "uint256[]"
            }
          ],
          "internalType": "struct ICygnusNebula.NebulaOracle",
          "name": "",
          "type": "tuple"
        }
      ],
      "stateMutability": "view",
      "type": "function"
    },
    {
      "inputs": [
        {
          "internalType": "uint256",
          "name": "nebulaId",
          "type": "uint256"
        },
        {
          "internalType": "address",
          "name": "lpTokenPair",
          "type": "address"
        },
        {
          "internalType": "contract AggregatorV3Interface[]",
          "name": "aggregators",
          "type": "address[]"
        }
      ],
      "name": "initializeOracleInNebula",
      "outputs": [],
      "stateMutability": "nonpayable",
      "type": "function"
    },
    {
      "inputs": [],
      "name": "name",
      "outputs": [
        {
          "internalType": "string",
          "name": "",
          "type": "string"
        }
      ],
      "stateMutability": "view",
      "type": "function"
    },
    {
      "inputs": [],
      "name": "pendingAdmin",
      "outputs": [
        {
          "internalType": "address",
          "name": "",
          "type": "address"
        }
      ],
      "stateMutability": "view",
      "type": "function"
    },
    {
      "inputs": [],
      "name": "setRegistryAdmin",
      "outputs": [],
      "stateMutability": "nonpayable",
      "type": "function"
    },
    {
      "inputs": [
        {
          "internalType": "address",
          "name": "newPendingAdmin",
          "type": "address"
        }
      ],
      "name": "setRegistryPendingAdmin",
      "outputs": [],
      "stateMutability": "nonpayable",
      "type": "function"
    },
    {
      "inputs": [],
      "name": "totalNebulaOracles",
      "outputs": [
        {
          "internalType": "uint256",
          "name": "",
          "type": "uint256"
        }
      ],
      "stateMutability": "view",
      "type": "function"
    },
    {
      "inputs": [],
      "name": "totalNebulas",
      "outputs": [
        {
          "internalType": "uint256",
          "name": "",
          "type": "uint256"
        }
      ],
      "stateMutability": "view",
      "type": "function"
    }
  ],
  "bytecode": "0x608034620001e757600160008160ff198254161781556020917f4379676e75732d4e6562756c613a204f7261636c6520526567697374727920238385015246604085015260408452606084019160018060401b039285811084821117620001d3576040528451928311620001bf5760059485548381811c91168015620001b4575b86821014620001a057601f811162000157575b508491601f8511600114620000f0579394508492919083620000e4575b50501b916000199060031b1c19161790555b600680546001600160a01b031916331790556040516119219081620001ed8239f35b015192503880620000b0565b86815285812093958591601f198316915b888383106200013c575050501062000122575b505050811b019055620000c2565b015160001960f88460031b161c1916905538808062000114565b85870151885590960195948501948793509081019062000101565b868352858320601f8601881c81019187871062000195575b601f01881c019084905b8281106200018957505062000093565b84815501849062000179565b90915081906200016f565b634e487b7160e01b83526022600452602483fd5b90607f169062000080565b634e487b7160e01b81526041600452602490fd5b634e487b7160e01b82526041600452602482fd5b600080fdfe6040608081526004908136101561001557600080fd5b60009160e0908335821c91826306fdde03146110b75782630dfe66df14610faa5782631d1d521c14610ea05782632678224714610e4c57826339c3c08714610e0f5782633da49c1d14610b9b5782633ef096d3146107b55750816351efa205146107375781636c13e502146106fa5781636c63fa8e1461068c5781637fd5b20d146103e0578163856d7e2314610379578163b563deb214610264578163d02c70e8146101b3578163f0ac40c41461012b575063f851a440146100d657600080fd5b3461012757817ffffffffffffffffffffffffffffffffffffffffffffffffffffffffffffffffc3601126101275760209073ffffffffffffffffffffffffffffffffffffffff600654169051908152f35b5080fd5b9050346101af5760207ffffffffffffffffffffffffffffffffffffffffffffffffffffffffffffffffc3601126101af57359173ffffffffffffffffffffffffffffffffffffffff83168093036101aa578161019b916101a69461018d6113e7565b508152600260205220611415565b90519182918261132b565b0390f35b600080fd5b8280fd5b9050346101af5760207ffffffffffffffffffffffffffffffffffffffffffffffffffffffffffffffffc3601126101af57803592600354841015610261575061020061024a9360036113cb565b509161020b836111cc565b9273ffffffffffffffffffffffffffffffffffffffff60018201541692600282015490600383015492015492805196879660a0885260a08801906112b4565b946020870152850152606084015260808301520390f35b80fd5b83833461012757602092837ffffffffffffffffffffffffffffffffffffffffffffffffffffffffffffffffc3601126101af57803573ffffffffffffffffffffffffffffffffffffffff8082168092036101aa5785908286526001825284862054169160248551809481937f17e5a1a1000000000000000000000000000000000000000000000000000000008352878301525afa93841561036e57809461033c575b50508215610315575051908152f35b90517fcd6dfe58000000000000000000000000000000000000000000000000000000008152fd5b909193508482813d8311610367575b610355818361115c565b81010312610261575051918480610306565b503d61034b565b8351903d90823e3d90fd5b9050346101af5760207ffffffffffffffffffffffffffffffffffffffffffffffffffffffffffffffffc3601126101af573573ffffffffffffffffffffffffffffffffffffffff908181168091036101aa5783839160209552600185522054169051908152f35b838334610127576020807ffffffffffffffffffffffffffffffffffffffffffffffffffffffffffffffffc3601126101af5783359073ffffffffffffffffffffffffffffffffffffffff908183168093036101aa5761043d611741565b6003549461044a866114e3565b906104578651928361115c565b868252600381527fc2575a0e9e593c00f959f8c92f12db2869c3395a3b0502d05e2516446f71f85b81848085015b8a831061066d5750505050805b82518110156104e557858585808460051b87010151015116146104bd576104b890611559565b610492565b8887517f8bebcdc4000000000000000000000000000000000000000000000000000000008152fd5b50959192505083517f06fdde0300000000000000000000000000000000000000000000000000000000815285818881875afa90811561066357869161061b575b5084519061053460a08361115c565b8152838382015284810191808352866060830152426080830152680100000000000000008110156105ef57806001610571920160035560036113cb565b6105c4577f57d4ed77132570b57702afc3d7a0d2e4a15f96c85297d64fa99f04df00d71255969750906105a7816105b69361178c565b8488526002845285882061178c565b51908351928352820152a180f35b602487808a7f4e487b7100000000000000000000000000000000000000000000000000000000825252fd5b60248760418a7f4e487b7100000000000000000000000000000000000000000000000000000000835252fd5b90503d8087833e61062c818361115c565b810190838183031261065f5780519067ffffffffffffffff821161065b57610655929101611470565b87610525565b8780fd5b8680fd5b85513d88823e3d90fd5b60019160059161067c86611415565b8152019301910190918590610485565b9050346101af5760207ffffffffffffffffffffffffffffffffffffffffffffffffffffffffffffffffc3601126101af57803592815484101561026157506106eb60209373ffffffffffffffffffffffffffffffffffffffff92611384565b92905490519260031b1c168152f35b50503461012757817ffffffffffffffffffffffffffffffffffffffffffffffffffffffffffffffffc360112610127576020906003549051908152f35b9050346101af5760207ffffffffffffffffffffffffffffffffffffffffffffffffffffffffffffffffc3601126101af573573ffffffffffffffffffffffffffffffffffffffff908181168091036101aa576101a69361019b92849261079b6113e7565b508252600160205282822054168152600260205220611415565b915091923461026157602090817ffffffffffffffffffffffffffffffffffffffffffffffffffffffffffffffffc3601126102615783359373ffffffffffffffffffffffffffffffffffffffff948581168091036101aa57849287519461010095610820878261115c565b828152828282015260609781898c8194015284838201528260808201528260a08201528260c082015201528282528160019384835260248a8c84205416968c5197889384927f3ef096d30000000000000000000000000000000000000000000000000000000084528301525afa938415610b915782946109bf575b509188969492886108e29a9997959399519a8b99838b5285511515848c01526affffffffffffffffffffff8487015116818c015285015187898c01526101208b01906112b4565b9684015116608089015260808301517fffffffffffffffffffffffffffffffffffffffffffffffffffffffffffffffe096878a82030160a08b01528280835192838152019201908b5b8181106109a75750505061094d9060a0850151888b83030160c08c01526112f7565b9060c084015197878a840301868b015281808a51948581520199019a905b83821061098d5750505050506101a695965001519185840301908501526112f7565b8b5181168a529a82019a8c9a50988201989084019061096b565b82518b1684528d9b509284019291840191850161092b565b9093503d8083833e6109d1818361115c565b810184828203126101af57815167ffffffffffffffff92838211610b4b5701918783830312610b8d578a5192610a07898561115c565b80518015158103610b70578452868101516affffffffffffffffffffff81168103610b7057878501528b810151828111610b705783610a47918301611470565b8c850152898101518b81168103610b70578a8501526080810151828111610b7057810183601f82011215610b7057808d9151610a8e610a85826114e3565b9351938461115c565b808352898084019160051b83010191868311610b6c578a01908e5b838310610b745750505050608085015260a0810151828111610b705783610ad19183016114fb565b60a085015260c0810151828111610b7057810183601f82011215610b7057808d9151610aff610a85826114e3565b808352898084019160051b83010191868311610b6c578a01908e5b838310610b4f575050505060c085015287810151918211610b4b57610b409291016114fb565b85820152923861089b565b8480fd5b82519081168103610b68578152908a01908a018e610b1a565b8980fd5b8880fd5b8580fd5b82519081168103610b68578152908a01908a018e610aa9565b8380fd5b89513d84823e3d90fd5b508383346101275760607ffffffffffffffffffffffffffffffffffffffffffffffffffffffffffffffffc3601126101275760243573ffffffffffffffffffffffffffffffffffffffff91828216809203610b8d5760443567ffffffffffffffff91828211610b705736602383011215610b705781870135928311610b70573660248460051b84010111610b7057610c31611741565b610c3d873560036113cb565b50600193848201938785541690813b15610b685789918b918487519586947fd9be85310000000000000000000000000000000000000000000000000000000086528c604487019187015289602487015252602460648501920190855b818110610dde575050508383809203925af18015610dd4579089939291610dc0575b5060038101610cca8154611559565b81558785541692878a5286602052808a207fffffffffffffffffffffffff00000000000000000000000000000000000000009485825416179055888654168a526002602052892094828603610d86575b505050509050549068010000000000000000821015610d5a5781018555610d419085611384565b909283549160031b90811b9283911b1691191617905580f35b6024856041887f4e487b7100000000000000000000000000000000000000000000000000000000835252fd5b8493610d928488611609565b8988880192541690825416179055600282015460028601555460038501550154910155858581808080610d1a565b88610dcd9199929961115c565b9689610cbb565b83513d8a823e3d90fd5b9291945092945083358c8116809103610e0b57908a918152602080910194019101908c9492869492610c99565b8d80fd5b509050346101af57827ffffffffffffffffffffffffffffffffffffffffffffffffffffffffffffffffc3601126101af5760209250549051908152f35b5050503461012757817ffffffffffffffffffffffffffffffffffffffffffffffffffffffffffffffffc3601126101275760209073ffffffffffffffffffffffffffffffffffffffff600754169051908152f35b5083833461012757817ffffffffffffffffffffffffffffffffffffffffffffffffffffffffffffffffc36011261012757610ed9611741565b60075473ffffffffffffffffffffffffffffffffffffffff91828216948515610f835750600680547fffffffffffffffffffffffff0000000000000000000000000000000000000000808216881790925592166007555173ffffffffffffffffffffffffffffffffffffffff929091168216815292166020830152907f48f3ba16f452389f15eff21a6164bb71c53da0b32e0c1b8a3874c6ac1ce003e79080604081015b0390a180f35b90517f37399dfd000000000000000000000000000000000000000000000000000000008152fd5b508383346101275760207ffffffffffffffffffffffffffffffffffffffffffffffffffffffffffffffffc3601126101275782359073ffffffffffffffffffffffffffffffffffffffff9384831690818403610b4b57611008611741565b60075490868216831461109057507fffffffffffffffffffffffff000000000000000000000000000000000000000016176007556006549051931673ffffffffffffffffffffffffffffffffffffffff9081168452166020830152907ffda15d9c9d426e7a7d0ad84198bef355e30cdb5313c6a8032b18dbd8068998b7908060408101610f7d565b83517fe5af0542000000000000000000000000000000000000000000000000000000008152fd5b5050503461012757817ffffffffffffffffffffffffffffffffffffffffffffffffffffffffffffffffc360112610127576101a6906110f660056111cc565b90519182916020835260208301906112b4565b90600182811c92168015611152575b602083101461112357565b7f4e487b7100000000000000000000000000000000000000000000000000000000600052602260045260246000fd5b91607f1691611118565b90601f7fffffffffffffffffffffffffffffffffffffffffffffffffffffffffffffffe0910116810190811067ffffffffffffffff82111761119d57604052565b7f4e487b7100000000000000000000000000000000000000000000000000000000600052604160045260246000fd5b90604051918260008254926111e084611109565b90818452600194858116908160001461124f575060011461120c575b505061120a9250038361115c565b565b9093915060005260209081600020936000915b81831061123757505061120a935082010138806111fc565b8554888401850152948501948794509183019161121f565b905061120a9550602093507fffffffffffffffffffffffffffffffffffffffffffffffffffffffffffffff0091501682840152151560051b82010138806111fc565b60005b8381106112a45750506000910152565b8181015183820152602001611294565b907fffffffffffffffffffffffffffffffffffffffffffffffffffffffffffffffe0601f6020936112f081518092818752878088019101611291565b0116010190565b90815180825260208080930193019160005b828110611317575050505090565b835185529381019392810192600101611309565b6020815260a06080611348845183602086015260c08501906112b4565b9373ffffffffffffffffffffffffffffffffffffffff602082015116604085015260408101516060850152606081015182850152015191015290565b805482101561139c5760005260206000200190600090565b7f4e487b7100000000000000000000000000000000000000000000000000000000600052603260045260246000fd5b805482101561139c576000526005602060002091020190600090565b604051906113f660a08361115c565b6000608083606081528260208201528260408201528260608201520152565b9060405161142460a08261115c565b608060048294611433816111cc565b845273ffffffffffffffffffffffffffffffffffffffff600182015416602085015260028101546040850152600381015460608501520154910152565b81601f820112156101aa57805167ffffffffffffffff811161119d57604051926114c260207fffffffffffffffffffffffffffffffffffffffffffffffffffffffffffffffe0601f850116018561115c565b818452602082840101116101aa576114e09160208085019101611291565b90565b67ffffffffffffffff811161119d5760051b60200190565b81601f820112156101aa57805191611512836114e3565b92611520604051948561115c565b808452602092838086019260051b8201019283116101aa578301905b82821061154a575050505090565b8151815290830190830161153c565b7fffffffffffffffffffffffffffffffffffffffffffffffffffffffffffffffff81146115865760010190565b7f4e487b7100000000000000000000000000000000000000000000000000000000600052601160045260246000fd5b90601f81116115c357505050565b600091825260208220906020601f850160051c830194106115ff575b601f0160051c01915b8281106115f457505050565b8181556001016115e8565b90925082906115df565b9080821461173d5761161b8154611109565b9067ffffffffffffffff821161119d5781906116418261163b8654611109565b866115b5565b600090601f83116001146116955760009261168a575b50507fffffffffffffffffffffffffffffffffffffffffffffffffffffffffffffffff8260011b9260031b1c1916179055565b015490503880611657565b917fffffffffffffffffffffffffffffffffffffffffffffffffffffffffffffffe016918152602091828220908583528383209383905b8282106117245750509084600195949392106116ed575b505050811b019055565b01547fffffffffffffffffffffffffffffffffffffffffffffffffffffffffffffffff60f88460031b161c191690553880806116e3565b84958192958501548155600180910196019401906116cc565b5050565b73ffffffffffffffffffffffffffffffffffffffff60065416330361176257565b60046040517f8c94cc9a000000000000000000000000000000000000000000000000000000008152fd5b90805180519067ffffffffffffffff821161119d576117af8261163b8654611109565b602090601f831160011461186c57918060049492608094600092611861575b50507fffffffffffffffffffffffffffffffffffffffffffffffffffffffffffffffff8260011b9260031b1c19161784555b6001840173ffffffffffffffffffffffffffffffffffffffff6020830151167fffffffffffffffffffffffff000000000000000000000000000000000000000082541617905560408101516002850155606081015160038501550151910155565b0151905038806117ce565b907fffffffffffffffffffffffffffffffffffffffffffffffffffffffffffffffe083169185600052816000209260005b8181106118fc575092600192859260809660049896106118c5575b505050811b018455611800565b01517fffffffffffffffffffffffffffffffffffffffffffffffffffffffffffffffff60f88460031b161c191690553880806118b8565b9293602060018192878601518155019501930161189d56fea164736f6c6343000811000a",
  "linkReferences": {},
  "deployedLinkReferences": {}
}